:100000000C94DD010C940E020C940E020C940E0262
:100010000C940E020C940E020C940E020C940E0220
:100020000C940E020C940E020C940E020C940E0210
:100030000C940E020C940E020C940E020C940E0200
:100040000C940E020C940E020C940E020C940E02F0
:100050000C940E020C940E020C940E020C941F07CA
:100060000C940E020C9493070C9469070C940E02E6
:100070000C940E020C940E020C940E020C940E02C0
:100080000C940E020C940E020C940E020C940E02B0
:100090000C940E020C940E020C940E020C940E02A0
:1000A0000C940E020C940E020C940E020C940E0290
:1000B0000C940E020C940E020C940E020C940E0280
:1000C0000C940E020C940E020C940E020C940E0270
:1000D0000C940E020C940E020C940E020C940E0260
:1000E0000C940E020C94540A0C944D020C94570A72
:1000F0000C9410040C9475030C947E0A0C94080A5A
:100100000C9438020C946E020C946E0A0C945302F8
:100110000C945B020C9484030C94FA090C94400236
:100120000C94610A0C9465020C94CA030C94660A40
:100130000C94FC090C94710A0C94C9070C9461028C
:100140000C9473020C94B8090C943C020C94F709BB
:100150000C94D8030C945D040C9469020C94340242
:100160000C9449020C9457020C945E0A0C94790A80
:100170000C9448030C94510A0C94690A0C942E02B6
:100180000C9443020C946F020C94A80D0C94760A04
:100190000C94C2090C94D4090C94FF0900407A1005
:1001A000F35A00A0724E18090010A5D4E80000E828
:1001B0007648170000E40B54020000CA9A3B000086
:1001C00000E1F505000080969800000040420F0015
:1001D0000000A08601000000102700000000E803D6
:1001E000000000006400000000000A0000000000A1
:1001F0000100000000002C76D888DC674F0823DF60
:10020000C1DFAE59E1B1B796E5E3E453C63AE65132
:10021000997696E8E6C28426EB898C9B62ED407C59
:100220006FFCEFBC9C9F40F2BAA56FA5F490055AF5
:100230002AF75C936B6CF9676DC11BFCE0E40D471A
:10024000FEF520E6B500D0ED902E0300943577053D
:100250000080841E080000204E0A000000C80C33F5
:100260003333330F986E12831141EF8D2114893B84
:10027000E65516CFFEE6DB18D1844B381BF77C1D04
:10028000901DA4BBE424203284725E228100C9F157
:1002900024ECA1E53D2700002100240027002A00CE
:1002A0002D003000330001010000040107010A01A4
:1002B00000002200250028002B002E003100340011
:1002C00002010000050108010B01000020002300CD
:1002D000260029002C002F0032000001000003013D
:1002E00006010901050505050705080808080202B9
:1002F00002020A0A080804040404010101010101C0
:1003000001010303030303030303040707070C0CA2
:100310000C0C0C0C0C0C0202020206060606060669
:1003200006060B0B0B0B0B0B0B0B0102102020080E
:100330000810204010204080020102010804020140
:1003400001020408102040808040201008040201AF
:100350008004020180402010080402010804020108
:10036000010204081020408001020408102040808F
:1003700000000A0B02090C0D0E080703040100001F
:10038000000000000000000000000000000000006D
:10039000000000000000000000000000121110002A
:1003A000000000000000000000000000000000004D
:1003B000000000000000C907A80D11241FBECFEFE8
:1003C000D1E2DEBFCDBF00E00CBF25E0AEEBB4E074
:1003D00001C01D92A33CB207E1F714E0A0E0B2E037
:1003E000E0ECF8E200E00BBF02C007900D92AE3BDC
:1003F000B107D9F711E0CCEDD1E000E006C02197BC
:100400000109802FFE010E944111CB3DD10780E000
:100410000807A9F70E9402080C944E140C940000DF
:100420008150823108F05AC0E82FF0E08827E45E5E
:10043000FD4F8F4F0C9441113C0240022E023402BA
:1004400038026E02430249024D02530257025B0218
:10045000610265026E0269026F0273028091800080
:100460008F77809380000895809180008F7DF9CFF1
:1004700080918000877FF5CF84B58F7784BD089504
:1004800084B58F7DFBCF8091B0008F778093B000D3
:1004900008958091B0008F7DF9CF809190008F7783
:1004A000809390000895809190008F7DF9CF809186
:1004B0009000877FF5CF8091A0008F778093A00078
:1004C00008958091A0008F7DF9CF8091A000877F53
:1004D000F5CF809120018F7780932001089580913E
:1004E00020018F7DF9CF80912001877FF5CFCF93B9
:1004F000DF93282F30E0F901E059FC4F8491F90196
:10050000E65DFC4FD491F901EC51FD4FC491CC2331
:10051000A1F081110E941002EC2FF0E0EE0FFF1FFE
:10052000E653FD4FA591B491EC91ED2381E090E06D
:1005300009F480E0DF91CF91089580E090E0FACF58
:100540001F93CF93DF93282F30E0F901E059FC4F40
:100550008491F901E65DFC4FD491F901EC51FD4F16
:10056000C491CC23A9F0162F81110E941002EC2F08
:10057000F0E0EE0FFF1FE055FD4FA591B4918FB74E
:10058000F894EC91111108C0D095DE23DC938FBF55
:10059000DF91CF911F910895DE2BF8CFCF93DF939A
:1005A00090E0FC01E65DFC4F24918C519D4FFC01D5
:1005B00084918823D1F090E0880F991FFC01EA56BE
:1005C000FD4FA591B491FC01E055FD4FC591D4912B
:1005D00061110EC09FB7F8948C91E22FE0958E23A5
:1005E0008C932881E223E8839FBFDF91CF91089508
:1005F0008FB7F894EC91E22BEC938FBFF6CF9091EC
:100600007B00977F90937B008653806480937C006F
:1006100080917A00806480937A0080917A0086FDD0
:10062000FCCF809178009091790008953FB7F894BD
:100630008091180590911905A0911A05B0911B059C
:1006400026B5A89B05C02F3F19F00196A11DB11D2D
:100650003FBFBA2FA92F982F8827BC01CD01620F69
:10066000711D811D911D42E0660F771F881F991F24
:100670004A95D1F708952FB7F894609114057091B9
:10068000150580911605909117052FBF08950895BF
:10069000AF92BF92CF92DF92EF92FF920F931F9390
:1006A000CF93DF936C017B018B01040F151FEB01CE
:1006B0005E01AE18BF08C017D10759F06991D60185
:1006C000ED91FC910190F081E02DC6011995892BE7
:1006D00079F7C501DF91CF911F910F91FF90EF90B6
:1006E000DF90CF90BF90AF900895FC01538D448D63
:1006F000252F30E0842F90E0821B930B541710F0CD
:10070000CF96089501970895FC01918D828D9817D9
:1007100061F0A28DAE0FBF2FB11D5D968C91928DB1
:100720009F5F9F73928F90E008958FEF9FEF0895E2
:100730000F931F930E943B0360932405709325053C
:1007400080932605909327058CE195E00E94840311
:1007500097FF1DC00E943B030091240510912505C1
:100760002091260530912705601B710B820B930B9E
:10077000009120051091210520912205309123053B
:100780006017710782079307F8F28FEF9FEF1F91B1
:100790000F910895FC01918D828D981731F0828D13
:1007A000E80FF11D858D90E008958FEF9FEF08957C
:1007B000FC01918D228D892F90E0805C9F4F821BE0
:1007C00091098F73992708958CE195E00E94D803D1
:1007D00021E0892B09F420E0822F0895FC01A48DEB
:1007E000A80FB92FB11DA35ABF4F2C91848D90E053
:1007F00001968F739927848FA689B7892C93A08936
:10080000B1898C91837080648C93938D848D9813BF
:1008100006C00288F389E02D80818F7D8083089552
:10082000EF92FF920F931F93CF93DF93EC0181E040
:10083000888F9B8D8C8D98131AC0E889F9898081E7
:1008400085FF15C09FB7F894EE89FF896083E8891A
:10085000F98980818370806480839FBF81E090E00C
:10086000DF91CF911F910F91FF90EF900895F62E99
:100870000B8D10E00F5F1F4F0F731127E02E8C8D33
:100880008E110CC00FB607FCFACFE889F989808178
:1008900085FFF5CFCE010E94EE03F1CFEB8DEC0F7B
:1008A000FD2FF11DE35AFF4FF0829FB7F8940B8F95
:1008B000EA89FB8980818062CFCFCF93DF93EC01FF
:1008C000888D8823B9F0AA89BB89E889F9898C9138
:1008D00085FD03C0808186FD0DC00FB607FCF7CFF4
:1008E0008C9185FFF2CF808185FFEDCFCE010E94F4
:1008F000EE03E9CFDF91CF91089580E090E0892B5E
:1009000029F00E94E40381110E94000080E090E041
:10091000892B49F080E090E0892B29F00E940000AB
:1009200081110E94000080E090E0892B49F080E076
:1009300090E0892B29F00E94000081110E940000A4
:1009400080E090E0892B49F080E090E0892B29F04D
:100950000E94000081110C9400000895FC01019098
:100960000020E9F73197AF01481B590BBC018CE11E
:1009700095E00C944803CF93DF93FC0144815581AB
:10098000608171818CE195E00E944803EC0189E46B
:1009900092E00E94AE048C0F9D1FDF91CF910895CD
:1009A000CF93DF930E94AE04EC0189E492E00E94B1
:1009B000AE048C0F9D1FDF91CF910895CF93DF93ED
:1009C000EC0188819981009711F00E94C912198267
:1009D00018821D821C821B821A82DF91CF9108959A
:1009E000FC0180819181009711F00C94C912089547
:1009F0000F931F93CF93DF93EC0188819981009728
:100A000059F02A813B812617370730F081E0DF91CA
:100A1000CF911F910F9108958B016F5F7F4F0E94BF
:100A20005213009759F0998388831B830A832C8182
:100A30003D81232B59F7FC011082E8CF80E0E7CFFE
:100A4000EF92FF920F931F93CF93DF936115710580
:100A500041F480E0DF91CF911F910F91FF90EF90D3
:100A6000089541155105B1F07B01EC010C811D8108
:100A7000040F151FB8010E94F804882351F3288140
:100A800039818C819D81B701820F931F0E94471489
:100A90001D830C8381E0DECFEF92FF920F931F93B3
:100AA000CF93DF93EC017B018A01BA010E94F80425
:100AB00081110BC0CE010E94DE04CE01DF91CF91E7
:100AC0001F910F91FF90EF9008951D830C83B70144
:100AD000888199810E944714F0CFEF92FF920F9383
:100AE0001F93CF93DF93CDB7DEB762970FB6F8941D
:100AF000DEBF0FBECDBF8C01CB01F8011182108289
:100B000013821282158214824AE09E012F5F3F4FAA
:100B10007901B9010E94F10DF70101900020E9F778
:100B20003197AF014E195F09B701C8010E944C050A
:100B300062960FB6F894DEBF0FBECDBFDF91CF91A6
:100B40001F910F91FF90EF900895FB0101900020FD
:100B5000E9F73197AF01461B570B0C944C05CF9228
:100B6000DF92EF92FF920F931F93CF93DF93CDB756
:100B7000DEB762970FB6F894DEBF0FBECDBF8C0113
:100B8000D62EC72E7C01EE0CFF1CF701E95DFD4F50
:100B900080810E94A002F701E95FFD4F6D2D8081E9
:100BA0000E94A0026D2D7C2DCE010D960E946D0538
:100BB000B8016F5F7F4FCE0107960E946D051A82C4
:100BC00019821C821B821E821D826CE472E0CE019F
:100BD00001960E94A5054B855C856F817885CE01C5
:100BE00001960E942005811104C0CE0101960E9449
:100BF000DE0448E050E068E572E0CE0101960E9414
:100C00002005811104C0CE0101960E94DE044989AD
:100C10005A896D857E85CE0101960E94200581113D
:100C200004C0CE0101960E94DE04CE0101960E940E
:100C3000BB04CE0101960E94F004CE0107960E94EB
:100C4000F004CE010D960E94F00462960FB6F8945F
:100C5000DEBF0FBECDBFDF91CF911F910F91FF90EF
:100C6000EF90DF90CF9008958F929F92AF92BF92B6
:100C7000CF92DF92EF92FF9281E692E00E94D00441
:100C800089E30E94FF02BC01990F880B990B0E9417
:100C90008E102EEA37E84BE453E40E94491128E114
:100CA00036E243E55FE30E94B61120E030E048EC15
:100CB00052E40E94B6112DEC3CEC4CEC5DE30E943A
:100CC000281218160CF07AC070E060E090E080E026
:100CD0000E94AF0570E060E081E090E00E94AF0507
:100CE00061E070E082E090E00E94AF0570E060E0BB
:100CF00083E090E00E94AF0561E070E084E090E066
:100D00000E94AF0589E30E94FF02BC01990F880B86
:100D1000990B0E948E102EEA37E84BE453E40E94B0
:100D2000491128E136E243E55FE30E94B61120E075
:100D300030E048EC52E40E94B6112DEC3CEC4CEC57
:100D40005DE30E94281218162CF50E9416034B0131
:100D50005C0182E3C82ED12CE12CF12C0E941603F9
:100D6000681979098A099B09683E734081059105D4
:100D7000A8F321E0C21AD108E108F10888EE880E34
:100D800083E0981EA11CB11CC114D104E104F1043C
:100D900029F7B8CF70E060E084E090E00E94AF05F2
:100DA00070E060E082E090E0FF90EF90DF90CF9005
:100DB000BF90AF909F908F900C94AF05FF90EF90F5
:100DC000DF90CF90BF90AF909F908F900895CF937A
:100DD000DF93D0E0C0E070E060E0CE010E94AF059C
:100DE0002196C830D105B9F7DF91CF9108958CE7EE
:100DF00092E00E94D004E6ECF4E08DE2DF011D9267
:100E00008A95E9F71092C5041092C404109208055F
:100E1000109209051092F3041092BE041092000281
:100E20000E94E7060E943B0360930405709305054A
:100E300080930605909307051092120508951F925E
:100E40000F920FB60F9211242F933F938F939F937E
:100E5000AF93BF938091140590911505A09116054D
:100E6000B09117053091130523E0230F2D3758F566
:100E70000196A11DB11D2093130580931405909335
:100E80001505A0931605B09317058091180590914C
:100E90001905A0911A05B0911B050196A11DB11D60
:100EA0008093180590931905A0931A05B0931B051C
:100EB000BF91AF919F918F913F912F910F900FBE56
:100EC0000F901F90189526E8230F0296A11DB11DC3
:100ED000D2CF1F920F920FB60F9211240BB60F9222
:100EE0002F933F934F935F936F937F938F939F9332
:100EF000AF93BF93EF93FF938CE195E00E94EE03D5
:100F0000FF91EF91BF91AF919F918F917F916F91E1
:100F10005F914F913F912F910F900BBE0F900FBE9D
:100F20000F901F9018951F920F920FB60F921124D9
:100F30000BB60F922F938F939F93EF93FF93E091B4
:100F40002C05F0912D058081E0913205F09133055B
:100F500082FD1DC09081809135058F5F8F73209138
:100F60003605821741F0E0913505F0E0E45EFA4F76
:100F7000958F80933505FF91EF919F918F912F91E0
:100F80000F900BBE0F900FBE0F901F901895808191
:100F9000F2CFECE1F5E01382128288EE93E0A0E05C
:100FA000B0E084839583A683B7838BE392E091833B
:100FB000808385EC90E09587848784EC90E0978728
:100FC000868780EC90E0918B808B81EC90E0938B16
:100FD000828B82EC90E0958B848B86EC90E0978BF3
:100FE000868B118E128E138E148EE9EBF5E0118232
:100FF000108213821282158214826BE472E0CF0198
:101000000C94A505CF93DF93CDB7DEB7AD970FB6A0
:10101000F894DEBF0FBECDBF789484B5826084BDE6
:1010200084B5816084BD85B5826085BD85B58160EC
:1010300085BD80916E00816080936E00109281006A
:101040008091810082608093810080918100816025
:1010500080938100809180008160809380008091E6
:10106000B10084608093B1008091B0008160809372
:10107000B0008091910082608093910080919100F6
:1010800081608093910080919000816080939000B6
:101090008091A10082608093A1008091A100816075
:1010A0008093A1008091A00081608093A000809136
:1010B00021018260809321018091210181608093D0
:1010C00021018091200181608093200180917A002C
:1010D000846080937A0080917A00826080937A00A5
:1010E00080917A00816080937A0080917A00806894
:1010F00080937A001092C10007E312E077E2C72ED6
:1011000072E0D72ED6018C91B2E0CB0ED11C61E0FB
:101110000E94CE020C151D05A9F707E012E067E159
:10112000A62E62E0B62EF80180810E5F1F4F61E0AF
:101130000E94CE02A016B106B1F747E1A42E42E00C
:10114000B42E57E2852E52E0952E8501D8018C9160
:101150000E5F1F4F61E00E94CE0280169106B1F72C
:1011600060E089E10E94CE0260E083E00E94CE024E
:1011700060E084E00E94CE0260E082E00E94CE0245
:1011800060E088E10E94CE0260E087E30E94CE0228
:1011900060E088E30E94CE0260E089E30E94CE0214
:1011A00060E08AE30E94CE02912C812C70E060E026
:1011B000C4010E94AF05BFEF8B1A9B0AE8E08E16B0
:1011C0009104A1F7D5018C91B2E0AB0EB11C60E0A7
:1011D0000E94A0020A151B05A9F78BE992E00E9464
:1011E000D0040E943B03609304057093050580932F
:1011F0000605909307050E943B0360930E057093CC
:101200000F058093100590931105E0912C05F09146
:101210002D0582E08083E0912805F0912905108258
:10122000E0912A05F0912B058FEC80831092340514
:10123000E0913005F091310586E08083E0912E0544
:10124000F0912F05808180618083E0912E05F091DF
:101250002F05808188608083E0912E05F0912F0515
:10126000808180688083E0912E05F0912F05808138
:101270008F7D808310921205FF24F39433EFA32E09
:1012800034E0B32E8091120581112CC08CE195E0E1
:101290000E94D80318161906ACF78CE195E00E945D
:1012A0008403182F89EA92E00E94AE04612F8CE13A
:1012B00095E00E94100489E492E00E94AE04133588
:1012C00009F7F09212058FEB92E00E94D0040E9481
:1012D0003B0360930E0570930F0580931005909368
:1012E0001105D0CF0E943B0360930A0570930B0554
:1012F00080930C0590930D0561E085E00E94A002AB
:101300000091BE04602F86E00E94A002609100025E
:1013100087E00E94A00284E30E947702682F8BE09E
:101320000E94A0028CE195E00E94D803892B09F469
:1013300049C08CE195E00E948403182F082E000C10
:10134000990B0E943614892B09F4DBC0002309F4A1
:1013500062C0193609F44BC0C4F4123509F44AC00E
:1013600064F41B3409F448C083ED92E01D3411F09D
:1013700085EF92E00E94D00425C0143509F442C0E4
:101380001436B1F70E9434061DC0133709F440C06B
:101390003CF41B36A1F11D3659F71092BE0412C061
:1013A000143799F1193721F78BE992E00E94D004A4
:1013B0000E943B0360930E0570930F058093100508
:1013C0009093110580910905882309F420C180912B
:1013D0000805882309F498C08DE493E00E94D004A6
:1013E00088E593E00E94D0041092090510C1F092A4
:1013F0000905E8CFF0920805F0920002E3CF1092C1
:101400000002E0CFF092F304F7CF1092F304DACFAA
:101410000E94F706D7CFEDEBE10FE83308F0A8CF35
:101420000E2E000CFF0B8827E75EF54F8F4F0C94B4
:101430004111610AB809B809B809B809790AB809A7
:10144000B809FC09B809510AB809B809B809B809B6
:10145000FA09B809B809B809690AB809710AB809D6
:10146000570AB809B809B809B809B809B809B809D4
:10147000B809660AC209B809B809B8097E0AF709A5
:10148000B809FF09B809540AB809B809B809B80970
:10149000B809080AB809B8096E0AB809760AD40961
:1014A0005E0AF092BE048ECF88E093E063CF61E0E5
:1014B00070E084E090E00E94AF0584CF70E060E0CF
:1014C000F8CF61E070E081E090E0F5CF70E060E09F
:1014D000FACF61E070E082E090E0EDCF70E060E094
:1014E000FACF61E070E083E090E0E5CF70E060E08B
:1014F000FACF61E070E090E080E0DDCF70E060E086
:10150000FACF8CE293E036CF8CE195E00E94D803CD
:10151000181619060CF016C11A8219821C821B8239
:101520001E821D826BE472E0CE0101960E94A50529
:101530000E94980397FD0FC08A30910561F08AA33D
:101540001BA241E050E0BE016E5D7F4FCE010196CF
:101550000E942005EDCF8091B9059091BA050097C2
:1015600009F470C069817A816115710509F468C058
:101570004091BB055091BC052D813E814217530718
:1015800008F45EC00E9447148D819E819093BE0531
:101590008093BD051E821D82CE0101960E94F0043B
:1015A0001092090526EC822E24E0922E10E000E035
:1015B0008091BD059091BE050817190710F5E091BF
:1015C000B905F091BA05309709F053C01092BF04E5
:1015D000EFEBF4E07080E2E67E1609F44DC0F4E62D
:1015E0007F1609F449C02EE6721609F445C088EB4F
:1015F00093E00E94D0048DE493E00E94D004109206
:10160000090587E194E00E94D004F09209058091D9
:101610000805882309F414C18091C7049091C80477
:10162000A091C904B091CA04892B8A2B8B2B09F095
:1016300090C081E594E00E94D0041092080500C19A
:101640000E94C91289819A819093BA058093B90545
:101650008B819C819093BC058093BB058D819E817D
:101660009093BE058093BD051A8219821C821B824D
:1016700091CFE00FF11FAECF0F5F1F4F1A8219827B
:101680001C821B821E821D826BE472E0CE010196D9
:101690000E94A5058091BD059091BE050817190708
:1016A00040F52091B9053091BA05F901E00FF11F1D
:1016B0002115310521F41092BF04EFEBF4E0808195
:1016C000082E000C990BC0970A9798F4232B11F45D
:1016D0001092BF0480818AA31BA241E050E0BE01AA
:1016E0006E5D7F4FCE0101960E9420050F5F1F4F58
:1016F000D1CFA814B90449F48BED93E00E94D00433
:10170000CE0101960E94F0047CCF89819A810097D6
:10171000A9F00E94CA0DD4017C92072E000C880B00
:10172000990BF4016183728383839483CE010196C4
:101730000E94F004F5E08F0E911C3ACF60E070E05B
:10174000CB01E9CF8DE493E00E94D00481E294E0E4
:1017500049CEF09200028091C4049091C504893072
:10176000910508F07FC125E0289FF001299FF00D29
:101770001124EA53FB4F41815281638174814115E9
:1017800051056105710509F46DC180910A059091BB
:101790000B05A0910C05B0910D050091C0041091AE
:1017A000C1042091C2043091C304801B910BA20B91
:1017B000B30B84179507A607B70708F441C08081CB
:1017C000843609F438C18E3609F444C1823609F0F2
:1017D00046C170E060E090E080E00E94AF0561E00B
:1017E00070E081E090E00E94AF0561E070E082E08F
:1017F00090E00E94AF0561E070E083E090E00E941D
:10180000AF0570E060E084E090E00E94AF05809159
:101810000A0590910B05A0910C05B0910D058093E0
:10182000C0049093C104A093C204B093C3048091F8
:10183000C4049091C50401969093C5048093C40498
:1018400080910A0590910B05A0910C05B0910D05B2
:1018500040910405509105056091060570910705BA
:10186000841B950BA60BB70B843F9140A105B105D6
:101870000CF450C187E30E94FF02BC01990F880B52
:10188000990B0E948E102EEA37E84BE453E40E9435
:10189000491128E136E243E55FE30E94B61120E0FA
:1018A00030E048EC52E40E94B6116093F404709367
:1018B000F5048093F6049093F70488E30E94FF02F6
:1018C000BC01990F880B990B0E948E102EEA37E805
:1018D0004BE453E40E94491128E136E243E55FE31B
:1018E0000E94B61120E030E048EC52E40E94B611AC
:1018F0006093F8047093F9048093FA049093FB04C6
:1019000089E30E94FF02BC01990F880B990B0E948A
:101910008E102EEA37E84BE453E40E94491128E187
:1019200036E243E55FE30E94B61120E030E048EC88
:1019300052E40E94B6116093FC047093FD048093FE
:10194000FE049093FF048AE30E94FF02BC01990FFA
:10195000880B990B0E948E102EEA37E84BE453E473
:101960000E94491128E136E243E55FE30E94B61187
:1019700020E030E048EC52E40E94B611609300058C
:1019800070930105809302059093030580910002F6
:10199000882309F4AFC019A618A61BA61AA61DA66F
:1019A0001CA669EB74E0CE0188960E94A50584EF21
:1019B000882E84E0982E94E0692E95E0792E6814A4
:1019C000790409F462C0D4016D917D918D919D914E
:1019D0004D011BA21AA21DA21CA21FA21EA28E01B3
:1019E0000F5F1F4F22E044E00E94AC0D009709F406
:1019F00047C0FC0101900020E9F73197AF01481B77
:101A0000590BBC01CE0182960E944C054EA15FA1EC
:101A10006AA17BA1CE0188960E942005CE01829604
:101A20000E94F00441E050E06DEB72E0CE01889638
:101A30000E942005C4CF70E060E081E090E00E9449
:101A4000AF0570E060E082E090E00E94AF0570E0DA
:101A500060E0D3CE8DE794E00E94D004D8CE82EA35
:101A600094E0FACF0E94E706E6ECF4E08DE2DF01B5
:101A70001D928A95E9F71092C5041092C404DDCD39
:101A8000CE0182960E94DE04C1CF07E212E0C016AA
:101A9000D10601F1F80180810E5F1F4F0E9477028D
:101AA000BC01CE0101960E946D054D815E81698168
:101AB0007A81CE0188960E942005CE0101960E946F
:101AC000F00441E050E06DEB72E0CE0188960E9498
:101AD0002005DDCF41E050E06CEB74E0CE0188964C
:101AE0000E942005CE0188960E94BB04CE018896F4
:101AF0000E94F00480910A0590910B05A0910C05BD
:101B0000B0910D058093040590930505A0930605FB
:101B1000B093070580910A0590910B05A0910C05E3
:101B2000B0910D0540910E0550910F056091100583
:101B300070911105841B950BA60BB70B8838934148
:101B4000A105B10514F00E94F7060E947D049ACB0E
:101B500089EB95E00C94F004EF920F931F93CF93D1
:101B6000DF93E80134E047FD34E1042E000C550B0F
:101B700057FF03C0519541955109E32E022F242FA1
:101B8000AE010E942B0ECE01DF91CF911F910F91DC
:101B9000EF9008951F93FC0199278827BC01E894D2
:101BA00011911032E9F3193010F01E30C8F31B32D6
:101BB00051F01D3249F4689406C00E94FC0D610F7B
:101BC000711D811D911D119110531A30B0F33EF417
:101BD00090958095709561957F4F8F4F9F4F1F9186
:101BE0000895BB274A3031F4992322F4BDE2909541
:101BF00081959F4F0C94120E592F482F372F262F67
:101C0000660F771F881F991F660F771F881F991F00
:101C1000620F731F841F951F660F771F881F991F00
:101C20000895BB27FB015527AA27880F991FAA1FD4
:101C3000A41710F0A41B83955051B9F7A05DAA33E7
:101C400008F0A95DA193009779F7B111B1931192B2
:101C5000CB010C947C108F929F92AF92BF92CF9247
:101C6000DF92EF92FF920F931F93CF93DF9300D0F9
:101C700000D000D0CDB7DEB76A01F22EB02E102F03
:101C8000FBE3AF2EA01608F41BE31F5F012F27E034
:101C9000AE014F5F5F4F0E94A40FBC018981982F56
:101CA0009970913009F44EC09BE2E1FC04C09E2D76
:101CB0009170E0FC49C05E2D5071E82FE87083FF01
:101CC00055C084E0911101C083E0EF2DE81B8F1512
:101CD00008F0E0E0D6018E2F20E25523C9F19923C8
:101CE00029F0D6019C93C60101966C0196012D5FE7
:101CF0003F4FE2FE33C08EE4D6018C9391E41196FF
:101D00009C93119712968C93D9018E2F90E281119A
:101D10002AC0E20FF32FF11D10828EEF9FEF29965C
:101D20000FB6F894DEBF0FBECDBFDF91CF911F91EC
:101D30000F91FF90EF90DF90CF90BF90AF909F906A
:101D40008F9008959DE2B7CF90E2B5CF2D9381504B
:101D50008111FCCFCE0ED11CE0E0C1CF8EE6D601C2
:101D60008C9391E6CCCF9D938150D1CF482F447076
:101D700082FF3DC084E0911101C083E08F1510F413
:101D8000EF2DE81BD6018E2F20E2552309F1992370
:101D900029F0D6019C93C60101966C0196012D5F36
:101DA0003F4FE2FE1BC089E4D6018C938EE411966E
:101DB0008C93119786E412968C93D9018E2F90E222
:101DC000882309F4A6CF9D938150FACF2D9381509B
:101DD0008111FCCFCE0ED11CE0E0D9CF89E6D6012F
:101DE0008C938EE611968C93119786E6E4CF9B0137
:101DF00077FF02C030E020E0A1E0B0E0911102C026
:101E0000B0E0A0E0F9013196AE0FBF1F8B2C912CF2
:101E1000BB2009F461C05401EFEFAE1ABE0AAA0D4F
:101E2000BB1DFA161B0619F014F04F2D4A1B511159
:101E300088C0E3FC59C07601A42FB0E2A1114FC0C5
:101E4000C40ED11C992309F45BC040E0D601119661
:101E5000F60190836D01552309F448C0012F060F48
:101E60009A81582F507184FF03C0913309F40150B7
:101E700010160CF047C0093008F008E0EEE2FE2E24
:101E80005B01A01AB10885019194819491082F3FBC
:101E9000320729F4D601FC92F60131966F016217E0
:101EA000730794F1021713077CF5DB01A21BB30B38
:101EB000AA24A394B12CAC0EBD1EAA0DBB1D119675
:101EC0008C9121503109D601119628153905F4F06D
:101ED000F60180836D01DBCFB12CA12CA0CFF701DF
:101EE000B1937F01A150AACF9111B0CFD601942F09
:101EF00050E302C05D9391509111FCCFC40ED11CF0
:101F000040E0ACCF01E0BACF80E3DBCF62177307CC
:101F100031F4963388F4953311F4552369F0F601C2
:101F20008083FD01842F90E2811108C0A40FB11DB0
:101F30001C9290E080E0F3CE81E3F1CF9193815049
:101F4000F3CF911183CF8ACF283008F027E03327D1
:101F5000DA01990F311D87FD9160009661057105C9
:101F600039F432602E5F3D9330E32A95E1F708950E
:101F70009F3F30F080387105610509F03C5F3C5FA0
:101F80003D93913008F08068911DDF93CF931F93AC
:101F90000F93FF92EF92192F987F9695E92F9695C0
:101FA0009695E90FFF27EA50FE4F99273327EE2435
:101FB000FF24A701E70105900894079428F4360F41
:101FC000E71EF81E491F511D660F771F881F991FB6
:101FD0000694A1F70590079428F4E70EF81E491F10
:101FE000561FC11D770F881F991F661F0694A1F702
:101FF0000590079428F4F80E491F561FC71FD11DDE
:10200000880F991F661F771F0694A1F70590079404
:1020100020F4490F561FC71FD81F990F661F771F3F
:10202000881F0694A9F784911095177041F0D695F2
:10203000C79557954795F794E7941A95C1F7ECE93A
:10204000F1E0689415901591359165919591059001
:102050007FE27395E118F10A430B560BC90BD009C7
:10206000C0F7E10CF11E431F561FC91FD01D7EF49F
:10207000703311F48A95E6CFE894015030F0080FE0
:102080000AF40027021708F4202F2395022F7A3331
:1020900028F079E37D932A95E9F710C07D932A957E
:1020A00089F6069497956795379517951794E118D3
:1020B000F10A430B560BC90BD00998F023957E917A
:1020C00073957A3308F070E37C932013B8F77E9110
:1020D00070617D9330F0839571E37D9370E32A9571
:1020E000E1F71124EF90FF900F911F91CF91DF91B5
:1020F000992787FD90950895DC01FC01672F719168
:102100007723E1F7329704C07C916D9370836291DD
:10211000AE17BF07C8F30895E89409C097FB3EF4D3
:1021200090958095709561957F4F8F4F9F4F992324
:10213000A9F0F92F96E9BB279395F69587957795A2
:102140006795B795F111F8CFFAF4BB0F11F460FF62
:102150001BC06F5F7F4F8F4F9F4F16C0882311F0BA
:1021600096E911C0772321F09EE8872F762F05C0CE
:10217000662371F096E8862F70E060E02AF09A9569
:10218000660F771F881FDAF7880F9695879597F95E
:102190000895990F0008550FAA0BE0E8FEEF1616F8
:1021A0001706E807F907C0F012161306E407F5074B
:1021B00098F0621B730B840B950B39F40A2661F0BF
:1021C000232B242B252B21F408950A2609F4A14062
:1021D000A6958FEF811D811D089599278827089561
:1021E00097F99F6780E870E060E008959FEF80ECCA
:1021F000089500240A94161617061806090608956D
:1022000000240A9412161306140605060895092ED2
:102210000394000C11F4882352F0BB0F40F4BF2B41
:1022200011F460FF04C06F5F7F4F8F4F9F4F089581
:1022300057FD9058440F551F59F05F3F71F0479577
:10224000880F97FB991F61F09F3F79F0879508955C
:10225000121613061406551FF2CF4695F1DF08C07B
:10226000161617061806991FF1CF86957105610598
:1022700008940895E894BB2766277727CB0197F940
:102280000895EE0FFF1F881F8BBF0790F691E02D7A
:1022900019945058BB27AA270E9461110C9407116A
:1022A0000E94F91038F00E94001120F039F49F3F8D
:1022B00019F426F40C94F6100EF4E095E7FB0C9458
:1022C000F010E92F0E94181158F3BA17620773072C
:1022D0008407950720F079F4A6F50C943A110EF4D2
:1022E000E0950B2EBA2FA02D0B01B90190010C0126
:1022F000CA01A0011124FF27591B99F0593F50F43E
:10230000503E68F11A16F040A22F232F342F442795
:10231000585FF3CF469537952795A795F04053958D
:10232000C9F77EF41F16BA0B620B730B840BBAF05D
:102330009150A1F0FF0FBB1F661F771F881FC2F7C8
:102340000EC0BA0F621F731F841F48F487957795DC
:102350006795B795F7959E3F08F0B0CF9395880F96
:1023600008F09927EE0F9795879508950E94CA1156
:102370000C9407110E94001158F00E94F91040F0CF
:1023800029F45F3F29F00C94F01051110C943B118B
:102390000C94F6100E94181168F39923B1F3552399
:1023A00091F3951B550BBB27AA2762177307840768
:1023B00038F09F5F5F4F220F331F441FAA1FA9F3FE
:1023C00035D00E2E3AF0E0E832D091505040E695EC
:1023D000001CCAF72BD0FE2F29D0660F771F881F4D
:1023E000BB1F261737074807AB07B0E809F0BB0B40
:1023F000802DBF01FF2793585F4F3AF09E3F510554
:1024000078F00C94F0100C943B115F3FE4F3983E8D
:10241000D4F3869577956795B795F7959F5FC9F73C
:10242000880F911D9695879597F90895E1E0660FBD
:10243000771F881FBB1F621773078407BA0720F036
:10244000621B730B840BBA0BEE1F88F7E09508959F
:102450000E94C91008F48FEF08950F931F93CF9334
:10246000DF938230910510F482E090E0E091C105A5
:10247000F091C20530E020E0B0E0A0E0309799F4A0
:102480002115310509F44AC0281B390B24303105C8
:10249000D8F58A819B816115710589F1FB019383D0
:1024A0008283FE0111C0408151810281138148174E
:1024B0005907E0F04817590799F4109761F0129600
:1024C0000C93129713961C933296CF01DF91CF9104
:1024D0001F910F9108950093C1051093C205F4CF89
:1024E0002115310551F04217530738F0A901DB01DE
:1024F0009A01BD01DF01F801C1CFEF01F9CF90933F
:10250000C2058093C105CDCFFE01E20FF31F819379
:1025100091932250310939832883D7CF2091BF0569
:102520003091C005232B41F4209103023091040225
:102530003093C0052093BF05209101023091020223
:102540002115310541F42DB73EB740910502509158
:102550000602241B350BE091BF05F091C005E21780
:10256000F307A0F42E1B3F0B2817390778F0AC01B6
:102570004E5F5F4F2417350748F04E0F5F1F509393
:10258000C0054093BF05819391939FCFF0E0E0E0B9
:102590009CCFCF93DF930097E9F0FC013297138231
:1025A0001282A091C105B091C205ED0130E020E09A
:1025B0001097A1F420813181820F931F2091BF05D4
:1025C0003091C0052817390709F061C0F093C005A4
:1025D000E093BF05DF91CF910895EA01CE17DF07A1
:1025E000E8F54A815B819E0141155105B1F7E9018A
:1025F000FB83EA8349915991C40FD51FEC17FD075E
:1026000061F4808191810296840F951FE90199837D
:102610008883828193819B838A83F0E0E0E0129635
:102620008D919C9113970097B9F52D913C9111973D
:10263000CD010296820F931F2091BF053091C005F6
:102640002817390739F6309751F51092C2051092C4
:10265000C105B093C005A093BF05BCCFD383C2838F
:1026600040815181840F951FC817D90761F44E5FCF
:102670005F4F88819981480F591F518340838A8118
:102680009B81938382832115310509F0B0CFF093AC
:10269000C205E093C1059ECFFD01DC01C0CF1382CE
:1026A0001282D7CF4F925F926F927F928F929F92BA
:1026B000AF92BF92CF92DF92EF92FF920F931F9350
:1026C000CF93DF938C01009799F4CB01DF91CF91E9
:1026D0001F910F91FF90EF90DF90CF90BF90AF9040
:1026E0009F908F907F906F905F904F900C942D12E1
:1026F000FC01E60FF71F9C0122503109E217F30796
:1027000008F4AEC0D901CD91DC911197C617D70757
:1027100020F1C530D10578F0CE01049786179707D0
:1027200050F0C61BD70B2297C193D1936D937C9326
:10273000CF010E94C912C801DF91CF911F910F9163
:10274000FF90EF90DF90CF90BF90AF909F908F90D1
:102750007F906F905F904F9008955B01AC1ABD0A17
:102760004C018C0E9D1EA091C105B091C205512C4B
:10277000412CF12CE12C109731F58091BF059091FF
:10278000C0058815990509F05CC04616570608F083
:1027900058C08091010290910202009741F48DB7D8
:1027A0009EB74091050250910602841B950BE817D5
:1027B000F90708F055C0F093C005E093BF05F90193
:1027C00071836083B8CF8D919C91119712966C9014
:1027D000129713967C901397A815B90559F56C01BB
:1027E00042E0C40ED11CCA14DB0420F1AC014A192A
:1027F0005B09DA011296159780F062827382518329
:102800004083D9016D937C93E114F10471F0D701F9
:102810001396FC93EE9312978ECF22968C0F9D1FEA
:10282000F90191838083F301EFCFF093C205E09328
:10283000C10581CF4816590608F42C017D01D3014A
:102840009ACFCB010E942D127C01009749F0AE0176
:10285000B8010E943E14C8010E94C91287016BCFC3
:1028600010E000E068CF85FD0C94ED1080629111BE
:102870000C94ED1081568A51D8F70895FB01DC01C4
:1028800002C001900D9241505040D8F70895FB01CD
:10289000DC0101900D920020E1F7089511E0CCEDEC
:1028A000D1E000E006C0802FFE010E944111219678
:1028B000011DCD3DD10780E00807A9F7F894FFCFAF
:1028C000010000C30580002000220024002600280B
:1028D000002A002C002E000500060007000B000C4B
:1028E000000D0017003200080009000A001600342D
:1028F000001A001C001E00000000001004480375B0
:10290000035D04D8038403CA030D0A004C4F473A01
:102910002056616C766520002073657420746F20EA
:10292000004C4F473A204465707265737375726945
:1029300073696E672073797374656D00537973746E
:10294000656D2052657365742C20706C65617365CC
:10295000207265636F6E6E65637400484541525422
:10296000424541545F41434B004C4F473A2052652A
:1029700063656976656420696E7075743A20004CF1
:102980004F473A2053797374656D20737461727484
:102990006564004C4F473A20416C72656164792050
:1029A000696E206175746F20636F6E74726F6C2036
:1029B0006D6F6465004C4F473A20496E76616C69D3
:1029C0006420696E707574004C4F473A20416C72F8
:1029D0006561647920696E206D616E75616C20633C
:1029E0006F6E74726F6C206D6F6465004C4F473A68
:1029F00020496E76616C696420696E7075742C2054
:102A00006E6F742061206C6574746572005345515B
:102A10003A2046616C7365004C4F473A205365710C
:102A200075656E636520616C72656164792072758D
:102A30006E6E696E672C20706C65617365207761BE
:102A4000697420666F722063757272656E7420738C
:102A5000657175656E636520746F20656E642062B4
:102A600065666F7265206C6F6164696E67206120B6
:102A70006E6577206F6E65004C4F473A20496E7641
:102A8000616C696420737465702074797065206965
:102A90006E2073657175656E6365004C4F473A2013
:102AA00053657175656E636520746F6F206C6F6E12
:102AB000672C206F6E6C79206669727374203920E0
:102AC00073746570732077696C6C2062652065781B
:102AD000656375746564005345513A205472756599
:102AE000004C4F473A2045787065637465642073E5
:102AF000657175656E636520696E7075742C2062F2
:102B00007574206E6F6E65207265636569766564A5
:102B1000004C4F473A2053657175656E63652069B7
:102B20007320656D7074792C206E6F7468696E67A0
:102B300020746F2070726F636573732E004C4F4763
:102B40003A20416C7420627562626C652073746512
:102B500070206E6F7420696D706C656D656E746544
:102B600064004C4F473A20556E6B6E6F776E207342
:0E2B7000746570207479706500502000430079
:00000001FF
