:100000000C94B5010C94E6010C94E6010C94E60105
:100010000C94E6010C94E6010C94E6010C94E601C4
:100020000C94E6010C94E6010C94E6010C94E601B4
:100030000C94E6010C94E6010C94E6010C94E601A4
:100040000C94E6010C94E6010C94E6010C94E60194
:100050000C94E6010C94E6010C94E6010C94440621
:100060000C94E6010C94B8060C948E060C94E601F0
:100070000C94E6010C94E6010C94E6010C94E60164
:100080000C94E6010C94E6010C94E6010C94E60154
:100090000C94E6010C94E6010C94E6010C94E60144
:1000A0000C94E6010C94E6010C94E6010C94E60134
:1000B0000C94E6010C94E6010C94E6010C94E60124
:1000C0000C94E6010C94E6010C94E6010C94E60114
:1000D0000C94E6010C94E6010C94E6010C94E60104
:1000E0000C94E6010C9425020C94E8030C944D0347
:1000F0000C9410020C9446020C942B020C943302C4
:100100000C945C030C9418020C943D020C94A20312
:100110000C94EE060C9439020C944B020C941402CD
:100120000C94B0030C9435040C9441020C940C0212
:100130000C9421020C942F020C9420030C940602C0
:100140000C941B020C9447020C94A40C00407A10EF
:10015000F35A00A0724E18090010A5D4E80000E878
:100160007648170000E40B54020000CA9A3B0000D6
:1001700000E1F505000080969800000040420F0065
:100180000000A08601000000102700000000E80326
:10019000000000006400000000000A0000000000F1
:1001A0000100000000002C76D888DC674F0823DFB0
:1001B000C1DFAE59E1B1B796E5E3E453C63AE65183
:1001C000997696E8E6C28426EB898C9B62ED407CAA
:1001D0006FFCEFBC9C9F40F2BAA56FA5F490055A46
:1001E0002AF75C936B6CF9676DC11BFCE0E40D476B
:1001F000FEF520E6B500D0ED902E0300943577058E
:100200000080841E080000204E0A000000C80C3345
:100210003333330F986E12831141EF8D2114893BD4
:10022000E65516CFFEE6DB18D1844B381BF77C1D54
:10023000901DA4BBE424203284725E228100C9F1A7
:1002400024ECA1E53D2700002100240027002A001E
:100250002D003000330001010000040107010A01F4
:1002600000002200250028002B002E003100340061
:1002700002010000050108010B010000200023001D
:10028000260029002C002F0032000001000003018D
:100290000601090105050505070508080808020209
:1002A00002020A0A08080404040401010101010110
:1002B00001010303030303030303040707070C0CF3
:1002C0000C0C0C0C0C0C02020202060606060606BA
:1002D00006060B0B0B0B0B0B0B0B0102102020085F
:1002E0000810204010204080020102010804020191
:1002F0000102040810204080804020100804020100
:100300008004020180402010080402010804020158
:1003100001020408102040800102040810204080DF
:1003200000000A0B02090C0D0E080703040100006F
:1003300000000000000000000000000000000000BD
:10034000000000000000000000000000121110007A
:10035000000000000000000000000000000000009D
:10036000000000000000EE06A40C11241FBECFEF19
:10037000D1E2DEBFCDBF00E00CBF25E0A0E6B4E0D7
:1003800001C01D92A536B207E1F714E0A0E0B2E08B
:10039000E6E6F6E200E00BBF02C007900D92A03641
:1003A000B107D9F711E0C4EBD1E000E006C0219716
:1003B0000109802FFE010E941910C33BD10780E084
:1003C0000807A9F70E9427070C9421130C9400003A
:1003D0008150823108F05AC0E82FF0E08827EC50B5
:1003E000FE4F8F4F0C9419101402180206020C02D3
:1003F000100246021B02210225022B022F023302A9
:1004000039023D024602410247024B0280918000C0
:100410008F77809380000895809180008F7DF9CF41
:1004200080918000877FF5CF84B58F7784BD089554
:1004300084B58F7DFBCF8091B0008F778093B00023
:1004400008958091B0008F7DF9CF809190008F77D3
:10045000809390000895809190008F7DF9CF8091D6
:100460009000877FF5CF8091A0008F778093A000C8
:1004700008958091A0008F7DF9CF8091A000877FA3
:10048000F5CF809120018F7780932001089580918E
:1004900020018F7DF9CF80912001877FF5CFCF9309
:1004A000DF93282F30E0F901E05EFC4F8491F901E1
:1004B000E652FD4FD491F901EC56FD4FC491CC2387
:1004C000A1F081110E94E801EC2FF0E0EE0FFF1F78
:1004D000E658FD4FA591B491EC91ED2381E090E0B9
:1004E00009F480E0DF91CF91089580E090E0FACFA9
:1004F0001F93CF93DF93282F30E0F901E05EFC4F8C
:100500008491F901E652FD4FD491F901EC56FD4F6B
:10051000C491CC23A9F0162F81110E94E801EC2F81
:10052000F0E0EE0FFF1FE05AFD4FA591B4918FB799
:10053000F894EC91111108C0D095DE23DC938FBFA5
:10054000DF91CF911F910895DE2BF8CFCF93DF93EA
:1005500090E0FC01E652FD4F24918C569D4FFC012A
:1005600084918823D1F090E0880F991FFC01EA5B09
:10057000FD4FA591B491FC01E05AFD4FC591D49176
:1005800061110EC09FB7F8948C91E22FE0958E23F5
:100590008C932881E223E8839FBFDF91CF91089558
:1005A0008FB7F894EC91E22BEC938FBFF6CF90913C
:1005B0007B00977F90937B008653806480937C00C0
:1005C00080917A00806480937A0080917A0086FD21
:1005D000FCCF809178009091790008953FB7F8940E
:1005E0008091BA049091BB04A091BC04B091BD0469
:1005F00026B5A89B05C02F3F19F00196A11DB11D7E
:100600003FBFBA2FA92F982F8827BC01CD01620FB9
:10061000711D811D911D42E0660F771F881F991F74
:100620004A95D1F708952FB7F8946091B604709168
:10063000B7048091B8049091B9042FBF089508952C
:10064000AF92BF92CF92DF92EF92FF920F931F93E0
:10065000CF93DF936C017B018B01040F151FEB011E
:100660005E01AE18BF08C017D10759F06991D601D5
:10067000ED91FC910190F081E02DC6011995892B37
:1006800079F7C501DF91CF911F910F91FF90EF9006
:10069000DF90CF90BF90AF900895FC01538D448DB3
:1006A000252F30E0842F90E0821B930B541710F01D
:1006B000CF96089501970895FC01918D828D98172A
:1006C00061F0A28DAE0FBF2FB11D5D968C91928D02
:1006D0009F5F9F73928F90E008958FEF9FEF089533
:1006E0000F931F930E9413036093C6047093C70473
:1006F0008093C8049093C9048EEB94E00E945C033D
:1007000097FF1DC00E9413030091C6041091C704F7
:100710002091C8043091C904601B710B820B930BAC
:100720000091C2041091C3042091C4043091C50407
:100730006017710782079307F8F28FEF9FEF1F9101
:100740000F910895FC01918D828D981731F0828D63
:10075000E80FF11D858D90E008958FEF9FEF0895CC
:10076000FC01918D228D892F90E0805C9F4F821B30
:1007700091098F73992708958EEB94E00E94B0033E
:1007800021E0892B09F420E0822F0895FC01A48D3B
:10079000A80FB92FB11DA35ABF4F2C91848D90E0A3
:1007A00001968F739927848FA689B7892C93A08986
:1007B000B1898C91837080648C93938D848D981310
:1007C00006C00288F389E02D80818F7D80830895A3
:1007D000EF92FF920F931F93CF93DF93EC0181E091
:1007E000888F9B8D8C8D98131AC0E889F989808138
:1007F00085FF15C09FB7F894EE89FF896083E8896B
:10080000F98980818370806480839FBF81E090E05C
:10081000DF91CF911F910F91FF90EF900895F62EE9
:100820000B8D10E00F5F1F4F0F731127E02E8C8D83
:100830008E110CC00FB607FCFACFE889F9898081C8
:1008400085FFF5CFCE010E94C603F1CFEB8DEC0FF3
:10085000FD2FF11DE35AFF4FF0829FB7F8940B8FE5
:10086000EA89FB8980818062CFCFCF93DF93EC014F
:10087000888D8823B9F0AA89BB89E889F9898C9188
:1008800085FD03C0808186FD0DC00FB607FCF7CF44
:100890008C9185FFF2CF808185FFEDCFCE010E9444
:1008A000C603E9CFDF91CF91089580E090E0892BD6
:1008B00029F00E94BC0381110E94000080E090E0BA
:1008C000892B49F080E090E0892B29F00E940000FC
:1008D00081110E94000080E090E0892B49F080E0C7
:1008E00090E0892B29F00E94000081110E940000F5
:1008F00080E090E0892B49F080E090E0892B29F09E
:100900000E94000081110C940000089542E050E024
:1009100068E472E08EEB94E00C942003CF93DF93B5
:10092000FC0101900020E9F73197AF01481B590BFA
:10093000BC018EEB94E00E942003EC010E9486042F
:100940008C0F9D1FDF91CF910895CF93DF93FC0112
:1009500044815581608171818EEB94E00E94200377
:10096000EC010E9486048C0F9D1FDF91CF910895AA
:10097000CF93DF93EC0188819981009711F00E9459
:100980009C11198218821D821C821B821A82DF919F
:10099000CF910895FC0180819181009711F00C9412
:1009A0009C1108950F931F93CF93DF93EC018881DF
:1009B0009981009759F02A813B812617370730F03B
:1009C00081E0DF91CF911F910F9108958B016F5FAF
:1009D0007F4F0E942512009759F0998388831B83CB
:1009E0000A832C813D81232B59F7FC011082E8CF2B
:1009F00080E0E7CFEF92FF920F931F93CF93DF93A7
:100A00006115710541F480E0DF91CF911F910F9145
:100A1000FF90EF90089541155105B1F07B01EC0175
:100A20000C811D81040F151FB8010E94D204882378
:100A300051F3288139818C819D81B701820F931FE9
:100A40000E941A131D830C8381E0DECFEF92FF9288
:100A50000F931F93CF93DF93EC017B018A01BA01BF
:100A60000E94D20481110BC0CE010E94B804CE01B5
:100A7000DF91CF911F910F91FF90EF9008951D830B
:100A80000C83B701888199810E941A13F0CFEF92ED
:100A9000FF920F931F93CF93DF93CDB7DEB762978B
:100AA0000FB6F894DEBF0FBECDBF8C01CB01F801AD
:100AB0001182108213821282158214824AE09E01F2
:100AC0002F5F3F4F7901B9010E94ED0CF7010190B2
:100AD0000020E9F73197AF014E195F09B701C8014E
:100AE0000E94260562960FB6F894DEBF0FBECDBFFA
:100AF000DF91CF911F910F91FF90EF900895FB012F
:100B000001900020E9F73197AF01461B570B0C9479
:100B10002605CF92DF92EF92FF920F931F93CF9310
:100B2000DF93CDB7DEB762970FB6F894DEBF0FBE86
:100B3000CDBF8C01D62EC72E7C01EE0CFF1CF70119
:100B4000EA5DFD4F80810E947802F701EA5FFD4F68
:100B50006D2D80810E9478026D2D7C2DCE010D9629
:100B60000E944705B8016F5F7F4FCE0107960E9434
:100B700047051A8219821C821B821E821D826BE429
:100B800072E0CE0101960E947F054B855C856F81E6
:100B90007885CE0101960E94FA04811104C0CE012D
:100BA00001960E94B80448E050E067E572E0CE018B
:100BB00001960E94FA04811104C0CE0101960E94A0
:100BC000B80449895A896D857E85CE0101960E94B7
:100BD000FA04811104C0CE0101960E94B804CE012E
:100BE00001960E94A504CE0101960E94CA04CE017E
:100BF00007960E94CA04CE010D960E94CA0462960E
:100C00000FB6F894DEBF0FBECDBFDF91CF911F911D
:100C10000F91FF90EF90DF90CF900895CF93DF93E7
:100C2000D0E0C0E070E060E0CE010E94890521962E
:100C3000C830D105B9F7DF91CF91089580E692E0F1
:100C40000E948E04E8E6F4E08DE2DF011D928A95B1
:100C5000E9F710926704109266041092AF041092A4
:100C6000B0041092950410926004109296040E94B1
:100C70000E060E9413036093AB047093AC04809340
:100C8000AD049093AE0408951F920F920FB60F9289
:100C900011242F933F938F939F93AF93BF93809192
:100CA000B6049091B704A091B804B091B904309102
:100CB000B50423E0230F2D3758F50196A11DB11D72
:100CC0002093B5048093B6049093B704A093B8041E
:100CD000B093B9048091BA049091BB04A091BC0474
:100CE000B091BD040196A11DB11D8093BA049093EB
:100CF000BB04A093BC04B093BD04BF91AF919F917E
:100D00008F913F912F910F900FBE0F901F901895CC
:100D100026E8230F0296A11DB11DD2CF1F920F927C
:100D20000FB60F9211240BB60F922F933F934F9350
:100D30005F936F937F938F939F93AF93BF93EF9343
:100D4000FF938EEB94E00E94C603FF91EF91BF9159
:100D5000AF919F918F917F916F915F914F913F9153
:100D60002F910F900BBE0F900FBE0F901F901895F4
:100D70001F920F920FB60F9211240BB60F922F9362
:100D80008F939F93EF93FF93E091CE04F091CF0464
:100D90008081E091D404F091D50482FD1DC0908142
:100DA0008091D7048F5F8F732091D804821741F010
:100DB000E091D704F0E0E254FB4F958F8093D70485
:100DC000FF91EF919F918F912F910F900BBE0F90FC
:100DD0000FBE0F901F9018958081F2CFEEEBF4E0DC
:100DE0001382128288EE93E0A0E0B0E084839583C2
:100DF000A683B7838AE392E09183808385EC90E0B9
:100E00009587848784EC90E09787868780EC90E0D4
:100E1000918B808B81EC90E0938B828B82EC90E0C5
:100E2000958B848B86EC90E0978B868B118E128E3F
:100E3000138E148EEBE5F5E011821082138212827C
:100E4000158214826AE472E0CF010C947F05CF937F
:100E5000DF93CDB7DEB7AD970FB6F894DEBF0FBE08
:100E6000CDBF789484B5826084BD84B5816084BD33
:100E700085B5826085BD85B5816085BD80916E0038
:100E8000816080936E001092810080918100826069
:100E900080938100809181008160809381008091A6
:100EA00080008160809380008091B1008460809395
:100EB000B1008091B00081608093B000809191007A
:100EC0008260809391008091910081608093910075
:100ED000809190008160809390008091A100826059
:100EE0008093A1008091A10081608093A1008091F6
:100EF000A00081608093A000809121018260809396
:100F00002101809121018160809321018091200144
:100F100081608093200180917A00846080937A00C0
:100F200080917A00826080937A0080917A0081605B
:100F300080937A0080917A00806880937A00109282
:100F4000C100E6E2EE2EE2E0FE2EF7018081F2E043
:100F5000EF0EF11C61E00E94A60226E3E21622E0F9
:100F6000F20699F706E012E076E1C72E72E0D72E7E
:100F7000F80180810E5F1F4F61E00E94A602C0163B
:100F8000D106B1F766E1262E62E0362E06E212E0C7
:100F90006101F6018081F2E0CF0ED11C61E00E9478
:100FA000A6020C151D05A9F760E089E10E94A602C2
:100FB00060E083E00E94A60260E084E00E94A60256
:100FC00060E082E00E94A60260E088E10E94A60242
:100FD00060E087E30E94A60260E088E30E94A60228
:100FE00060E089E30E94A60260E08AE30E94A60214
:100FF00010E000E070E060E0C8010E9489050F5F2A
:101000001F4F08301105B1F706E112E0F8018081A9
:101010000E5F1F4F61E00E947802C016D106B1F743
:101020000E94EE024B015C0158EC452E512C612CC4
:10103000712C0E94EE02681979098A099B09683EA1
:10104000734081059105A8F3F1E04F1A510861083A
:10105000710828EE820E23E0921EA11CB11C4114DF
:1010600051046104710429F7F1018081F2E02F0E2F
:10107000311C60E00E94780220163106A9F786E64E
:1010800092E00E948E040E9413036093AB0470935D
:10109000AC048093AD049093AE04E091CE04F09143
:1010A000CF0482E08083E091CA04F091CB041082E7
:1010B000E091CC04F091CD048FEC80831092D604A3
:1010C000E091D204F091D30486E08083E091D004D3
:1010D000F091D104808180618083E091D004F0910F
:1010E000D104808188608083E091D004F091D104A4
:1010F000808180688083E091D004F091D104808168
:101100008F7D808325E9A22E24E0B22E38E6632E5F
:1011100034E0732E47EA842E44E0942E0E94130399
:101120006093B1047093B2048093B3049093B404B9
:1011300061E085E00E94780200916004602F86E003
:101140000E9478026091960487E00E94780286E10E
:101150000E944F02682F8BE00E9478028EEB94E091
:101160000E94B003892B09F444C08EEB94E00E94E6
:101170005C03182F082E000C990B0E940913892B71
:1011800009F4CFC0002309F45DC0193609F446C044
:101190009CF41D3409F446C034F41B3409F447C0F0
:1011A00086E992E041C0123509F468C01435C1F7F0
:1011B00081E08093950465C0133709F440C03CF486
:1011C0001B36B9F11D3661F71092600412C0143756
:1011D00099F1193729F786E692E00E948E040E9461
:1011E00013036093A7047093A8048093A9049093B9
:1011F000AA048091B004882309F41AC18091AF0435
:10120000882309F491C08EEE92E00E948E0489EF4B
:1012100092E00E948E041092B0040AC181E0809393
:10122000B004E7CF84E792E00E948E04E2CF81E031
:1012300028C010929604DDCF10929504DACF0E9458
:101240001E06D7CF133609F45BC05CF51D3409F4D4
:1012500053C06CF4183409F461C01B3441F31334E7
:1012600009F09ECF61E070E081E090E017C0163594
:1012700009F449C04CF4123509F092CF81E0809313
:10128000AF0480939604B5CF183509F43FC061E0F0
:1012900070E01A3509F084CF84E090E00E9489055F
:1012A000A8CF133761F2ACF4193609F4B7CF44F480
:1012B00070E060E0183609F073CF90E080E0EECF88
:1012C0001B3609F4B6CF89EA92E01D3609F4ACCF9B
:1012D00067CF183701F144F470E060E0163709F089
:1012E0005FCF82E090E0DACF193709F474CF70E075
:1012F00060E01A3789F254CF81E08093600479CF9F
:1013000070E060E0B1CF61E070E0EBCF61E070E0F1
:1013100083E090E0C3CF70E060E0FACF61E070E07E
:10132000CCCF8DEC92E080CF8EEB94E00E94B003A6
:10133000181619060CF016C11A8219821C821B821B
:101340001E821D826AE472E0CE0101960E947F0532
:101350000E94700397FD0FC08A30910561F08AA347
:101360001BA241E050E0BE016E5D7F4FCE010196B1
:101370000E94FA04EDCF80915B0590915C05009787
:1013800009F471C069817A816115710509F469C038
:1013900040915D0550915E052D813E8142175307B6
:1013A00008F45FC00E941A138D819E81909360059E
:1013B00080935F051E821D82CE0101960E94CA04A1
:1013C0001092B00498E6C92E94E0D92E10E000E007
:1013D00080915F05909160050817190710F5E0915D
:1013E0005B05F0915C05309709F054C010926104E0
:1013F000E1E6F4E0508022E6521609F44EC084E69D
:10140000581609F44AC09EE6591609F446C089E503
:1014100093E00E948E048EEE92E00E948E04109261
:10142000B00488EB93E00E948E0481E08093B004C6
:101430008091AF04882309F407C1809169049091D9
:101440006A04A0916B04B0916C04892B8A2B8B2BBE
:1014500009F08FC082EF93E00E948E041092AF04D7
:10146000F3C00E949C1189819A8190935C058093BE
:101470005B058B819C8190935E0580935D058D81DA
:101480009E819093600580935F051A8219821C8269
:101490001B8290CFE00FF11FADCF0F5F1F4F1A825D
:1014A00019821C821B821E821D826AE472E0CE01B8
:1014B00001960E947F0580915F0590916005081755
:1014C000190740F520915B0530915C05F901E00FAB
:1014D000F11F2115310521F410926104E1E6F4E0D9
:1014E0008081082E000C990BC0970A9798F4232B43
:1014F00011F41092610480818AA31BA241E050E0A4
:10150000BE016E5D7F4FCE0101960E94FA040F5F0F
:101510001F4FD1CFAC14BD0449F48CE793E00E9477
:101520008E04CE0101960E94CA047BCF89819A81E4
:101530000097A1F00E94C60CF6015082072E000C05
:10154000880B990B6183728383839483CE01019608
:101550000E94CA04F5E0CF0ED11C3ACF60E070E0E3
:10156000CB01EACF8EEE92E00E948E0482EC93E0F3
:1015700050CE81E080939604809166049091670438
:101580008930910508F068C125E0289FF001299F66
:10159000F00D1124E859FB4F418152816381748120
:1015A000411551056105710509F456C18091B104D9
:1015B0009091B204A091B304B091B404009162047C
:1015C000109163042091640430916504801B910B99
:1015D000A20BB30B84179507A607B707A8F1808164
:1015E000843609F428C18E3609F42EC1823609F0FA
:1015F00030C161E070E081E090E00E94890561E027
:1016000070E082E090E00E94890570E060E090E088
:1016100080E00E9489058091B1049091B204A0916C
:10162000B304B091B4048093620490936304A093D4
:101630006404B093650480916604909167040196F8
:1016400090936704809366048091B1049091B204F2
:10165000A091B304B091B4044091AB045091AC0498
:101660006091AD047091AE04841B950BA60BB70B73
:10167000843F9140A105B10508F444C187E30E946D
:10168000D702BC01990F880B990B0E948A0F2EEA92
:1016900037E84BE453E40E94211028E136E243E5A9
:1016A0005FE30E948E1020E030E048EC52E40E949C
:1016B0008E1060939704709398048093990490938C
:1016C0009A0488E30E94D702BC01990F880B990BFA
:1016D0000E948A0F2EEA37E84BE453E40E9421105F
:1016E00028E136E243E55FE30E948E1020E030E01F
:1016F00048EC52E40E948E1060939B0470939C040B
:1017000080939D0490939E0489E30E94D702BC01BC
:10171000990F880B990B0E948A0F2EEA37E84BE449
:1017200053E40E94211028E136E243E55FE30E9482
:101730008E1020E030E048EC52E40E948E1060935E
:101740009F047093A0048093A1049093A2048AE361
:101750000E94D702BC01990F880B990B0E948A0F37
:101760002EEA37E84BE453E40E94211028E136E2E8
:1017700043E55FE30E948E1020E030E048EC52E445
:101780000E948E106093A3047093A4048093A50418
:101790009093A60480919604882309F4A3C019A607
:1017A00018A61BA61AA61DA61CA66AE574E0CE0103
:1017B00088960E947F0587E9C82E84E0D82E8C1475
:1017C0009D0409F45AC0F601619171918191919142
:1017D0006F011BA21AA21DA21CA21FA21EA28E0193
:1017E0000F5F1F4F22E044E00E94A80C009709F40D
:1017F0003FC0FC0101900020E9F73197AF01481B81
:10180000590BBC01CE0182960E9426054EA15FA114
:101810006AA17BA1CE0188960E94FA04CE0182962D
:101820000E94CA0441E050E06BE574E0CE01889666
:101830000E94FA04C4CF70E060E081E090E00E9472
:10184000890570E060E0DDCE8EE194E00E948E04B8
:10185000E2CE83E494E0FACF0E940E068DE2F3011B
:1018600011928A95E9F71092670410926604F6CDFA
:10187000CE0182960E94B804C9CF06E212E0E016BB
:10188000F10601F1F80180810E5F1F4F0E944F02A7
:10189000BC01CE0101960E9447054D815E816981A0
:1018A0007A81CE0188960E94FA04CE0101960E94A8
:1018B000CA0441E050E06BE574E0CE0188960E94D6
:1018C000FA04DDCF41E050E06DE574E0CE0188968A
:1018D0000E94FA04CE0188960E94A504CE01889643
:1018E0000E94CA048091B1049091B204A091B30403
:1018F000B091B4048093AB049093AC04A093AD0476
:10190000B093AE048091B1049091B204A091B3045D
:10191000B091B40489589341A109B1094091A70439
:101920005091A8046091A9047091AA04841B950B9E
:10193000A60BB70B87319C4EAF4FBF4F10F40E94E0
:101940001E060E945504EACB8BE595E00C94CA0470
:10195000EF920F931F93CF93DF93E80134E047FD9D
:1019600034E1042E000C550B57FF03C051954195EF
:101970005109E32E022F242FAE010E94270DCE0124
:10198000DF91CF911F910F91EF9008951F93FC016C
:1019900099278827BC01E89411911032E9F3193096
:1019A00010F01E30C8F31B3251F01D3249F4689418
:1019B00006C00E94F80C610F711D811D911D1191CF
:1019C00010531A30B0F33EF4909580957095619560
:1019D0007F4F8F4F9F4F1F910895BB274A3031F49F
:1019E000992322F4BDE2909581959F4F0C940E0DA2
:1019F000592F482F372F262F660F771F881F991FC3
:101A0000660F771F881F991F620F731F841F951F12
:101A1000660F771F881F991F0895BB27FB01552765
:101A2000AA27880F991FAA1FA41710F0A41B83953B
:101A30005051B9F7A05DAA3308F0A95DA1930097B2
:101A400079F7B111B1931192CB010C94780F8F9269
:101A50009F92AF92BF92CF92DF92EF92FF920F933D
:101A60001F93CF93DF9300D000D000D0CDB7DEB767
:101A70006A01F22EB02E102FFBE3AF2EA01608F451
:101A80001BE31F5F012F27E0AE014F5F5F4F0E94F6
:101A9000A00EBC018981982F9970913009F44EC035
:101AA0009BE2E1FC04C09E2D9170E0FC49C05E2DDC
:101AB0005071E82FE87083FF55C084E0911101C098
:101AC00083E0EF2DE81B8F1508F0E0E0D6018E2FA4
:101AD00020E25523C9F1992329F0D6019C93C60130
:101AE00001966C0196012D5F3F4FE2FE33C08EE4FC
:101AF000D6018C9391E411969C93119712968C9336
:101B0000D9018E2F90E281112AC0E20FF32FF11D2F
:101B100010828EEF9FEF29960FB6F894DEBF0FBEAE
:101B2000CDBFDF91CF911F910F91FF90EF90DF908C
:101B3000CF90BF90AF909F908F9008959DE2B7CFC8
:101B400090E2B5CF2D9381508111FCCFCE0ED11CE8
:101B5000E0E0C1CF8EE6D6018C9391E6CCCF9D9389
:101B60008150D1CF482F447082FF3DC084E0911155
:101B700001C083E08F1510F4EF2DE81BD6018E2FE6
:101B800020E2552309F1992329F0D6019C93C6013F
:101B900001966C0196012D5F3F4FE2FE1BC089E468
:101BA000D6018C938EE411968C93119786E412964D
:101BB0008C93D9018E2F90E2882309F4A6CF9D93B0
:101BC0008150FACF2D9381508111FCCFCE0ED11CC4
:101BD000E0E0D9CF89E6D6018C938EE611968C93FE
:101BE000119786E6E4CF9B0177FF02C030E020E04A
:101BF000A1E0B0E0911102C0B0E0A0E0F90131969F
:101C0000AE0FBF1F8B2C912CBB2009F461C0540177
:101C1000EFEFAE1ABE0AAA0DBB1DFA161B0619F08D
:101C200014F04F2D4A1B511188C0E3FC59C07601B6
:101C3000A42FB0E2A1114FC0C40ED11C992309F406
:101C40005BC040E0D6011196F60190836D015523EB
:101C500009F448C0012F060F9A81582F507184FF54
:101C600003C0913309F4015010160CF047C009303D
:101C700008F008E0EEE2FE2E5B01A01AB108850133
:101C80009194819491082F3F320729F4D601FC9258
:101C9000F60131966F016217730794F1021713076B
:101CA0007CF5DB01A21BB30BAA24A394B12CAC0ED0
:101CB000BD1EAA0DBB1D11968C9121503109D60174
:101CC000119628153905F4F0F60180836D01DBCFFC
:101CD000B12CA12CA0CFF701B1937F01A150AACFC5
:101CE0009111B0CFD601942F50E302C05D93915073
:101CF0009111FCCFC40ED11C40E0ACCF01E0BACFB3
:101D000080E3DBCF6217730731F4963388F49533A1
:101D100011F4552369F0F6018083FD01842F90E2D0
:101D2000811108C0A40FB11D1C9290E080E0F3CE99
:101D300081E3F1CF91938150F3CF911183CF8ACF7B
:101D4000283008F027E03327DA01990F311D87FD8D
:101D5000916000966105710539F432602E5F3D9304
:101D600030E32A95E1F708959F3F30F08038710500
:101D7000610509F03C5F3C5F3D93913008F080685D
:101D8000911DDF93CF931F930F93FF92EF92192F23
:101D9000987F9695E92F96959695E90FFF27EA5536
:101DA000FE4F99273327EE24FF24A701E701059072
:101DB0000894079428F4360FE71EF81E491F511D9A
:101DC000660F771F881F991F0694A1F70590079447
:101DD00028F4E70EF81E491F561FC11D770F881FF4
:101DE000991F661F0694A1F70590079428F4F80E32
:101DF000491F561FC71FD11D880F991F661F771FC8
:101E00000694A1F70590079420F4490F561FC71FA9
:101E1000D81F990F661F771F881F0694A9F7849112
:101E20001095177041F0D695C79557954795F7943B
:101E3000E7941A95C1F7ECE4F1E0689415901591D8
:101E400035916591959105907FE27395E118F10ABE
:101E5000430B560BC90BD009C0F7E10CF11E431F11
:101E6000561FC91FD01D7EF4703311F48A95E6CF3A
:101E7000E894015030F0080F0AF40027021708F424
:101E8000202F2395022F7A3328F079E37D932A952A
:101E9000E9F710C07D932A9589F606949795679582
:101EA000379517951794E118F10A430B560BC90B98
:101EB000D00998F023957E9173957A3308F070E3FA
:101EC0007C932013B8F77E9170617D9330F08395F9
:101ED00071E37D9370E32A95E1F71124EF90FF9071
:101EE0000F911F91CF91DF91992787FD90950895CC
:101EF000DC01FC01672F71917723E1F7329704C071
:101F00007C916D9370836291AE17BF07C8F30895FB
:101F1000E89409C097FB3EF4909580957095619583
:101F20007F4F8F4F9F4F9923A9F0F92F96E9BB2739
:101F30009395F695879577956795B795F111F8CFB5
:101F4000FAF4BB0F11F460FF1BC06F5F7F4F8F4F20
:101F50009F4F16C0882311F096E911C0772321F016
:101F60009EE8872F762F05C0662371F096E8862FAE
:101F700070E060E02AF09A95660F771F881FDAF705
:101F8000880F9695879597F908959927882708953A
:101F900097F99F6780E870E060E008959FEF80EC1C
:101FA000089500240A9416161706180609060895BF
:101FB00000240A9412161306140605060895092E25
:101FC0000394000C11F4882352F0BB0F40F4BF2B94
:101FD00011F460FF04C06F5F7F4F8F4F9F4F0895D4
:101FE00057FD9058440F551F59F05F3F71F04795CA
:101FF000880F97FB991F61F09F3F79F087950895AF
:10200000121613061406551FF2CF4695F1DF08C0CD
:10201000161617061806991FF1CF869571056105EA
:1020200008940895E894BB2766277727CB0197F992
:102030000895EE0FFF1F881F8BBF0790F691E02DCC
:1020400019945058BB27AA270E9439100C94DF0F0F
:102050000E94D10F38F00E94D80F20F039F49F3F32
:1020600019F426F40C94CE0F0EF4E095E7FB0C94D3
:10207000C80FE92F0E94F00F58F3BA1762077307D1
:102080008407950720F079F4A6F50C9412100EF44D
:10209000E0950B2EBA2FA02D0B01B90190010C0178
:1020A000CA01A0011124FF27591B99F0593F50F490
:1020B000503E68F11A16F040A22F232F342F4427E8
:1020C000585FF3CF469537952795A795F0405395E0
:1020D000C9F77EF41F16BA0B620B730B840BBAF0B0
:1020E0009150A1F0FF0FBB1F661F771F881FC2F71B
:1020F0000EC0BA0F621F731F841F48F4879577952F
:102100006795B795F7959E3F08F0B0CF9395880FE8
:1021100008F09927EE0F9795879508950E94A210D1
:102120000C94DF0F0E94D80F58F00E94D10F40F09E
:1021300029F45F3F29F00C94C80F51110C9413102F
:102140000C94CE0F0E94F00F68F39923B1F355233E
:1021500091F3951B550BBB27AA27621773078407BA
:1021600038F09F5F5F4F220F331F441FAA1FA9F350
:1021700035D00E2E3AF0E0E832D091505040E6953E
:10218000001CCAF72BD0FE2F29D0660F771F881F9F
:10219000BB1F261737074807AB07B0E809F0BB0B92
:1021A000802DBF01FF2793585F4F3AF09E3F5105A6
:1021B00078F00C94C80F0C9413105F3FE4F3983E32
:1021C000D4F3869577956795B795F7959F5FC9F78F
:1021D000880F911D9695879597F90895E1E0660F10
:1021E000771F881FBB1F621773078407BA0720F089
:1021F000621B730B840BBA0BEE1F88F7E0950895F2
:102200000F931F93CF93DF938230910510F482E0F8
:1022100090E0E0916305F091640530E020E0B0E0EB
:10222000A0E0309799F42115310509F44AC0281B24
:10223000390B24303105D8F58A819B8161157105F0
:1022400089F1FB0193838283FE0111C0408151819A
:102250000281138148175907E0F04817590799F48C
:10226000109761F012960C93129713961C93329666
:10227000CF01DF91CF911F910F91089500936305D6
:1022800010936405F4CF2115310551F0421753071F
:1022900038F0A901DB019A01BD01DF01F801C1CFCE
:1022A000EF01F9CF9093640580936305CDCFFE01D4
:1022B000E20FF31F819391932250310939832883D0
:1022C000D7CF2091610530916205232B41F42091F5
:1022D0000202309103023093620520936105209140
:1022E0000002309101022115310541F42DB73EB7AE
:1022F0004091040250910502241B350BE0916105C9
:10230000F0916205E217F307A0F42E1B3F0B28178C
:10231000390778F0AC014E5F5F4F2417350748F05E
:102320004E0F5F1F50936205409361058193919317
:102330009FCFF0E0E0E09CCFCF93DF930097E9F0F0
:10234000FC01329713821282A0916305B09164055B
:10235000ED0130E020E01097A1F420813181820F5F
:10236000931F20916105309162052817390709F004
:1023700061C0F0936205E0936105DF91CF9108950C
:10238000EA01CE17DF07E8F54A815B819E0141151E
:102390005105B1F7E901FB83EA8349915991C40FD3
:1023A000D51FEC17FD0761F4808191810296840F9F
:1023B000951FE90199838883828193819B838A8316
:1023C000F0E0E0E012968D919C9113970097B9F59B
:1023D0002D913C911197CD010296820F931F209170
:1023E0006105309162052817390739F6309751F5A4
:1023F0001092640510926305B0936205A093610585
:10240000BCCFD383C28340815181840F951FC817ED
:10241000D90761F44E5F5F4F88819981480F591F3A
:10242000518340838A819B81938382832115310567
:1024300009F0B0CFF0936405E09363059ECFFD01F2
:10244000DC01C0CF13821282D7CF4F925F926F927E
:102450007F928F929F92AF92BF92CF92DF92EF9234
:10246000FF920F931F93CF93DF938C01009799F402
:10247000CB01DF91CF911F910F91FF90EF90DF90F3
:10248000CF90BF90AF909F908F907F906F905F9014
:102490004F900C940011FC01E60FF71F9C01225095
:1024A0003109E217F30708F4AEC0D901CD91DC91F0
:1024B0001197C617D70720F1C530D10578F0CE01A6
:1024C00004978617970750F0C61BD70B2297C19326
:1024D000D1936D937C93CF010E949C11C801DF9131
:1024E000CF911F910F91FF90EF90DF90CF90BF9011
:1024F000AF909F908F907F906F905F904F900895D6
:102500005B01AC1ABD0A4C018C0E9D1EA0916305A7
:10251000B0916405512C412CF12CE12C109731F530
:1025200080916105909162058815990509F05CC05C
:102530004616570608F058C080910002909101029B
:10254000009741F48DB79EB7409104025091050267
:10255000841B950BE817F90708F055C0F093620546
:10256000E0936105F90171836083B8CF8D919C91EF
:10257000119712966C90129713967C901397A8154A
:10258000B90559F56C0142E0C40ED11CCA14DB0434
:1025900020F1AC014A195B09DA011296159780F017
:1025A0006282738251834083D9016D937C93E114DD
:1025B000F10471F0D7011396FC93EE9312978ECF2E
:1025C00022968C0F9D1FF90191838083F301EFCF39
:1025D000F0936405E093630581CF4816590608F42B
:1025E0002C017D01D3019ACFCB010E9400117C0107
:1025F000009749F0AE01B8010E941113C8010E9472
:102600009C1187016BCF10E000E068CF85FD0C9432
:10261000C50F806291110C94C50F81568A51D8F76D
:102620000895FB01DC0102C001900D924150504021
:10263000D8F70895FB01DC0101900D920020E1F72D
:10264000089511E0C4EBD1E000E006C0802FFE0148
:102650000E9419102196011DC53BD10780E0080793
:06266000A9F7F894FFCF7A
:1026660000006505800020002200240026002800C6
:102676002A002C002E000500060007000B000C00A7
:102686000D0017003200080009000A001600340089
:102696001A001C001E0000000000E80320034D0382
:1026A6003504B0035C03A2030D0A004C4F473A20E1
:1026B60056616C766520002073657420746F200067
:1026C6005245534554004845415254424541545F92
:1026D60041434B004C4F473A20416C726561647927
:1026E60020696E206175746F20636F6E74726F6CF3
:1026F600206D6F6465004C4F473A20496E76616CD9
:10270600696420696E707574004C4F473A20416CBD
:10271600726561647920696E206D616E75616C20E9
:10272600636F6E74726F6C206D6F6465004C4F47FB
:102736003A20496E76616C696420696E7075742CF6
:10274600206E6F742061206C657474657200534549
:10275600513A2046616C7365004C4F473A205365E9
:102766007175656E636520616C726561647920724E
:10277600756E6E696E672C20706C65617365207767
:1027860061697420666F722063757272656E74205B
:1027960073657175656E636520746F20656E642060
:1027A6006265666F7265206C6F6164696E67206131
:1027B600206E6577206F6E65004C4F473A20496E54
:1027C60076616C6964207374657020747970652015
:1027D600696E2073657175656E6365004C4F473A87
:1027E6002053657175656E636520746F6F206C6F1D
:1027F6006E672C206F6E6C7920666972737420394F
:102806002073746570732077696C6C20626520652F
:1028160078656375746564005345513A2054727542
:1028260065004C4F473A20457870656374656420AF
:1028360073657175656E636520696E7075742C209D
:10284600627574206E6F6E65207265636569766564
:1028560064004C4F473A2053657175656E63652079
:10286600697320656D7074792C206E6F7468696E5B
:102876006720746F2070726F636573732E004C4F00
:10288600473A20416C7420627562626C65207374ED
:102896006570206E6F7420696D706C656D656E7401
:1028A6006564004C4F473A20556E6B6E6F776E200D
:1028B60073746570207479706500502000430000C1
:00000001FF
