:100000000C9438010C9469010C9469010C946901F9
:100010000C9469010C9469010C9469010C946901B8
:100020000C9469010C9469010C9469010C946901A8
:100030000C9469010C9469010C9469010C94690198
:100040000C9469010C9469010C9469010C94690188
:100050000C9469010C9469010C9469010C94DF05FE
:100060000C9469010C9453060C9429060C946901B4
:100070000C9469010C9469010C9469010C94690158
:100080000C9469010C9469010C9469010C94690148
:100090000C9469010C9469010C9469010C94690138
:1000A0000C9469010C9469010C9469010C94690128
:1000B0000C9469010C9469010C9469010C94690118
:1000C0000C9469010C9469010C9469010C94690108
:1000D0000C9469010C9469010C9469010C946901F8
:1000E0000C9469010C94A3020C94D0020C946B0341
:1000F0000C94A4010C94B2010C949B010C94CA01C1
:100100000C9493010C94A8010C94CE010C949E01C4
:100110000C94C4010C94B6010C94DF020C94C90138
:100120000C9425030C94B8030C9433030C94C00175
:100130000C948F010C9489060C9489010C94AE01E7
:100140000C947E0B0C9497010C94BC0100002100D0
:10015000240027002A002D00300033000101000098
:10016000040107010A0100002200250028002B00DD
:100170002E003100340002010000050108010B01CE
:10018000000020002300260029002C002F00320050
:100190000001000003010601090105050505070529
:1001A00008080808020202020A0A080804040404F3
:1001B000010101010101010103030303030303031F
:1001C000040707070C0C0C0C0C0C0C0C02020202AE
:1001D00006060606060606060B0B0B0B0B0B0B0B97
:1001E0000102102020080810204010204080020149
:1001F000020108040201010204081020408080402E
:10020000201008040201800402018040201008042C
:1002100002010804020101020408102040800102CA
:1002200004081020408000000A0B02090C0D0E0883
:1002300007030401000000000000000000000000AF
:1002400000000000000000000000000000000000AE
:10025000000012111000000000000000000000006B
:1002600000000000000000000000000089067E0B76
:1002700011241FBECFEFD1E2DEBFCDBF00E00CBF27
:1002800025E0A4E1B4E001C01D92A131B207E1F77D
:1002900014E0A0E0B2E0E2E6FCE100E00BBF02C047
:1002A00007900D92A431B107D9F711E0C7E3D1E06F
:1002B00000E006C021970109802FFE010E94F60B85
:1002C000C633D10780E00807A9F70E94C2060C9444
:1002D0001F0E0C9400008150823108F05AC0E82FA4
:1002E000F0E08827E958FE4F8F4F0C94F60B9701EA
:1002F0009B0189018F019301C9019E01A401A801FD
:10030000AE01B201B601BC01C001C901C401CA01FC
:10031000CE01809180008F77809380000895809136
:1003200080008F7DF9CF80918000877FF5CF84B5E5
:100330008F7784BD089584B58F7DFBCF8091B00009
:100340008F778093B00008958091B0008F7DF9CFB2
:10035000809190008F778093900008958091900015
:100360008F7DF9CF80919000877FF5CF8091A0009D
:100370008F778093A00008958091A0008F7DF9CFA2
:100380008091A000877FF5CF809120018F778093A7
:1003900020010895809120018F7DF9CF8091200167
:1003A000877FF5CFCF93DF93282F30E0F901EA5D07
:1003B000FD4F8491F901E052FE4FD491F901E656C8
:1003C000FE4FC491CC23A1F081110E946B01EC2F50
:1003D000F0E0EE0FFF1FE058FE4FA591B491EC91B5
:1003E000ED2381E090E009F480E0DF91CF91089562
:1003F00080E090E0FACF1F93CF93DF93282F30E077
:10040000F901EA5DFD4F8491F901E052FE4FD4916C
:10041000F901E656FE4FC491CC23A9F0162F8111A5
:100420000E946B01EC2FF0E0EE0FFF1FEA59FE4F28
:10043000A591B4918FB7F894EC91111108C0D095A3
:10044000DE23DC938FBFDF91CF911F910895DE2BC8
:10045000F8CFCF93DF9390E0FC01E052FE4F249160
:1004600086569E4FFC0184918823D1F090E0880F3E
:10047000991FFC01E45BFE4FA591B491FC01EA5980
:10048000FE4FC591D49161110EC09FB7F8948C9125
:10049000E22FE0958E238C932881E223E8839FBF8F
:1004A000DF91CF9108958FB7F894EC91E22BEC9304
:1004B0008FBFF6CF90917B00977F90937B00865300
:1004C000806480937C0080917A00806480937A00BD
:1004D00080917A0086FDFCCF809178009091790020
:1004E00008953FB7F8948091660490916704A091B5
:1004F0006804B091690426B5A89B05C02F3F19F088
:100500000196A11DB11D3FBFBA2FA92F982F882793
:10051000BC01CD01620F711D811D911D42E0660F6E
:10052000771F881F991F4A95D1F708952FB7F89420
:1005300060916204709163048091640490916504F9
:100540002FBF08950895AF92BF92CF92DF92EF929E
:10055000FF920F931F93CF93DF936C017B018B016D
:10056000040F151FEB015E01AE18BF08C017D107BD
:1005700059F06991D601ED91FC910190F081E02D47
:10058000C6011995892B79F7C501DF91CF911F918C
:100590000F91FF90EF90DF90CF90BF90AF900895B4
:1005A000FC01538D448D252F30E0842F90E0821B79
:1005B000930B541710F0CF96089501970895FC01FE
:1005C000918D828D981761F0A28DAE0FBF2FB11D56
:1005D0005D968C91928D9F5F9F73928F90E00895AE
:1005E0008FEF9FEF08950F931F930E9496026093E1
:1005F00072047093730480937404909375048AE674
:1006000094E00E94DF0297FF1DC00E9496020091B5
:100610007204109173042091740430917504601B6E
:10062000710B820B930B00916E0410916F0420915B
:100630007004309171046017710782079307F8F214
:100640008FEF9FEF1F910F910895FC01918D828D87
:10065000981731F0828DE80FF11D858D90E0089597
:100660008FEF9FEF0895FC01918D228D892F90E0EF
:10067000805C9F4F821B91098F73992708958AE6AA
:1006800094E00E94330321E0892B09F420E0822FBB
:100690000895FC01A48DA80FB92FB11DA35ABF4F17
:1006A0002C91848D90E001968F739927848FA68971
:1006B000B7892C93A089B1898C91837080648C93C5
:1006C000938D848D981306C00288F389E02D808174
:1006D0008F7D80830895EF92FF920F931F93CF93A6
:1006E000DF93EC0181E0888F9B8D8C8D98131AC06D
:1006F000E889F989808185FF15C09FB7F894EE8954
:10070000FF896083E889F9898081837080648083B0
:100710009FBF81E090E0DF91CF911F910F91FF90FB
:10072000EF900895F62E0B8D10E00F5F1F4F0F73A3
:100730001127E02E8C8D8E110CC00FB607FCFACF5E
:10074000E889F989808185FFF5CFCE010E944903B0
:10075000F1CFEB8DEC0FFD2FF11DE35AFF4FF0822F
:100760009FB7F8940B8FEA89FB8980818062CFCF95
:10077000CF93DF93EC01888D8823B9F0AA89BB89D8
:10078000E889F9898C9185FD03C0808186FD0DC0C3
:100790000FB607FCF7CF8C9185FFF2CF808185FFE4
:1007A000EDCFCE010E944903E9CFDF91CF910895AB
:1007B00080E090E0892B29F00E943F0381110E9484
:1007C000000080E090E0892B49F080E090E0892BE8
:1007D00029F00E94000081110E94000080E090E05A
:1007E000892B49F080E090E0892B29F00E940000DD
:1007F00081110E94000080E090E0892B49F080E0A8
:1008000090E0892B29F00E94000081110C940000D7
:10081000089542E050E068E472E08AE694E00C94C7
:10082000A302CF93DF93FC014481558160817181E4
:100830008AE694E00E94A302EC010E9409048C0F56
:100840009D1FDF91CF910895CF93DF93FC0101901D
:100850000020E9F73197AF01481B590BBC018AE62C
:1008600094E00E94A302EC010E9409048C0F9D1FDA
:10087000DF91CF910895CF93DF93EC018881998127
:10088000009711F00E949A0C198218821D821C8216
:100890001B821A82DF91CF910895FC0180819181A2
:1008A000009711F00C949A0C08950F931F93CF9317
:1008B000DF93EC0188819981009759F02A813B816F
:1008C0002617370730F081E0DF91CF911F910F910C
:1008D00008958B016F5F7F4F0E94230D009759F0A1
:1008E000998388831B830A832C813D81232B59F7AD
:1008F000FC011082E8CF80E0E7CFCF92DF92EF9249
:10090000FF920F931F93CF93DF93CDB7DEB762971C
:100910000FB6F894DEBF0FBECDBF8C01CB01F8013E
:100920001182108213821282158214824AE09E0183
:100930002F5F3F4F6901B9010E94A90BF601019099
:100940000020E9F731977F01EC18FD08B701C801D5
:100950000E945504811112C0C8010E943B04629696
:100960000FB6F894DEBF0FBECDBFDF91CF911F91C0
:100970000F91FF90EF90DF90CF900895F801F582EE
:10098000E482B601808191810E94180EE8CFEF9237
:10099000FF920F931F93CF93DF938C017B01EB01A9
:1009A00009900020E9F72197C61BD70BBE010E94D2
:1009B0005504811109C0C801DF91CF911F910F919A
:1009C000FF90EF900C943B04F801D583C483B701EA
:1009D00080819181DF91CF911F910F91FF90EF90D6
:1009E0000C94180EEF92FF920F931F93CF93DF9307
:1009F0006115710541F480E0DF91CF911F910F9156
:100A0000FF90EF90089541155105B1F07B01EC0185
:100A10000C811D81040F151FB8010E945504882305
:100A200051F3288139818C819D81B701820F931FF9
:100A30000E94180E1D830C8381E0DECFFB01019024
:100A40000020E9F73197AF01461B570B0C94F204D5
:100A5000CF92DF92EF92FF920F931F93CF93DF938A
:100A6000CDB7DEB762970FB6F894DEBF0FBECDBF2D
:100A70008C01D62EC72E7C01EE0CFF1CF701EA5D1F
:100A8000FD4F80810E94FB01F701EA5FFD4F6D2D54
:100A900080810E94FB016D2D7C2DCE010D960E9460
:100AA0007D04B8016F5F7F4FCE0107960E947D04E1
:100AB0001A8219821C821B821E821D826BE472E0E4
:100AC000CE0101960E94C7044B855C856F817885B5
:100AD000CE0101960E94F204811104C0CE0101965C
:100AE0000E943B0448E050E067E572E0CE010196C9
:100AF0000E94F204811104C0CE0101960E943B04C1
:100B000049895A896D857E85CE0101960E94F2043D
:100B1000811104C0CE0101960E943B04CE010196D2
:100B20000E941104CE0101960E944D04CE01079649
:100B30000E944D04CE010D960E944D0462960FB6A0
:100B4000F894DEBF0FBECDBFDF91CF911F910F9103
:100B5000FF90EF90DF90CF900895CF93DF93D0E098
:100B6000C0E070E060E0CE010E9428052196C83008
:100B7000D105B9F7DF91CF910895ECE1F4E08DE272
:100B8000DF011D928A95E9F710921B0410921A0456
:100B900010925B0410925C041092490410921404A9
:100BA00010924A040E94AD050E9496026093570479
:100BB000709358048093590490935A0408951F9297
:100BC0000F920FB60F9211242F933F938F939F9301
:100BD000AF93BF938091620490916304A0916404E9
:100BE000B09165043091610423E0230F2D3758F54F
:100BF0000196A11DB11D209361048093620490931E
:100C00006304A0936404B09365048091660490919A
:100C10006704A0916804B09169040196A11DB11DFB
:100C20008093660490936704A0936804B09369046A
:100C3000BF91AF919F918F913F912F910F900FBED8
:100C40000F901F90189526E8230F0296A11DB11D45
:100C5000D2CF1F920F920FB60F9211240BB60F92A4
:100C60002F933F934F935F936F937F938F939F93B4
:100C7000AF93BF93EF93FF938AE694E00E944903FA
:100C8000FF91EF91BF91AF919F918F917F916F9164
:100C90005F914F913F912F910F900BBE0F900FBE20
:100CA0000F901F9018951F920F920FB60F9211245C
:100CB0000BB60F922F938F939F93EF93FF93E09137
:100CC0007A04F0917B048081E0918004F0918104AA
:100CD00082FD1DC09081809183048F5F8F7320916E
:100CE0008404821741F0E0918304F0E0E659FB4F61
:100CF000958F80938304FF91EF919F918F912F9116
:100D00000F900BBE0F900FBE0F901F901895808113
:100D1000F2CFEAE6F4E01382128288EE93E0A0E0DC
:100D2000B0E084839583A683B7838AE392E09183BE
:100D3000808385EC90E09587848784EC90E09787AA
:100D4000868780EC90E0918B808B81EC90E0938B98
:100D5000828B82EC90E0958B848B86EC90E0978B75
:100D6000868B118E128E138E148EE7E0F5E01182C1
:100D7000108213821282158214826AE472E0CF011B
:100D80000C94C704CF93DF93CDB7DEB72C970FB683
:100D9000F894DEBF0FBECDBF789484B5826084BD69
:100DA00084B5816084BD85B5826085BD85B581606F
:100DB00085BD80916E00816080936E0010928100ED
:100DC00080918100826080938100809181008160A8
:100DD0008093810080918000816080938000809169
:100DE000B10084608093B1008091B00081608093F5
:100DF000B000809191008260809391008091910079
:100E00008160809391008091900081608093900038
:100E10008091A10082608093A1008091A1008160F7
:100E20008093A1008091A00081608093A0008091B8
:100E30002101826080932101809121018160809352
:100E400021018091200181608093200180917A00AE
:100E5000846080937A0080917A00826080937A0027
:100E600080917A00816080937A0080917A00806816
:100E700080937A001092C100E0E3EE2EE2E0FE2EB5
:100E800006E212E0F80180810E5F1F4F61E00E94D0
:100E90002902E016F106B1F706E012E076E1E72E4E
:100EA00072E0F72EF80180810E5F1F4F61E00E9413
:100EB0002902E016F106B1F766E1C62E62E0D62EF1
:100EC0007601F7018081F2E0EF0EF11C61E00E94F3
:100ED000290226E2E21622E0F20699F760E089E1B3
:100EE0000E94290260E083E00E94290260E084E021
:100EF0000E94290260E082E00E94290260E088E10D
:100F00000E94290260E086E30E94290260E088E3F3
:100F10000E94290260E08AE30E94290210E000E0BA
:100F200070E060E0C8010E9428050F5F1F4F053088
:100F30001105B1F706E112E0F80180810E5F1F4F45
:100F400061E00E94FB01E016F106B1F70E94710218
:100F50002B013C0158EC852E912CA12CB12C0E9428
:100F600071026419750986099709683E7340810505
:100F70009105A8F3F1E08F1A9108A108B10828EEB5
:100F8000420E23E0521E611C711C81149104A104C5
:100F9000B10429F7F6018081F2E0CF0ED11C60E0A8
:100FA0000E94FB01C016D106A9F70E949602609329
:100FB0005704709358048093590490935A04E09115
:100FC0007A04F0917B0482E08083E0917604F091D2
:100FD00077041082E0917804F09179048FEC80839B
:100FE00010928204E0917E04F0917F0486E0808379
:100FF000E0917C04F0917D04808180618083E091A8
:101000007C04F0917D04808188608083E0917C0481
:10101000F0917D04808180688083E0917C04F09170
:101020007D0480818F7D808399E4C92E94E0D92E40
:101030002CE1622E24E0722E33E5A32E34E0B32E91
:1010400046E3842E42E0942E0E94960260935D0453
:1010500070935E0480935F049093600461E085E088
:101060000E94FB0100911404602F86E00E94FB01A6
:1010700060914A0487E00E94FB0186E10E94D20150
:10108000682F8BE00E94FB018AE694E00E94330304
:10109000892B09F444C08AE694E00E94DF02182FED
:1010A000082E000C990B0E94070E892B09F4B7C07B
:1010B000002309F45EC01B3609F44EC0ACF41235AF
:1010C00009F442C044F41B3409F444C08EE692E0B3
:1010D0000E94240424C0143509F441C01936B1F724
:1010E00081E080935C041BC0133709F43FC02CF4EB
:1010F0001D3661F71092140412C01437A1F119378C
:1011000029F780E692E00E9424040E9496026093F0
:101110005304709354048093550490935604809123
:101120005C04882309F400C180915B04882309F4DE
:1011300079C082EA92E00E9424048DEA92E00E9443
:10114000240410925C04F0C081E080935B048093DF
:101150004A04E5CF81E0FBCF10924A04E0CF81E062
:1011600080934904F4CF10924904D9CF0E94BD0561
:10117000D6CF133609F443C0E4F41D3491F16CF476
:10118000183409F447C01B3429F3133409F09ECFF7
:1011900061E070E090E080E02CC01835B1F11A35C4
:1011A00021F1163509F092CF61E070E081E090E026
:1011B00020C0163739F154F41B3671F21337B1F2EF
:1011C000183609F083CF70E060E026C0193709F4C3
:1011D00098CF1A3789F0183709F078CF70E060E0BF
:1011E00016C081E0809314049ACF61E070E082E041
:1011F00090E00E94280593CF70E060E0F8CF70E0A7
:1012000060E0C8CF70E060E0D1CF61E070E083E0E3
:1012100090E0EFCF61E070E084E090E0EACF81E819
:1012200092E056CF8AE694E00E943303181619061E
:101230000CF014C11A8219821C821B821E821D822C
:101240006AE472E0CE0101960E94C7040E94F30294
:1012500097FD0FC08A30910561F08F83188641E0B9
:1012600050E0BE01695F7F4FCE0101960E94F204FB
:10127000EDCF8091070590910805009709F46FC0A4
:1012800069817A816115710509F467C0409109058A
:1012900050910A052D813E814217530708F45DC025
:1012A0000E94180E8D819E8190930C0580930B05F2
:1012B0001E821D82CE0101960E944D0410925C0494
:1012C0008CE1E82E84E0F82E10E000E080910B0520
:1012D00090910C050817190700F5E0910705F091AA
:1012E0000805309709F052C010921504E5E1F4E0CA
:1012F000508022E6521609F44CC084E6581609F4D0
:1013000048C09EE6591609F444C08DE093E00E945F
:10131000240482EA92E00E9424048CE693E00E9476
:10132000240481E080935C0480915B04882309F4A9
:1013300007C180911D0490911E04A0911F04B091DB
:101340002004892B8A2B8B2B09F08FC086EA93E02F
:101350000E94240410925B04F3C00E949A0C8981BD
:101360009A8190930805809307058B819C819093C7
:101370000A05809309058D819E8190930C058093C9
:101380000B051A8219821C821B8292CFE00FF11F7B
:10139000AFCF0F5F1F4F1A8219821C821B821E82E1
:1013A0001D826AE472E0CE0101960E94C70480911A
:1013B0000B0590910C050817190740F520910705BA
:1013C00030910805F901E00FF11F2115310521F4D5
:1013D00010921504E5E1F4E08081082E000C990BD1
:1013E000C0970A9798F4232B11F41092150480816A
:1013F0008F83188641E050E0BE01695F7F4FCE01C8
:1014000001960E94F2040F5F1F4FD1CFCE14DF046C
:1014100049F480E393E00E942404CE0101960E94E7
:101420004D047BCF89819A810097A1F00E94820BA5
:10143000F7015082072E000C880B990B6183728391
:1014400083839483CE0101960E944D04F5E0EF0E54
:10145000F11C3CCF60E070E0CB01EACF82EA92E081
:101460000E94240486E793E06ACE81E080934A04D8
:1014700080911A0490911B048930910508F0DBC01B
:1014800025E0289FF001299FF00D1124E45EFB4F19
:101490004181528163817481411551056105710556
:1014A00009F4C9C080915D0490915E04A0915F042D
:1014B000B091600400911604109117042091180453
:1014C00030911904801B910BA20BB30B8417950765
:1014D000A607B707A8F18081843609F49BC08E3631
:1014E00009F4A1C0823609F0A3C061E070E090E089
:1014F00080E00E94280561E070E081E090E00E94B9
:10150000280570E060E084E090E00E94280580916A
:101510005D0490915E04A0915F04B091600480939B
:10152000160490931704A0931804B09319048091A3
:101530001A0490911B04019690931B0480931A0443
:1015400080915D0490915E04A0915F04B09160046D
:1015500040915704509158046091590470915A0475
:10156000841B950BA60BB70B843F9140A105B105D9
:1015700008F4A6C086E30E945A0290934C0480931C
:101580004B0488E30E945A0290934E0480934D04CA
:101590008AE30E945A029093500480934F048091F2
:1015A0004A04882309F47CC018861F821A8619868B
:1015B0001C861B866EE074E0CE0107960E94C7046D
:1015C0000BE414E0A016B10609F041C006E212E0F7
:1015D0008016910609F456C0F80180810E5F1F4FF6
:1015E0000E94D201BC01CE0101960E947D044D8172
:1015F0005E8169817A81CE0107960E94F204CE0154
:1016000001960E944D046FE074E0CE0107960E949F
:101610001E05DECF70E060E090E080E00E942805CB
:1016200070E060E06ACF82ED93E00E9424046FCF07
:1016300087EF93E0FACF0E94AD058DE2F30111929E
:101640008A95E9F710921B0410921A0483CEF801D0
:10165000619171918F01CE0101960E947D044D81AF
:101660005E8169817A81CE0107960E94F204CE01E3
:1016700001960E944D046FE074E0CE0107960E942F
:101680001E05A0CF61E174E0CE0107960E941E0501
:10169000CE0107960E941104CE0107960E944D04C8
:1016A00080915D0490915E04A0915F04B09160040C
:1016B0008093570490935804A0935904B0935A040C
:1016C00080915D0490915E04A0915F04B0916004EC
:1016D0004091530450915404609155047091560404
:1016E000841B950BA60BB70B88389341A105B10558
:1016F00010F00E94BD050E94D803A6CC87E095E0BB
:101700000C944D041F93FC0199278827BC01E89491
:1017100011911032E9F3193010F01E30C8F31B326A
:1017200051F01D3249F4689406C00E94B40B610F59
:10173000711D811D911D119110531A30B0F33EF4AB
:1017400090958095709561957F4F8F4F9F4F1F911A
:101750000895BB274A3031F4992322F4BDE29095D5
:1017600081959F4F0C94CA0B592F482F372F262F46
:10177000660F771F881F991F660F771F881F991F95
:10178000620F731F841F951F660F771F881F991F95
:101790000895BB27FB015527AA27880F991FAA1F69
:1017A000A41710F0A41B83955051B9F7A05DAA337C
:1017B00008F0A95DA193009779F7B111B193119247
:1017C000CB010C94E30BDC01FC01672F71917723B3
:1017D000E1F7329704C07C916D9370836291AE17EC
:1017E000BF07C8F30895992788270895EE0FFF1FB4
:1017F000881F8BBF0790F691E02D19940F931F93CC
:10180000CF93DF938230910510F482E090E0E09175
:101810000F05F091100530E020E0B0E0A0E0309737
:1018200099F42115310509F44AC0281B390B2430DD
:101830003105D8F58A819B816115710589F1FB011C
:1018400093838283FE0111C0408151810281138103
:1018500048175907E0F04817590799F4109761F0B5
:1018600012960C93129713961C933296CF01DF9128
:10187000CF911F910F91089500930F0510931005BC
:10188000F4CF2115310551F04217530738F0A90163
:10189000DB019A01BD01DF01F801C1CFEF01F9CFF2
:1018A0009093100580930F05CDCFFE01E20FF31F3B
:1018B000819391932250310939832883D7CF209186
:1018C0000D0530910E05232B41F420910202309139
:1018D000030230930E0520930D05209100023091F4
:1018E00001022115310541F42DB73EB740910402A4
:1018F00050910502241B350BE0910D05F0910E056A
:10190000E217F307A0F42E1B3F0B2817390778F0D6
:10191000AC014E5F5F4F2417350748F04E0F5F1F35
:1019200050930E0540930D05819391939FCFF0E066
:10193000E0E09CCFCF93DF930097E9F0FC01329772
:1019400013821282A0910F05B0911005ED0130E0D5
:1019500020E01097A1F420813181820F931F209104
:101960000D0530910E052817390709F061C0F09375
:101970000E05E0930D05DF91CF910895EA01CE1792
:10198000DF07E8F54A815B819E0141155105B1F7FA
:10199000E901FB83EA8349915991C40FD51FEC17E4
:1019A000FD0761F4808191810296840F951FE90102
:1019B00099838883828193819B838A83F0E0E0E02E
:1019C00012968D919C9113970097B9F52D913C91AA
:1019D0001197CD010296820F931F20910D05309132
:1019E0000E052817390739F6309751F51092100572
:1019F00010920F05B0930E05A0930D05BCCFD383B5
:101A0000C28340815181840F951FC817D90761F4A3
:101A10004E5F5F4F88819981480F591F51834083E2
:101A20008A819B81938382832115310509F0B0CF90
:101A3000F0931005E0930F059ECFFD01DC01C0CFB0
:101A400013821282D7CF4F925F926F927F928F92C2
:101A50009F92AF92BF92CF92DF92EF92FF920F933D
:101A60001F93CF93DF938C01009799F4CB01DF9103
:101A7000CF911F910F91FF90EF90DF90CF90BF908B
:101A8000AF909F908F907F906F905F904F900C944D
:101A9000FE0BFC01E60FF71F9C0122503109E217F3
:101AA000F30708F4AEC0D901CD91DC911197C617A8
:101AB000D70720F1C530D10578F0CE0104978617FD
:101AC000970750F0C61BD70B2297C193D1936D9304
:101AD0007C93CF010E949A0CC801DF91CF911F9196
:101AE0000F91FF90EF90DF90CF90BF90AF909F90BD
:101AF0008F907F906F905F904F9008955B01AC1A2C
:101B0000BD0A4C018C0E9D1EA0910F05B0911005D1
:101B1000512C412CF12CE12C109731F580910D05C1
:101B200090910E058815990509F05CC04616570678
:101B300008F058C08091000290910102009741F492
:101B40008DB79EB74091040250910502841B950BFE
:101B5000E817F90708F055C0F0930E05E0930D055E
:101B6000F90171836083B8CF8D919C911197129682
:101B70006C90129713967C901397A815B90559F598
:101B80006C0142E0C40ED11CCA14DB0420F1AC018C
:101B90004A195B09DA011296159780F06282738206
:101BA00051834083D9016D937C93E114F10471F06A
:101BB000D7011396FC93EE9312978ECF22968C0F3B
:101BC0009D1FF90191838083F301EFCFF0931005FE
:101BD000E0930F0581CF4816590608F42C017D01CA
:101BE000D3019ACFCB010E94FE0B7C01009749F0F4
:101BF000AE01B8010E940F0EC8010E949A0C870125
:101C00006BCF10E000E068CF85FD0C94F30B806291
:101C100091110C94F30B81568A51D8F70895FB016A
:101C2000DC0102C001900D9241505040D8F7089558
:101C3000FB01DC0101900D920020E1F7089511E015
:101C4000C7E3D1E000E006C0802FFE010E94F60B42
:101C50002196011DC833D10780E00807A9F7F89441
:021C6000FFCFB4
:101C62000000110580002000220024002600280028
:101C72002A002C002E000500060007000B000C00B5
:101C82000D0017003200080009000A001600340097
:101C92001A001C001E00000000006B03A302D00209
:101CA200B8033303DF0225030D0A004C4F473A20E5
:101CB20056616C766520002073657420746F200075
:101CC2004845415254424541545F41434B004C4FB9
:101CD200473A20496E76616C696420696E7075744A
:101CE200004C4F473A20496E76616C696420696EF8
:101CF2007075742C206E6F742061206C657474652D
:101D020072005345513A2046616C7365004C4F474F
:101D12003A2053657175656E636520616C72656109
:101D220064792072756E6E696E672C20706C6561C5
:101D32007365207761697420666F722063757272B1
:101D4200656E742073657175656E636520746F20AE
:101D5200656E64206265666F7265206C6F6164698E
:101D62006E672061206E6577206F6E65004C4F476D
:101D72003A20496E76616C696420737465702074D0
:101D820079706520696E2073657175656E63650093
:101D92004C4F473A2053657175656E636520746FC9
:101DA2006F206C6F6E672C206F6E6C792066697283
:101DB200737420392073746570732077696C6C209A
:101DC2006265206578656375746564005345513AB0
:101DD2002054727565004C4F473A20457870656310
:101DE2007465642073657175656E636520696E70D4
:101DF20075742C20627574206E6F6E652072656337
:101E02006569766564004C4F473A20536571756584
:101E12006E636520697320656D7074792C206E6F16
:101E22007468696E6720746F2070726F6365737374
:101E32002E004C4F473A20416C7420627562626CEE
:101E4200652073746570206E6F7420696D706C65A7
:101E52006D656E746564004C4F473A20556E6B6E2B
:101E62006F776E20737465702074797065005020EE
:041E72000043000029
:00000001FF
