:100000000C9447010C9478010C9478010C947801BD
:100010000C9478010C9478010C9478010C9478017C
:100020000C9478010C9478010C9478010C9478016C
:100030000C9478010C9478010C9478010C9478015C
:100040000C9478010C9478010C9478010C9478014C
:100050000C9478010C9478010C9478010C9465054B
:100060000C9478010C94D9050C94AF050C9478018C
:100070000C9478010C9478010C9478010C9478011C
:100080000C9478010C9478010C9478010C9478010C
:100090000C9478010C9478010C9478010C947801FC
:1000A0000C9478010C9478010C9478010C947801EC
:1000B0000C9478010C9478010C9478010C947801DC
:1000C0000C9478010C9478010C9478010C947801CC
:1000D0000C9478010C9478010C9478010C947801BC
:1000E0000C9478010C94B6090C940C0A0C94D90168
:1000F0000C941F030C949D0A0C94D3010C940F06CE
:100100000C94AA010C94CF010C94DD010C94AD0168
:100110000C94470B0C94B7010C94FE090C94830AC1
:100120000C94A6010C9433030C94E3020C949801F4
:100130000C9441030C94C5010C94E6080C940A0934
:100140000C949E010C94D8010C94B3010C94C6033A
:100150000C94CB010C94BD010C9479030C94100BFE
:100160000C94C1010C94A2010C9410030000210016
:10017000240027002A002D00300033000101000078
:10018000040107010A0100002200250028002B00BD
:100190002E003100340002010000050108010B01AE
:1001A000000020002300260029002C002F00320030
:1001B0000001000003010601090105050505070509
:1001C00008080808020202020A0A080804040404D3
:1001D00001010101010101010303030303030303FF
:1001E000040707070C0C0C0C0C0C0C0C020202028E
:1001F00006060606060606060B0B0B0B0B0B0B0B77
:100200000102102020080810204010204080020128
:10021000020108040201010204081020408080400D
:10022000201008040201800402018040201008040C
:1002300002010804020101020408102040800102AA
:1002400004081020408000000A0B02090C0D0E0863
:10025000070304010000000000000000000000008F
:10026000000000000000000000000000000000008E
:10027000000012111000000000000000000000004B
:100280000000000000000000000000000F06112424
:100290001FBECFEFD1E2DEBFCDBF00E00CBF14E048
:1002A000A0E0B2E0ECE8F2E200E00BBF02C0079091
:1002B0000D92A838B107D9F725E0A8E8B4E001C04D
:1002C0001D92AF35B207E1F711E0C7E4D1E000E0DD
:1002D00006C021970109802FFE010E94900DC634AF
:1002E000D10780E00807A9F70E9464060C94441126
:1002F0000C9400008150823108F05AC0E82FF0E0E1
:100300008827EA57FE4F8F4F0C94900DA601AA0143
:1003100098019E01A201D801AD01B301B701BD0151
:10032000C101C501CB01CF01D801D301D901DD0144
:10033000809180008F778093800008958091800065
:100340008F7DF9CF80918000877FF5CF84B58F773F
:1003500084BD089584B58F7DFBCF8091B0008F77E9
:100360008093B00008958091B0008F7DF9CF809187
:1003700090008F77809390000895809190008F7DFA
:10038000F9CF80919000877FF5CF8091A0008F7783
:100390008093A00008958091A0008F7DF9CF809177
:1003A000A000877FF5CF809120018F778093200177
:1003B0000895809120018F7DF9CF80912001877F62
:1003C000F5CFCF93DF93282F30E0F901EA5BFD4FA3
:1003D0008491F901E050FE4FD491F901E654FE4FAB
:1003E000C491CC23A1F081110E947A01EC2FF0E09E
:1003F000EE0FFF1FE056FE4FA591B491EC91ED2357
:1004000081E090E009F480E0DF91CF91089580E0F1
:1004100090E0FACF1F93CF93DF93282F30E0F901BC
:10042000EA5BFD4F8491F901E050FE4FD491F90150
:10043000E654FE4FC491CC23A9F0162F81110E94DF
:100440007A01EC2FF0E0EE0FFF1FEA57FE4FA59167
:10045000B4918FB7F894EC91111108C0D095DE23B8
:10046000DC938FBFDF91CF911F910895DE2BF8CFE2
:10047000CF93DF9390E0FC01E050FE4F249186542F
:100480009E4FFC0184918823D1F090E0880F991F42
:10049000FC01E459FE4FA591B491FC01EA57FE4FCF
:1004A000C591D49161110EC09FB7F8948C91E22F41
:1004B000E0958E238C932881E223E8839FBFDF9110
:1004C000CF9108958FB7F894EC91E22BEC938FBF06
:1004D000F6CF90917B00977F90937B00865380644A
:1004E00080937C0080917A00806480937A00809170
:1004F0007A0086FDFCCF8091780090917900089574
:100500003FB7F8948091A5049091A604A091A70408
:10051000B091A80426B5A89B05C02F3F19F00196FD
:10052000A11DB11D3FBFBA2FA92F982F8827BC014D
:10053000CD01620F711D811D911D42E0660F771F75
:10054000881F991F4A95D1F708958F929F92AF9275
:10055000BF92CF92DF92EF92FF924B015C010E941B
:1005600080026B017C010E9480026C197D098E095A
:100570009F09683E734081059105A8F321E0821A26
:100580009108A108B10888EEC80E83E0D81EE11CCE
:10059000F11C81149104A104B10429F7FF90EF909C
:1005A000DF90CF90BF90AF909F908F9008952FB71E
:1005B000F8946091A1047091A2048091A304909199
:1005C000A4042FBF0895AF92BF92CF92DF92EF9213
:1005D000FF920F931F93CF93DF936C017B018B01ED
:1005E000040F151FEB015E01AE18BF08C017D1073D
:1005F00059F06991D601ED91FC910190F081E02DC7
:10060000C6011995892B79F7C501DF91CF911F910B
:100610000F91FF90EF90DF90CF90BF90AF90089533
:10062000FC01538D448D252F30E0842F90E0821BF8
:10063000930B541710F0CF96089501970895FC017D
:10064000918D828D981761F0A28DAE0FBF2FB11DD5
:100650005D968C91928D9F5F9F73928F90E008952D
:100660008FEF9FEF0895FC01918D828D981731F0E7
:10067000828DE80FF11D858D90E008958FEF9FEF3B
:100680000895FC01918D228D892F90E0805C9F4F11
:10069000821B91098F739927089589EA94E00E943B
:1006A000410321E0892B09F420E0822F0895FC0109
:1006B000A48DA80FB92FB11DA35ABF4F2C91848DC3
:1006C00090E001968F739927848FA689B7892C9320
:1006D000A089B1898C91837080648C93938D848D73
:1006E000981306C00288F389E02D80818F7D808376
:1006F0000895EF92FF920F931F93CF93DF93EC0136
:1007000081E0888F9B8D8C8D98131AC0E889F989B8
:10071000808185FF15C09FB7F894EE89FF896083BB
:10072000E889F98980818370806480839FBF81E03C
:1007300090E0DF91CF911F910F91FF90EF9008957E
:10074000F62E0B8D10E00F5F1F4F0F731127E02E59
:100750008C8D8E110CC00FB607FCFACFE889F98991
:10076000808185FFF5CFCE010E945703F1CFEB8D3D
:10077000EC0FFD2FF11DE35AFF4FF0829FB7F89465
:100780000B8FEA89FB8980818062CFCFCF93DF9383
:10079000EC01888D8823B9F0AA89BB89E889F98999
:1007A0008C9185FD03C0808186FD0DC00FB607FCCE
:1007B000F7CF8C9185FFF2CF808185FFEDCFCE0101
:1007C0000E945703E9CFDF91CF91089580E090E038
:1007D000892B29F00E944D0381110E94000080E0C6
:1007E00090E0892B49F080E090E0892B29F00E946D
:1007F000000081110E94000080E090E0892B49F008
:1008000080E090E0892B29F00E94000081110E9475
:10081000000080E090E0892B49F080E090E0892B97
:1008200029F00E94000081110C9400000895FC0141
:1008300080819181009749F0FC0120813181261748
:10084000370719F086819781F5CF0895CF93DF930D
:10085000EB01BC0186E495E00E941704009789F043
:10086000DC011496ED91FC91309759F080819181D3
:10087000C817D90750F081E0228133812C173D073A
:1008800008F080E0DF91CF91089581E0FBCF0E94D6
:100890001704009721F0FC0182819381089590E074
:1008A00080E00895CF93DF93EA010E941704009738
:1008B00039F0FC01D383C28381E0DF91CF910895A9
:1008C00080E0FBCF1F93CF93DF93162FEC01CC0F6B
:1008D000DD1FFE01E95EFD4F80810E940A02C95FB3
:1008E000DD4F612F8881DF91CF911F910C940A0217
:1008F00081E08093000240E05FEF61E170E086E418
:1009000095E00E94520450E040E063E170E086E42C
:1009100095E00E94520470E060E090E080E00E9468
:10092000620470E060E081E090E00E94620470E0A8
:1009300060E082E090E00E94620470E060E083E0AA
:1009400090E00E94620470E060E084E090E00C942B
:1009500062040F931F93CF93DF938C01EB0188E028
:1009600090E00E942E0FFC0111830083D383C28389
:100970001582148217821682809146059091470550
:10098000892B69F4F0934705E0934605F0934905F8
:10099000E0934805DF91CF911F910F910895A091A9
:1009A0004805B09149051796FC93EE931697EECF44
:1009B0000F931F93CF93DF93182F062FC6E4D5E034
:1009C00082E0888762E070E08E819F810E945310F0
:1009D000FC019F838E8310581083018383E08987F5
:1009E000DF91CF911F910F910895AF92BF92DF9247
:1009F000EF92FF920F931F93CF93DF93D82E7B013B
:100A00008A01BA016F5F7F4F660F60934E0570E0F9
:100A100080914C0590914D050E94531090934D0587
:100A200080934C0564E00097B9F1FC01D0822091DD
:100A30004E0522502183F3E081E395E7DF1202C0E7
:100A400081E49CE9D0E0C0E0E80EF91E0C171D0718
:100A500079F15701AC0EBD1EB50186E495E00E9408
:100A60001704892BC1F0B50186E495E00E94470484
:100A700021969E01220F331FA0914C05B0914D0588
:100A8000A20FB31F9C93E0914C05F0914D05E20F2E
:100A9000F31F8183DBCF62E08D2DDF91CF911F911A
:100AA0000F91FF90EF90DF90BF90AF900C94D8041F
:100AB00083E080934F05DF91CF911F910F91FF90BD
:100AC000EF90DF90BF90AF9008951F920F920FB6F6
:100AD0000F9211242F933F938F939F93AF93BF93C4
:100AE0008091A1049091A204A091A304B091A404C8
:100AF0003091A00423E0230F2D3758F50196A11D56
:100B0000B11D2093A0048093A1049093A204A0930C
:100B1000A304B093A4048091A5049091A604A0918D
:100B2000A704B091A8040196A11DB11D8093A5044E
:100B30009093A604A093A704B093A804BF91AF918B
:100B40009F918F913F912F910F900FBE0F901F900B
:100B5000189526E8230F0296A11DB11DD2CF1F9232
:100B60000F920FB60F9211240BB60F922F933F9353
:100B70004F935F936F937F938F939F93AF93BF93A5
:100B8000EF93FF9389EA94E00E945703FF91EF915E
:100B9000BF91AF919F918F917F916F915F914F9195
:100BA0003F912F910F900BBE0F900FBE0F901F9093
:100BB00018951F920F920FB60F9211240BB60F9239
:100BC0002F938F939F93EF93FF93E091B904F0914C
:100BD000BA048081E091BF04F091C00482FD1DC081
:100BE00090818091C2048F5F8F732091C30482171C
:100BF00041F0E091C204F0E0E755FB4F958F809300
:100C0000C204FF91EF919F918F912F910F900BBE96
:100C10000F900FBE0F901F9018958081F2CFE9EAD8
:100C2000F4E01382128288EE93E0A0E0B0E08483C7
:100C30009583A683B7838BE494E09183808385ECCE
:100C400090E09587848784EC90E09787868780EC96
:100C500090E0918B808B81EC90E0938B828B82EC87
:100C600090E0958B848B86EC90E0978B868B118E31
:100C7000128E138E148EA6E4B5E011961C921E926D
:100C800013961C921E92129715961C921E92149700
:100C900017961C921E92169718961C9218971996E2
:100CA0001C9219971B961C921E921A971D96FC93E4
:100CB000EE931C978FEF9FEF1F969C938E931E973A
:100CC0008AE050968C930895CF93DF9300D0CDB7F0
:100CD000DEB7789484B5826084BD84B5816084BDBC
:100CE00085B5826085BD85B5816085BD80916E00CA
:100CF000816080936E0010928100809181008260FB
:100D00008093810080918100816080938100809137
:100D100080008160809380008091B1008460809326
:100D2000B1008091B00081608093B000809191000B
:100D30008260809391008091910081608093910006
:100D4000809190008160809390008091A1008260EA
:100D50008093A1008091A10081608093A100809187
:100D6000A00081608093A000809121018260809327
:100D700021018091210181608093210180912001D6
:100D800081608093200180917A00846080937A0052
:100D900080917A00826080937A0080917A008160ED
:100DA00080937A0080917A00806880937A00109214
:100DB000C100E091B904F091BA0482E08083E0912F
:100DC000B504F091B6041082E091B704F091B80434
:100DD0008FEC80831092C104E091BD04F091BE04B9
:100DE00086E08083E091BB04F091BC048081806147
:100DF0008083E091BB04F091BC0480818860808393
:100E0000E091BB04F091BC04808180688083E09114
:100E1000BB04F091BC0480818F7D80838091540558
:100E20009091550597FD08C061E00E94380260E08E
:100E3000809154050E940A0286EB96E09093580533
:100E4000809357058AEA9FE090935A05809359054D
:100E500080914A0590914B050E94CA0F80E190E075
:100E60000E942E0F90934B0580934A05009721F026
:100E700069E574E00E943D1107E112E01B830A83DB
:100E800007E212E0AA81BB818C911296BB83AA83F0
:100E900061E00E943802EA81FB810E171F0791F77B
:100EA00007E012E01B830A8307E112E0AA81BB81FD
:100EB0008C911296BB83AA8361E00E943802EA817A
:100EC000FB810E171F0791F707E314E01B830A83CA
:100ED00007E414E0AA81BB818C911296BB83AA839C
:100EE00061E00E943802EA81FB810E171F0791F72B
:100EF00060E089E10E94380260E083E00E943802ED
:100F000060E084E00E94380260E082E00E943802E3
:100F100060E088E10E94380260E087E30E943802C6
:100F200060E088E30E94380260E089E30E943802B2
:100F300060E08AE30E9438021B821A8270E060E05F
:100F40008A819B810E9462040A811B810F5F1F4F6F
:100F50001B830A830830110589F707E314E027E2B1
:100F600034E03B832A83AA81BB818D919D91BB8311
:100F7000AA8370E060E001960E94A904EA81FB81E7
:100F80000E171F0781F760E07FEF81E190E00E947C
:100F9000A90470E060E084E190E00E94A90470E0A0
:100FA00060E083E190E00E94A90470E060E082E1EB
:100FB00090E00E94A90470E060E081E395E70E9460
:100FC000A90470E060E082E395E70E94A90470E064
:100FD00060E083E395E70E94A90470E060E084E3A9
:100FE00095E70E94A90461E08CE00E943802412C40
:100FF000512C3201439480910002811111C089EA81
:1010000094E00E94410318161906D4F50E94D702F5
:1010100060939C0470939D0480939E0490939F041E
:1010200010924E058091520590915305DC01ED918F
:10103000FC910084F185E02D199540914E05242FF7
:1010400030E0281739079CF580915205909153059F
:10105000DC01ED91FC910084F185E02D19958093E0
:101060004E05809157059091580582309105D0F238
:10107000880F991F880F991F05970197F1F7D2CF15
:101080000E94D70200919C0410919D0420919E041F
:1010900030919F04601B710B820B930B613D774075
:1010A000810591050CF4BCCF0E947804B9CF44238C
:1010B00009F449C3C9010E942E0F90934D058093F6
:1010C0004C05198220914E0509810217A8F48091E0
:1010D000520590915305DC01ED91FC910284F3855A
:1010E000E02D1995E0914C05F0914D05E00FF11DB3
:1010F00080830F5F0983E6CFE0904C05F0904D05AB
:10110000F701F081F983FF3F21F080915605F81334
:1011100012C33DEF320F57010FEFA01AB00A6981D9
:10112000609570E0FB01E95DFC4F8081482F4095A0
:10113000695D7D4FDB015C91F501315068F0819173
:10114000842790E0DC01A95DBC4F4C914527DC0170
:10115000A95DBD4F5C91F1CF2E0D3F2D311DF901E1
:1011600032979081319680814527542745278417EF
:10117000950709F0E0C2F701D180028113811027A1
:1011800001271027248135813227232732273B83EB
:101190002A83EFEFED0DE13108F079C2F0E0882706
:1011A000EB52F74F8F4F0C94900D0C0A0C0AB609B6
:1011B000FE09830AE608470B470B470B470B470B13
:1011C000470B470B470B9D0A0A09100B0F5B134691
:1011D0006A817B81C8010E942604882329F063E08C
:1011E00086E00E94D804D1C04A815B81B80186E4C0
:1011F00095E00E945204811102C062E0F1CF82E0CA
:1012000080934F0509810F3F09F0CBC081E08093A7
:101210004F05BFC08A819B8101978B37910550F4A0
:10122000D70116962C918A819B81880F991F2817C8
:10123000190619F063E080E1D4CFD12CC12C18013C
:101240004FEB241A43E6340AB1016C0D7D1D86E490
:1012500095E00E941704892B11F462E0ECCF5FEF58
:10126000C51AD50A8A819B818C159D0569F7FB8279
:10127000EA82F12CE12CEA81FB81A7808085BA2CDF
:10128000A82E41018E0C9F1CB501C4010E942604AA
:101290008111A5CFA501B40186E495E00E94520416
:1012A000FFEFEF1AFF0A2A813B812E5F3F4F3B83FE
:1012B0002A83CE14DF04F9F680914C0590914D05F8
:1012C0000E94CA0F35E030934E0585E090E00E9401
:1012D0002E0FFC0190934D0580934C0564E0892B03
:1012E00009F4A9CF80E18083118302831382C48231
:1012F00083E080934F0509810F3F09F487CFE09089
:101300004C05F0904D05809154059091550597FD41
:1013100009C061E00E940A0261E070E080E090E0B4
:101320000E94A5028091520590915305DC01ED9138
:10133000FC910190F081E02D60915605199510E027
:1013400060914E058091520590915305DC01ED911D
:10135000FC91C080D180161708F09BC1D701A10F66
:10136000B11D6C91F60119951F5FEACF8A819B81AF
:1013700001978D37910518F063E083E032CF4A8101
:101380005B81B80183E00E94F50409810F3F09F4F5
:101390003DCF80914F05833009F4B1CF823009F001
:1013A000CAC100914C0510914D051B830A838091A1
:1013B00054059091550597FD09C061E00E940A020D
:1013C00061E070E080E090E00E94A50210E0809172
:1013D000520590915305DC01ED91FC9120914E0551
:1013E000121708F08DC1AA81BB81A10FB11D019018
:1013F000F081E02D6C9119951F5FE9CF8A819B8167
:1014000001978D37910518F063E084E0EACE4A81B8
:101410005B81B80184E0B7CF8A819B81019763E04B
:10142000803D974008F06DC08A819B81B3E096951E
:101430008795BA95E1F72A813B8127703327232BC3
:1014400009F059C08E5F80934E0560914E0570E0A3
:10145000C7010E94531090934D0580934C0564E0A2
:10146000009709F44EC0FC01D08220914E05225015
:101470002183F1E061E070E0DF1611F061E177E2D5
:10148000F12CE12C5801A60EB71E85010E0D1F1D73
:10149000B80186E495E00E941704892B89F1B80110
:1014A00086E495E00E9447042E2D2770B301A20127
:1014B00004C0440F551F661F771F2A95D2F7F70106
:1014C000A3E0F695E795AA95E1F7329620914C05B1
:1014D00030914D05E20FF31F208181159F4F69F474
:1014E000422B40831FEFE11AF10A0A811B810E157E
:1014F0001F0559F6FDCE8D5FA6CF40954223F1CF53
:1015000062E08D2D6ECE2A813B8121154FEF34078D
:1015100031F063E0232B79F450E040E002C040E07A
:101520005FEFB8016F5F7F4F86E495E00E94520441
:10153000811165CE62E085E054CE8A819B8173E0A3
:10154000969587957A95E1F72A813B812770332715
:10155000232B09F001962A813B8121503109203B40
:10156000374008F05BC0D70116962C912817190652
:1015700009F054C0F12CE12C4801BFEF8B1A9B0AF3
:101580006401CE0CDF1CB60186E495E00E941704CE
:10159000892B09F440C0F70163E0F695E7956A9559
:1015A000E1F7EA0DFB1D868190E02E2D277002C029
:1015B000959587952A95E2F740E05FEF80FD02C0A0
:1015C00050E040E0B60186E495E00E945204EFEF5F
:1015D000EE1AFE0A2A813B812E153F0589F635E079
:1015E00030934E0565E070E080914C0590914D057B
:1015F0000E945310FC0190934D0580934C0564E0CC
:10160000892B51F08FE08083118302834B814383C8
:101610005A8154836DCE62E08FE0E3CD63E0FCCF6E
:1016200084E080934E05A0914A05B0914B05109738
:1016300041F0FD0101900020E9F7EA1BED5FE09326
:101640004E0560914E0570E0C7010E945310FC01E9
:1016500090934D0580934C0564E081E1309709F447
:10166000C0CD91E1908380914E058250818312829A
:10167000AFEFA38360914A0570914B056115710529
:1016800009F436CECF0104960E943D1131CE61E0BF
:1016900038CF40915605409550E0DA01A95DBC4F26
:1016A0007C917095495D5D4FDA014C91A0914C059C
:1016B000B0914D05615068F02D91272730E0F90178
:1016C000E95DFC4F70817427295D3D4FF901408130
:1016D000F1CF042F672FF601199580915205909153
:1016E0005305DC01ED91FC910190F081E02D602F1C
:1016F00019958091520590915305DC01ED91FC9173
:101700000680F781E02D19958091590590915A0531
:101710008230910538F0880F991F880F991F05971F
:101720000197F1F7809154059091550597FD03C0FD
:1017300060E00E940A0280914C0590914D050E9444
:10174000CA0F10924E0561E170E086E495E00E94B8
:10175000470481159F4F09F0E3C082E00E94E10138
:101760009B838A8384E00E94E1010A811B8123E03C
:10177000000F111F2A95E1F7880F991F880F991FF5
:10178000082B192B1B830A8383E00E94E1018C0143
:1017900089E10E94E1012A813B81822B932B000F7A
:1017A000111F802B912B892BF1F470E060E081E018
:1017B00090E00E94620470E060E082E090E00E94AD
:1017C000620470E060E090E080E00E94620470E0FB
:1017D00060E083E090E00E94620470E060E084E0FA
:1017E00090E00E94620481E0809300020E94D70290
:1017F000009198041091990420919A0430919B04CF
:10180000601B710B820B930B653F71408105910545
:101810000CF470C00E94D7026093980470939904EE
:1018200080939A0490939B0487E30E9469026C0161
:10183000BC01990F880B990B0E94790E6093880464
:101840007093890480938A0490938B0488E30E94A8
:1018500069027C01BC01990F880B990B0E94790EDB
:1018600060938C0470938D0480938E0490938F0406
:1018700089E30E9469028C01BC01990F880B990BC6
:101880000E94790E60939004709391048093920467
:10189000909393048AE30E9469029B838A83BC012C
:1018A000990F880B990B0E94790E609394047093A2
:1018B00095048093960490939704A60161E375E7DD
:1018C00086E495E00E945204A70162E375E786E48E
:1018D00095E00E945204A80163E375E786E495E071
:1018E0000E9452044A815B8164E375E786E495E0D7
:1018F0000E94520461E085E00E940A0260910002A9
:1019000086E00E940A0284E30E94E10161E0892BE3
:1019100009F460E087E00E940A020E94E6036BCBB4
:1019200080910002882361F00E94D70260939C049A
:1019300070939D0480939E0490939F0410920002E4
:1019400007E214E01B821A82D8016D917D918D010E
:101950006F5F7F4F86E495E00E94470461E070E08E
:1019600081159F4F11F070E060E08A819B810E9499
:101970006204EA81FB813196FB83EA83359721F784
:1019800062E170E086E495E00E94470481159F4F74
:1019900009F09FC04AE150E069E674E089EA94E00A
:1019A0000E94E30242E050E064E874E089EA94E0D7
:1019B0000E94E30289E30E946902BC01990F880B2F
:1019C000990B0E94790E2EEA37E84BE453E40E940B
:1019D000980D28E136E243E55FE30E94050E20E022
:1019E00030E048EC52E40E94050E2DEC3CEC4CEC4F
:1019F0005DE30E94050F70E060E090E018160CF0C7
:101A000075C080E00E94620470E060E081E090E0D8
:101A10000E94620461E070E082E090E00E94620453
:101A200070E060E083E090E00E94620461E070E0BA
:101A300084E090E00E9462040E94D7026B017C0166
:101A400089E30E946902BC01990F880B990B0E94DF
:101A5000790E2EEA37E84BE453E40E94980D28E112
:101A600036E243E55FE30E94050E20E030E048ECFB
:101A700052E40E94050E2DEC3CEC4CEC5DE30E9420
:101A8000050F181694F40E94D7026C197D098E096F
:101A90009F0969387341810591053CF462E370E068
:101AA00080E090E00E94A502CBCF70E060E084E08F
:101AB00090E00E94620470E060E082E090E00E94AA
:101AC000620450E040E062E170E086E495E00E944C
:101AD000520463E170E086E495E00E9447048115BA
:101AE0009F4F09F083CE0E94780480CE80E00E9450
:101AF000620470E060E081E090E00E94620470E0C7
:101B000060E082E090E00E94620470E060E083E0C8
:101B100090E00E94620470E060E084E090E0CFCF4B
:101B2000EE0FFF1F881F8BBF0790F691E02D1994D1
:101B30005058BB27AA270E94B00D0C94CB0E0E94D0
:101B4000BD0E38F00E94C40E20F039F49F3F19F406
:101B500026F40C94BA0E0EF4E095E7FB0C94B40E48
:101B6000E92F0E94DC0E58F3BA1762077307840747
:101B7000950720F079F4A6F50C94FE0E0EF4E0958E
:101B80000B2EBA2FA02D0B01B90190010C01CA0137
:101B9000A0011124FF27591B99F0593F50F4503EE2
:101BA00068F11A16F040A22F232F342F4427585FD4
:101BB000F3CF469537952795A795F0405395C9F7EC
:101BC0007EF41F16BA0B620B730B840BBAF09150A4
:101BD000A1F0FF0FBB1F661F771F881FC2F70EC043
:101BE000BA0F621F731F841F48F487957795679516
:101BF000B795F7959E3F08F0B0CF9395880F08F002
:101C00009927EE0F9795879508950E94190E0C94C9
:101C1000CB0E0E94C40E58F00E94BD0E40F029F475
:101C20005F3F29F00C94B40E51110C94FF0E0C94EC
:101C3000BA0E0E94DC0E68F39923B1F3552391F399
:101C4000951B550BBB27AA2762177307840738F02B
:101C50009F5F5F4F220F331F441FAA1FA9F335D088
:101C60000E2E3AF0E0E832D091505040E695001C3C
:101C7000CAF72BD0FE2F29D0660F771F881FBB1FF6
:101C8000261737074807AB07B0E809F0BB0B802DD4
:101C9000BF01FF2793585F4F3AF09E3F510578F000
:101CA0000C94B40E0C94FF0E5F3FE4F3983ED4F313
:101CB000869577956795B795F7959F5FC9F7880FD4
:101CC000911D9695879597F90895E1E0660F771F26
:101CD000881FBB1F621773078407BA0720F0621BB7
:101CE000730B840BBA0BEE1F88F7E0950895E89408
:101CF00009C097FB3EF490958095709561957F4F54
:101D00008F4F9F4F9923A9F0F92F96E9BB27939501
:101D1000F695879577956795B795F111F8CFFAF411
:101D2000BB0F11F460FF1BC06F5F7F4F8F4F9F4F42
:101D300016C0882311F096E911C0772321F09EE8A0
:101D4000872F762F05C0662371F096E8862F70E006
:101D500060E02AF09A95660F771F881FDAF7880FE0
:101D60009695879597F9089597F99F6780E870E0B1
:101D700060E008959FEF80EC089500240A94161601
:101D8000170618060906089500240A941216130669
:101D9000140605060895092E0394000C11F48823F7
:101DA00052F0BB0F40F4BF2B11F460FF04C06F5F13
:101DB0007F4F8F4F9F4F089557FD9058440F551FE9
:101DC00059F05F3F71F04795880F97FB991F61F0BD
:101DD0009F3F79F087950895121613061406551F34
:101DE000F2CF4695F1DF08C0161617061806991FA0
:101DF000F1CF86957105610508940895E894BB2795
:101E000066277727CB0197F908950E940A0F08F4F7
:101E10008FEF0895990F0008550FAA0BE0E8FEEF29
:101E200016161706E807F907C0F012161306E4079E
:101E3000F50798F0621B730B840B950B39F40A2697
:101E400061F0232B242B252B21F408950A2609F475
:101E5000A140A6958FEF811D811D08950F931F93BB
:101E6000CF93DF938230910510F482E090E0E0910F
:101E70005D05F0915E0530E020E0B0E0A0E0309735
:101E800099F42115310509F44AC0281B390B243077
:101E90003105D8F58A819B816115710589F1FB01B6
:101EA00093838283FE0111C040815181028113819D
:101EB00048175907E0F04817590799F4109761F04F
:101EC00012960C93129713961C933296CF01DF91C2
:101ED000CF911F910F91089500935D0510935E05BA
:101EE000F4CF2115310551F04217530738F0A901FD
:101EF000DB019A01BD01DF01F801C1CFEF01F9CF8C
:101F000090935E0580935D05CDCFFE01E20FF31F38
:101F1000819391932250310939832883D7CF20911F
:101F20005B0530915C05232B41F420910302309135
:101F3000040230935C0520935B05209101023091EF
:101F400002022115310541F42DB73EB7409105023B
:101F500050910602241B350BE0915B05F0915C0566
:101F6000E217F307A0F42E1B3F0B2817390778F070
:101F7000AC014E5F5F4F2417350748F04E0F5F1FCF
:101F800050935C0540935B05819391939FCFF0E064
:101F9000E0E09CCFCF93DF930097E9F0FC0132970C
:101FA00013821282A0915D05B0915E05ED0130E0D3
:101FB00020E01097A1F420813181820F931F20919E
:101FC0005B0530915C052817390709F061C0F09373
:101FD0005C05E0935B05DF91CF910895EA01CE1790
:101FE000DF07E8F54A815B819E0141155105B1F794
:101FF000E901FB83EA8349915991C40FD51FEC177E
:10200000FD0761F4808191810296840F951FE9019B
:1020100099838883828193819B838A83F0E0E0E0C7
:1020200012968D919C9113970097B9F52D913C9143
:102030001197CD010296820F931F20915B0530917D
:102040005C052817390739F6309751F510925E056F
:1020500010925D05B0935C05A0935B05BCCFD38364
:10206000C28340815181840F951FC817D90761F43D
:102070004E5F5F4F88819981480F591F518340837C
:102080008A819B81938382832115310509F0B0CF2A
:10209000F0935E05E0935D059ECFFD01DC01C0CFAE
:1020A00013821282D7CF4F925F926F927F928F925C
:1020B0009F92AF92BF92CF92DF92EF92FF920F93D7
:1020C0001F93CF93DF938C01009799F4CB01DF919D
:1020D000CF911F910F91FF90EF90DF90CF90BF9025
:1020E000AF909F908F907F906F905F904F900C94E7
:1020F0002E0FFC01E60FF71F9C0122503109E21759
:10210000F30708F4AEC0D901CD91DC911197C61741
:10211000D70720F1C530D10578F0CE010497861796
:10212000970750F0C61BD70B2297C193D1936D939D
:102130007C93CF010E94CA0FC801DF91CF911F91FC
:102140000F91FF90EF90DF90CF90BF90AF909F9056
:102150008F907F906F905F904F9008955B01AC1AC5
:10216000BD0A4C018C0E9D1EA0915D05B0915E05CF
:10217000512C412CF12CE12C109731F580915B050D
:1021800090915C058815990509F05CC046165706C4
:1021900008F058C08091010290910202009741F42A
:1021A0008DB79EB74091050250910602841B950B96
:1021B000E817F90708F055C0F0935C05E0935B055C
:1021C000F90171836083B8CF8D919C91119712961C
:1021D0006C90129713967C901397A815B90559F532
:1021E0006C0142E0C40ED11CCA14DB0420F1AC0126
:1021F0004A195B09DA011296159780F062827382A0
:1022000051834083D9016D937C93E114F10471F003
:10221000D7011396FC93EE9312978ECF22968C0FD4
:102220009D1FF90191838083F301EFCFF0935E0549
:10223000E0935D0581CF4816590608F42C017D0115
:10224000D3019ACFCB010E942E0F7C01009749F059
:10225000AE01B8010E943411C8010E94CA0F870163
:102260006BCF10E000E068CFFB01DC0102C0019001
:102270000D9241505040D8F70895FB01DC010190C8
:0C2280000D920020E1F70895F894FFCFC4
:10228C000100005F058000200022002400260028A9
:10229C00002A002C002E00080009000A0016003449
:1022AC00001A001C001E0000C0C101C30302C2C6FC
:1022BC000607C705C5C404CC0C0DCD0FCFCE0E0A36
:1022CC00CACB0BC90908C8D81819D91BDBDA1A1ED6
:1022DC00DEDF1FDD1D1CDC14D4D515D71716D6D2A6
:1022EC001213D311D1D010F03031F133F3F2323666
:1022FC00F6F737F53534F43CFCFD3DFF3F3EFEFA76
:10230C003A3BFB39F9F83828E8E929EB2B2AEAEEB5
:10231C002E2FEF2DEDEC2CE42425E527E7E62622E5
:10232C00E2E323E12120E0A06061A163A3A2626645
:10233C00A6A767A56564A46CACAD6DAF6F6EAEAAB5
:10234C006A6BAB69A9A86878B8B979BB7B7ABABE55
:10235C007E7FBF7DBDBC7CB47475B577B7B6767225
:10236C00B2B373B17170B050909151935352929625
:10237C00565797559594549C5C5D9D5F9F9E5E5AF5
:10238C009A9B5B99595898884849894B8B8A4A4E35
:10239C008E8F4F8D4D4C8C44848545874746868265
:1023AC004243834181804000C1814001C080410192
:1023BC00C0804100C1814001C0804100C18140000A
:1023CC00C1814001C0804101C0804100C1814000F9
:1023DC00C1814001C0804100C1814001C0804101E8
:1023EC00C0804100C1814001C0804100C1814000DA
:1023FC00C1814001C0804100C1814001C0804101C8
:10240C00C0804100C1814000C1814001C0804101B8
:10241C00C0804100C1814001C0804100C1814000A9
:10242C00C1814001C0804101C0804100C181400098
:10243C00C1814001C0804100C1814001C080410187
:10244C00C0804100C1814000C1814001C080410178
:10245C00C0804100C1814001C0804100C181400069
:10246C00C1814001C0804100C1814001C080410157
:10247C00C0804100C1814001C0804100C181400049
:10248C00C1814001C0804101C0804100C181400038
:10249C00C1814001C0804100C1814001C080410127
:1024AC00C0804100C1814000000100020003000413
:1024BC00000500060007000500060007000B000CD5
:1024CC00000D0017003200000000007903E3021039
:1024DC0003C60341031F03330356616C7665436FD8
:1024EC006E74726F6C6C6572004C4F473A20446589
:1024FC00707265737375726973696E672073797323
:08250C0074656D000D0A00006A
:00000001FF
