:100000000C943D010C946E010C946E010C946E01E5
:100010000C946E010C946E010C946E010C946E01A4
:100020000C946E010C946E010C946E010C946E0194
:100030000C946E010C946E010C946E010C946E0184
:100040000C946E010C946E010C946E010C946E0174
:100050000C946E010C946E010C946E010C9491043E
:100060000C946E010C9405050C94DB040C946E0149
:100070000C946E010C946E010C946E010C946E0144
:100080000C946E010C946E010C946E010C946E0134
:100090000C946E010C946E010C946E010C946E0124
:1000A0000C946E010C946E010C946E010C946E0114
:1000B0000C946E010C946E010C946E010C946E0104
:1000C0000C946E010C946E010C946E010C946E01F4
:1000D0000C946E010C946E010C946E010C946E01E4
:1000E0000C946E010C9497020C94A5010C94400A98
:1000F0000C94C3010C94F6010C94F2010C94D00101
:100100000C943B050C94EC010C94B4090C94CC01B8
:100110000C94E4010C9422080C94D6010C94A001D8
:100120000C94F70A0C94C8020C94E8010C94BF01DB
:100130000C944D030C94DE010C94DA010C94A6028D
:100140000C94BA020C946A020C94C6010C94770ABF
:100150000C94CE090C94B7010C94EE080C9446084C
:100160000C9440090C9432090C9400030C94BB01CC
:1001700000002100240027002A002D003000330059
:1001800001010000040107010A010000220025000E
:1001900028002B002E003100340002010000050170
:1001A00008010B01050505050705080808080202F6
:1001B00002020A0A08080404040401010101010101
:1001C00001010303030303030303040707070C0CE4
:1001D0000C0C0C0C0C0C02020202060606060606AB
:1001E00006060B0B0B0B0B0B0B0B01021020200850
:1001F0000810204010204080020102010804020182
:1002000001020408102040808040201008040201F0
:100210008004020180402010080402010804020149
:1002200001020408102040800102040810204080D0
:1002300000000A0B02090C0D0E0807030401000060
:1002400000000000000000000000000000000000AE
:10025000000000000000000000000000121110006B
:10026000000000000000000000000000000000008E
:100270000000000000003B05F70A11241FBECFEF6D
:10028000D1E2DEBFCDBF00E00CBF25E0A8E5B4E0C1
:1002900001C01D92AD31B207E1F714E0A0E0B2E079
:1002A000E0E6FAE100E00BBF02C007900D92A8352E
:1002B000B107D9F711E0CCE3D1E000E006C0219707
:1002C0000109802FFE010E94000BCB33D10780E093
:1002D0000807A9F70E94EA050C941E0D0C94000073
:1002E000282F30E0F901E05DFD4F9491F901E651CE
:1002F000FE4F44912C553E4FF9012491222309F4DD
:1003000035C0992311F191509231F8F4E92FF0E0C2
:100310008827E257FE4F8F4F0C94000BBF01C3019B
:10032000A001B701BB01A501C601CC01D001D601D6
:10033000DA01DE01E401E801A501EC01F201F601B8
:10034000809180008F7780938000E22FF0E0EE0FA5
:10035000FF1FE657FE4FA591B4918FB7F894EC912B
:10036000611148C040954E234C938FBF08958091F2
:1003700080008F7DE8CF80918000877FE4CF84B5B7
:100380008F7784BDE2CF84B58F7DFBCF8091B000A5
:100390008F778093B000D9CF8091B0008F7DF9CF57
:1003A000809190008F7780939000CFCF80919000C4
:1003B0008F7DF9CF80919000877FF5CF8091A0004D
:1003C0008F778093A000C1CF8091A0008F7DF9CF5F
:1003D0008091A000877FF5CF809120018F77809357
:1003E0002001B3CF809120018F7DF9CF8091200132
:1003F000877FF5CF4E2BB8CFCF93DF9390E0FC01F2
:10040000E651FE4F24918C559E4FFC018491882328
:10041000D1F090E0880F991FFC01E059FE4FA591A3
:10042000B491FC01E657FE4FC591D49161110EC005
:100430009FB7F8948C91E22FE0958E238C932881BE
:10044000E223E8839FBFDF91CF9108958FB7F8949F
:10045000EC91E22BEC938FBFF6CF3FB7F8948091ED
:100460005D0490915E04A0915F04B091600426B594
:10047000A89B05C02F3F19F00196A11DB11D3FBFDC
:10048000BA2FA92F982F8827BC01CD01620F711DAB
:10049000811D911D42E0660F771F881F991F4A95A5
:1004A000D1F70895CF92DF92EF92FF920E942D0232
:1004B0006B017C010E942D026C197D098E099F0938
:1004C000683E734081059105A8F3FF90EF90DF909F
:1004D000CF900895AF92BF92CF92DF92EF92FF92AA
:1004E0000F931F93CF93DF936C017B018B01040F5C
:1004F000151FEB015E01AE18BF08C017D10759F0F8
:100500006991D601ED91FC910190F081E02DC60139
:100510001995892B79F7C501DF91CF911F910F9123
:10052000FF90EF90DF90CF90BF90AF900895FC01C7
:10053000538D448D252F30E0842F90E0821B930B48
:10054000541710F0CF96089501970895FC01918DEE
:10055000828D981761F0A28DAE0FBF2FB11D5D96F1
:100560008C91928D9F5F9F73928F90E008958FEF93
:100570009FEF0895FC01918D828D981731F0828D47
:10058000E80FF11D858D90E008958FEF9FEF08959E
:10059000FC01918D228D892F90E0805C9F4F821B02
:1005A00091098F739927089581E694E00E94C8020B
:1005B00021E0892B09F420E0822F0895FC01A48D0D
:1005C000A80FB92FB11DA35ABF4F2C91848D90E075
:1005D00001968F739927848FA689B7892C93A08958
:1005E000B1898C91837080648C93938D848D9813E2
:1005F00006C00288F389E02D80818F7D8083089575
:10060000EF92FF920F931F93CF93DF93EC0181E062
:10061000888F9B8D8C8D98131AC0E889F989808109
:1006200085FF15C09FB7F894EE89FF896083E8893C
:10063000F98980818370806480839FBF81E090E02E
:10064000DF91CF911F910F91FF90EF900895F62EBB
:100650000B8D10E00F5F1F4F0F731127E02E8C8D55
:100660008E110CC00FB607FCFACFE889F98980819A
:1006700085FFF5CFCE010E94DE02F1CFEB8DEC0FAE
:10068000FD2FF11DE35AFF4FF0829FB7F8940B8FB7
:10069000EA89FB8980818062CFCFCF93DF93EC0121
:1006A000888D8823B9F0AA89BB89E889F9898C915A
:1006B00085FD03C0808186FD0DC00FB607FCF7CF16
:1006C0008C9185FFF2CF808185FFEDCFCE010E9416
:1006D000DE02E9CFDF91CF91089580E090E0892B91
:1006E00029F00E94D40281110E94000080E090E075
:1006F000892B49F080E090E0892B29F00E940000CE
:1007000081110E94000080E090E0892B49F080E098
:1007100090E0892B29F00E94000081110E940000C6
:1007200080E090E0892B49F080E090E0892B29F06F
:100730000E94000081110C9400000895FC0180814A
:100740009181009749F0FC012081318126173707FC
:1007500019F086819781F5CF0895CF93DF93EB0150
:10076000BC018EEF94E00E949E03009789F0DC01AB
:100770001496ED91FC91309759F080819181C817C2
:10078000D90750F081E0228133812C173D0708F012
:1007900080E0DF91CF91089581E0FBCFCF93DF938D
:1007A000EA010E949E03009739F0FC01D383C283C3
:1007B00081E0DF91CF91089580E0FBCF0F931F93ED
:1007C000CF93DF93182F062FCEEFD4E082E08887F7
:1007D00062E070E08E819F810E942D0CFC019F835E
:1007E0008E8310581083018383E08987DF91CF9136
:1007F0001F910F910895DF92EF92FF920F931F9335
:10080000CF93DF93D82E7B018A01BA016F5F7F4FB0
:10081000660F6093060570E08091040590910505D0
:100820000E942D0C909305058093040564E00097C9
:10083000A1F1FC01D0822091060522502183F3E032
:1008400081E395E7DF1202C081E49CE9D0E0C0E0DB
:10085000E80EF91E0C171D0751F1B7016C0F7D1F33
:100860008EEF94E00E949E030097B1F0FC0122817C
:1008700033812196CE01880F991FA0910405B09174
:100880000505A80FB91F3C93E0910405F0910505FB
:10089000E80FF91F2183DECF62E08D2DDF91CF912C
:1008A0001F910F91FF90EF90DF900C94DE0383E097
:1008B00080930705DF91CF911F910F91FF90EF90EB
:1008C000DF9008950F931F93CF93DF938C01EB017B
:1008D00088E090E00E94080BFC0111830083D38321
:1008E000C28315821482178216828091FE04909131
:1008F000FF04892B69F4F093FF04E093FE04F09366
:100900000105E0930005DF91CF911F910F910895AC
:10091000A0910005B09101051796FC93EE931697F0
:10092000EECF1F920F920FB60F9211242F933F9389
:100930008F939F93AF93BF938091590490915A04E2
:10094000A0915B04B0915C043091580423E0230F24
:100950002D3758F50196A11DB11D209358048093A1
:10096000590490935A04A0935B04B0935C04809163
:100970005D0490915E04A0915F04B09160040196C3
:10098000A11DB11D80935D0490935E04A0935F044C
:10099000B0936004BF91AF919F918F913F912F9140
:1009A0000F900FBE0F901F90189526E8230F029608
:1009B000A11DB11DD2CF1F920F920FB60F9211241D
:1009C0000BB60F922F933F934F935F936F937F9349
:1009D0008F939F93AF93BF93EF93FF9381E694E040
:1009E0000E94DE02FF91EF91BF91AF919F918F9195
:1009F0007F916F915F914F913F912F910F900BBE1F
:100A00000F900FBE0F901F9018951F920F920FB668
:100A10000F9211240BB60F922F938F939F93EF9306
:100A2000FF93E0917104F09172048081E09177046A
:100A3000F091780482FD1DC0908180917A048F5FCF
:100A40008F7320917B04821741F0E0917A04F0E0EB
:100A5000EF59FB4F958F80937A04FF91EF919F910F
:100A60008F912F910F900BBE0F900FBE0F901F9084
:100A700018958081F2CF109264041092630488EE7E
:100A800093E0A0E0B0E08093650490936604A093A7
:100A90006704B09368048AE394E0909362048093BF
:100AA000610485EC90E090936E0480936D0484EC77
:100AB00090E09093700480936F0480EC90E09093AA
:100AC00072048093710481EC90E09093740480939D
:100AD000730482EC90E0909376048093750486EC26
:100AE00090E0909378048093770410927A041092A7
:100AF0007B0410927C0410927D04109214051092D5
:100B000013051092160510921505109218051092F3
:100B1000170561E070E090E080E00E942D0C0097E6
:100B2000E9F0909314058093130510921605109226
:100B300015052091170530911805232B11F4FC01A0
:100B40001082109218051092170567E574E08091E5
:100B50001305909114050E94170D14C08091130580
:100B600090911405009711F00E94A40B10921405A7
:100B70001092130510921805109217051092160581
:100B8000109215051092FF041092FE0410920105B8
:100B900010920005109203051092020510920505AF
:100BA000109204051092060510920705109209058F
:100BB0001092080581E694E090930B0580930A0556
:100BC0008FEF9FEF90930D0580930C058AE0809343
:100BD0000E050895CF93DF9300D0CDB7DEB778949C
:100BE00084B5826084BD84B5816084BD85B5826032
:100BF00085BD85B5816085BD80916E0081608093E3
:100C00006E0010928100809181008260809381004B
:100C1000809181008160809381008091800081605B
:100C2000809380008091B10084608093B1008091B6
:100C3000B00081608093B0008091910082608093C9
:100C4000910080919100816080939100809190004B
:100C50008160809390008091A10082608093A100C8
:100C60008091A10081608093A1008091A0008160AB
:100C70008093A00080912101826080932101809166
:100C80002101816080932101809120018160809306
:100C9000200180917A00846080937A0080917A00AC
:100CA000826080937A0080917A00816080937A00DC
:100CB00080917A00806880937A001092C100E09160
:100CC0007104F091720482E08083E0916D04F091F0
:100CD0006E041082E0916F04F09170048FEC8083B9
:100CE00010927904E0917504F091760486E0808397
:100CF000E0917304F0917404808180618083E091BD
:100D00007304F0917404808188608083E09173049F
:100D1000F0917404808180688083E0917304F09185
:100D2000740480818F7D808380910C0590910D05E6
:100D300097FD08C061E00E94FC0160E080910C0515
:100D40000E94700186EB96E09093100580930F054A
:100D50008AEA9FE090931205809311058091020525
:100D6000909103050E94A40B80E190E00E94080B83
:100D70009093030580930205009721F068E474E0E6
:100D80000E94170D06E212E01B830A8306E312E0BD
:100D9000AA81BB818C911296BB83AA8361E00E94D9
:100DA000FC01EA81FB810E171F0791F706E112E0B3
:100DB0001B830A8306E212E0AA81BB818C91129602
:100DC000BB83AA8361E00E94FC01EA81FB810E17CC
:100DD0001F0791F706E012E01B830A8306E112E089
:100DE000AA81BB818C911296BB83AA8361E00E9489
:100DF000FC01EA81FB810E171F0791F760E089E192
:100E00000E94FC0160E083E00E94FC0160E084E05D
:100E10000E94FC0160E082E00E94FC0160E088E149
:100E20000E94FC0160E087E30E94FC0160E088E32F
:100E30000E94FC0160E089E30E94FC0160E08AE31B
:100E40000E94FC0101E010E01B830A8370E060E077
:100E50008A819B810E9462040A811B810F5F1F4F60
:100E60001B830A830930110589F709E010E01B8311
:100E70000A8370E060E08A819B810E9462040A819B
:100E80001B810F5F1F4F1B830A830131110589F7F7
:100E900060E07FEF81E190E00E94620470E060E03A
:100EA00082E190E00E94620461E08CE00E94FC011B
:100EB000412C512C320143941092060580910A0571
:100EC00090910B05DC01ED91FC910084F185E02D02
:100ED000199540910605242F30E028173907E4F4CE
:100EE00080910A0590910B05DC01ED91FC91008445
:100EF000F185E02D19958093060580910F0590915D
:100F0000100582309105D0F2880F991F880F991F24
:100F100005970197F1F7D2CF442309F444C3C901DF
:100F20000E94080B90930505809304051982909107
:100F3000060509810917A8F480910A0590910B050F
:100F4000DC01ED91FC910284F385E02D1995E0918F
:100F50000405F0910505E00FF11D80830F5F098303
:100F6000E6CFE0900405F0900505F701F081F983E4
:100F7000FF3F21F080910E05F8130DC36DEF690F4F
:100F800057010FEFA01AB00A2981209530E0F9012E
:100F9000EA5CFC4F8081482F40952A5C3D4FD90187
:100FA0005C91D501615080F0ED918E2F8427082F40
:100FB00010E0F801EA5CFC4F8081452F4827F801DA
:100FC000EA5CFD4F5081EECF8701090F111DC8016A
:100FD000F801329720810197DC018C91322F282F64
:100FE0004527542745272417350709F0D4C2F701B0
:100FF000D180028113811027012710272481358198
:101000003227232732273B832A83EFEFED0DE1318F
:1010100008F06DC2F0E08827EF5EF74F8F4F0C9419
:10102000000B40094009EE083209B4092208770A8A
:10103000770A770A770A770A770A770A770ACE0952
:101040004608400A0F5B13466A817B81C8010E94F3
:10105000AD03882329F063E086E00E94DE03CDC063
:101060004A815B81B8018EEF94E00E94CE0381112A
:1010700002C062E0F1CF82E08093070509810F3F53
:1010800009F0C7C081E080930705BBC08A819B81BE
:1010900001978B37910550F4D70116962C918A81D0
:1010A0009B81880F991F2817190619F063E080E1CA
:1010B000D4CFD12CC12C18014FEB241A43E6340AAB
:1010C000B1016C0D7D1D8EEF94E00E949E03892B73
:1010D00011F462E0ECCF5FEFC51AD50A8A819B81DB
:1010E0008C159D0569F7FB82EA82F12CE12CEA81DF
:1010F000FB81A7808085BA2CA82E41018E0C9F1CF5
:10110000B501C4010E94AD038111A5CFA501B401B1
:101110008EEF94E00E94CE03FFEFEF1AFF0A2A81C0
:101120003B812E5F3F4F3B832A83CE14DF04F9F6C9
:1011300080910405909105050E94A40B35E0309341
:10114000060585E090E00E94080BFC0190930505E0
:101150008093040564E0892B09F4A9CF80E18083A2
:10116000118302831382C48283E08093070509817F
:101170000F3F09F487CFE0900405F09005058091BA
:101180000C0590910D0597FD05C061E00E9470016E
:101190000E94520280910A0590910B05DC01ED91AD
:1011A000FC910190F081E02D60910E05199510E001
:1011B0006091060580910A0590910B05DC01ED9187
:1011C000FC91C080D180161708F093C1D701A10F00
:1011D000B11D6C91F60119951F5FEACF8A819B8141
:1011E00001978D37910518F063E083E036CF4A818F
:1011F0005B81B80183E00E94FB0319811F3F09F462
:1012000041CF80910705833009F4B5CF823009F0D2
:10121000C2C100910405109105051B830A838091CA
:101220000C0590910D0597FD05C061E00E947001CD
:101230000E94520210E080910A0590910B05DC019A
:10124000ED91FC9120910605121708F089C1AA8141
:10125000BB81A10FB11D0190F081E02D6C9119951A
:101260001F5FE9CF8A819B8101978D37910518F027
:1012700063E084E0F2CE4A815B81B80184E0BBCFB9
:101280008A819B81019763E0803D974008F06AC0A6
:101290008A819B8163E0969587956A95E1F72A811B
:1012A0003B8127703327232B09F056C08E5F809334
:1012B00006056091060570E0C7010E942D0C909311
:1012C00005058093040564E0009709F44BC0FC0118
:1012D000D0822091060522502183F1E061E070E088
:1012E000DF1611F061E177E2F12CE12C060F171FF8
:1012F000B8016E0D7F1D8EEF94E00E949E03009753
:1013000081F12E2D2770B301A20104C0440F551F97
:10131000661F771F2A95D2F7F70153E0F695E795F8
:101320005A95E1F732962091040530910505E20FB8
:10133000F31F2081DC0112968D919C9181159F4FA6
:1013400069F4422B4083EFEFEE1AFE0A2A813B81BB
:101350002E153F0569F608CF8D5FA9CF4095422332
:10136000F1CF62E08D2D79CE4A815B8141158FEFFF
:10137000580731F063E0452B79F450E040E002C0BB
:1013800040E05FEFB8016F5F7F4F8EEF94E00E9407
:10139000CE03811170CE62E085E05FCE8A819B81B1
:1013A00043E0969587954A95E1F72A813B8127701E
:1013B0003327232B09F001962A813B8121503109E3
:1013C000203B374008F05AC0F7012681281719063C
:1013D00009F054C0F12CE12C4801FFEF8F1A9F0A4D
:1013E0006401CE0CDF1CB6018EEF94E00E949E03D8
:1013F000892B09F440C0F70133E0F695E7953A955B
:10140000E1F7EA0DFB1D868190E02E2D277002C0CA
:10141000959587952A95E2F740E05FEF80FD02C041
:1014200050E040E0B6018EEF94E00E94CE032FEF33
:10143000E21AF20A4A815B814E155F0589F655E092
:101440005093060565E070E08091040590910505D4
:101450000E942D0CFC01909305058093040564E027
:10146000892B51F08FE08083118302838B818383EA
:101470009A81948379CE62E08FE0EFCD63E0FCCF78
:10148000A4E0A0930605A0910205B0910305109772
:1014900041F0FD0101900020E9F7EA1BED5FE093C8
:1014A00006056091060570E0C7010E942D0CFC0145
:1014B000909305058093040564E081E1309709F479
:1014C000CCCDB1E1B0838091060582508183128238
:1014D0000FEF03836091020570910305611571059B
:1014E00009F442CECF0104960E94170D3DCE61E073
:1014F00039CF40910E05409550E0DA01AA5CBC4F0F
:101500007C9170954A5C5D4FDA014C91A091040585
:10151000B0910505615068F02D91272730E0F90161
:10152000EA5CFC4F708174272A5C3D4FF9014081D1
:10153000F1CF042F672FF601199580910A0590913C
:101540000B05DC01ED91FC910190F081E02D602F05
:10155000199580910A0590910B05DC01ED91FC91A4
:101560000680F781E02D1995809111059091120563
:101570008230910538F0880F991F880F991F0597C1
:101580000197F1F780910C0590910D0597FD03C02F
:1015900060E00E94700180910405909105050E9411
:1015A000A40B1092060561E170E08EEF94E00E94BA
:1015B0009E030097A9F0FC018281938181159F4FC2
:1015C00079F460E08CE00E94700140E05FEF62E13E
:1015D00070E08EEF94E00E94CE030E946D036CCC0D
:1015E00061E08CE00E94700150E040E0F0CF80911B
:1015F000130590911405009711F00C94A40B089515
:10160000EE0FFF1F881F8BBF0790F691E02D1994F6
:101610000F931F93CF93DF938230910510F482E0F4
:1016200090E0E0911B05F0911C0530E020E0B0E077
:10163000A0E0309799F42115310509F44AC0281B20
:10164000390B24303105D8F58A819B8161157105EC
:1016500089F1FB0193838283FE0111C04081518196
:101660000281138148175907E0F04817590799F488
:10167000109761F012960C93129713961C93329662
:10168000CF01DF91CF911F910F91089500931B051A
:1016900010931C05F4CF2115310551F04217530763
:1016A00038F0A901DB019A01BD01DF01F801C1CFCA
:1016B000EF01F9CF90931C0580931B05CDCFFE0160
:1016C000E20FF31F819391932250310939832883CC
:1016D000D7CF2091190530911A05232B41F4209181
:1016E00002023091030230931A05209319052091CC
:1016F0000002309101022115310541F42DB73EB7AA
:101700004091040250910502241B350BE09119050C
:10171000F0911A05E217F307A0F42E1B3F0B2817D0
:10172000390778F0AC014E5F5F4F2417350748F05A
:101730004E0F5F1F50931A054093190581939193A3
:101740009FCFF0E0E0E09CCFCF93DF930097E9F0EC
:10175000FC01329713821282A0911B05B0911C05E7
:10176000ED0130E020E01097A1F420813181820F5B
:10177000931F2091190530911A052817390709F090
:1017800061C0F0931A05E0931905DF91CF91089598
:10179000EA01CE17DF07E8F54A815B819E0141151A
:1017A0005105B1F7E901FB83EA8349915991C40FCF
:1017B000D51FEC17FD0761F4808191810296840F9B
:1017C000951FE90199838883828193819B838A8312
:1017D000F0E0E0E012968D919C9113970097B9F597
:1017E0002D913C911197CD010296820F931F20916C
:1017F000190530911A052817390739F6309751F530
:1018000010921C0510921B05B0931A05A0931905A0
:10181000BCCFD383C28340815181840F951FC817E9
:10182000D90761F44E5F5F4F88819981480F591F36
:10183000518340838A819B81938382832115310563
:1018400009F0B0CFF0931C05E0931B059ECFFD017E
:10185000DC01C0CF13821282D7CF4F925F926F927A
:101860007F928F929F92AF92BF92CF92DF92EF9230
:10187000FF920F931F93CF93DF938C01009799F4FE
:10188000CB01DF91CF911F910F91FF90EF90DF90EF
:10189000CF90BF90AF909F908F907F906F905F9010
:1018A0004F900C94080BFC01E60FF71F9C0122508F
:1018B0003109E217F30708F4AEC0D901CD91DC91EC
:1018C0001197C617D70720F1C530D10578F0CE01A2
:1018D00004978617970750F0C61BD70B2297C19322
:1018E000D1936D937C93CF010E94A40BC801DF912B
:1018F000CF911F910F91FF90EF90DF90CF90BF900D
:10190000AF909F908F907F906F905F904F900895D1
:101910005B01AC1ABD0A4C018C0E9D1EA0911B05EB
:10192000B0911C05512C412CF12CE12C109731F574
:101930008091190590911A058815990509F05CC0E8
:101940004616570608F058C0809100029091010297
:10195000009741F48DB79EB7409104025091050263
:10196000841B950BE817F90708F055C0F0931A058A
:10197000E0931905F90171836083B8CF8D919C9133
:10198000119712966C90129713967C901397A81546
:10199000B90559F56C0142E0C40ED11CCA14DB0430
:1019A00020F1AC014A195B09DA011296159780F013
:1019B0006282738251834083D9016D937C93E114D9
:1019C000F10471F0D7011396FC93EE9312978ECF2A
:1019D00022968C0F9D1FF90191838083F301EFCF35
:1019E000F0931C05E0931B0581CF4816590608F4B7
:1019F0002C017D01D3019ACFCB010E94080B7C0101
:101A0000009749F0AE01B8010E940E0DC8010E9476
:101A1000A40B87016BCF10E000E068CFFB01DC0175
:101A200002C001900D9241505040D8F70895FB013B
:101A3000DC0101900D920020E1F7089511E0CCE364
:101A4000D1E000E006C0802FFE010E94000B21962D
:101A5000011DCD33D10780E00807A9F7F894FFCF27
:101A600000001D0580000500060007000B000C00AB
:101A70000D0017003200200022002400260028005C
:101A80002A002C002E00080009000A00160034006D
:101A90001A001C001E0000C0C101C30302C2C6061A
:101AA00007C705C5C404CC0C0DCD0FCFCE0E0ACA96
:101AB000CB0BC90908C8D81819D91BDBDA1A1EDEE6
:101AC000DF1FDD1D1CDC14D4D515D71716D6D21296
:101AD00013D311D1D010F03031F133F3F23236F6A6
:101AE000F737F53534F43CFCFD3DFF3F3EFEFA3A56
:101AF0003BFB39F9F83828E8E929EB2B2AEAEE2EE6
:101B00002FEF2DEDEC2CE42425E527E7E62622E255
:101B1000E323E12120E0A06061A163A3A26266A6A5
:101B2000A767A56564A46CACAD6DAF6F6EAEAA6A15
:101B30006BAB69A9A86878B8B979BB7B7ABABE7E65
:101B40007FBF7DBDBC7CB47475B577B7B67672B215
:101B5000B373B17170B050909151935352929656A5
:101B60005797559594549C5C5D9D5F9F9E5E5A9AD5
:101B70009B5B99595898884849894B8B8A4A4E8E65
:101B80008F4F8D4D4C8C44848545874746868242D5
:101B900043834181804000C1814001C0804101C038
:101BA000804100C1814001C0804100C1814000C12D
:101BB000814001C0804101C0804100C1814000C11D
:101BC000814001C0804100C1814001C0804101C00D
:101BD000804100C1814001C0804100C1814000C1FD
:101BE000814001C0804100C1814001C0804101C0ED
:101BF000804100C1814000C1814001C0804101C0DD
:101C0000804100C1814001C0804100C1814000C1CC
:101C1000814001C0804101C0804100C1814000C1BC
:101C2000814001C0804100C1814001C0804101C0AC
:101C3000804100C1814000C1814001C0804101C09C
:101C4000804100C1814001C0804100C1814000C18C
:101C5000814001C0804100C1814001C0804101C07C
:101C6000804100C1814001C0804100C1814000C16C
:101C7000814001C0804101C0804100C1814000C15C
:101C8000814001C0804100C1814001C0804101C04C
:101C9000804100C181400000000000036A029702F9
:101CA0004D03C802A602BA0256616C7665436F6E98
:081CB00074726F6C6C65720028
:00000001FF
