:100000000C94DF010C9410020C9410020C9410025A
:100010000C9410020C9410020C9410020C94100218
:100020000C9410020C9410020C9410020C94100208
:100030000C9410020C9410020C9410020C941002F8
:100040000C9410020C9410020C9410020C941002E8
:100050000C9410020C9410020C9410020C94D30611
:100060000C9410020C9447070C941D070C9410027A
:100070000C9410020C9410020C9410020C941002B8
:100080000C9410020C9410020C9410020C941002A8
:100090000C9410020C9410020C9410020C94100298
:1000A0000C9410020C9410020C9410020C94100288
:1000B0000C9410020C9410020C9410020C94100278
:1000C0000C9410020C9410020C9410020C94100268
:1000D0000C9410020C9410020C9410020C94100258
:1000E0000C9410020C94050D0C94780C0C944202A4
:1000F0000C9436020C94800C0C947D070C94ED0A41
:100100000C9449030C9470020C94630C0C94D20A66
:100110000C947D0C0C94EA0A0C944F020C94A10AE6
:100120000C9455020C943E020C94E70A0C944B027A
:100130000C94610B0C9463020C9499030C943002A0
:100140000C9471020C94590C0C946B020C945D028B
:100150000C9475020C9459020C9411040C946702CF
:100160000C94D9030C94E40A0C945E040C9485035B
:100170000C94700C0C946B0C0C9445020C94DB0AE0
:100180000C94AB090C949D090C94670B0C94600CB7
:100190000C94680C0C943A020C9476030C94750C35
:1001A00000407A10F35A00A0724E18090010A5D42E
:1001B000E80000E87648170000E40B54020000CA8B
:1001C0009A3B000000E1F5050000809698000000D1
:1001D00040420F000000A086010000001027000030
:1001E0000000E803000000006400000000000A00B6
:1001F000000000000100000000002C76D888DC67B9
:100200004F0823DFC1DFAE59E1B1B796E5E3E45310
:10021000C63AE651997696E8E6C28426EB898C9B2D
:1002200062ED407C6FFCEFBC9C9F40F2BAA56FA5CD
:10023000F490055A2AF75C936B6CF9676DC11BFC4F
:10024000E0E40D47FEF520E6B500D0ED902E03006A
:10025000943577050080841E080000204E0A0000B7
:1002600000C80C333333330F986E12831141EF8D76
:100270002114893BE65516CFFEE6DB18D1844B38B6
:100280001BF77C1D901DA4BBE424203284725E22E7
:100290008100C9F124ECA1E53D27000021002400E4
:1002A00027002A002D003000330001010000040166
:1002B00007010A0100002200250028002B002E0063
:1002C0003100340002010000050108010B010000AB
:1002D00020002300260029002C002F0032000001FE
:1002E00000000301060109010505050507050808C9
:1002F0000808020202020A0A0808040404040101B0
:1003000001010101010103030303030303030407C4
:1003100007070C0C0C0C0C0C0C0C0202020206065B
:100320000606060606060B0B0B0B0B0B0B0B01024E
:1003300010202008081020401020408002010201F7
:1003400008040201010204081020408080402010AF
:100350000804020180040201804020100804020108
:100360000804020101020408102040800102040870
:100370001020408000000A0B02090C0D0E08070334
:100380000401000000000000000000000000000068
:10039000000000000000000000000000000000005D
:1003A000121110000000000000000000000000001A
:1003B000000000000000000000007D07050D112472
:1003C0001FBECFEFD1E2DEBFCDBF00E00CBF26E005
:1003D000A6E2B5E001C01D92A932B207E1F715E02F
:1003E000A0E0B2E0E6EEF7E200E00BBF02C007904B
:1003F0000D92A632B107D9F711E0CEEDD1E000E0C1
:1004000006C021970109802FFE010E949E10CD3D5C
:10041000D10780E00807A9F70E94B8070C94E11300
:100420000C9400008150823108F05AC0E82FF0E0AF
:100430008827E25EFD4F8F4F0C949E103E024202D1
:10044000300236023A02700245024B024F02550258
:1004500059025D026302670270026B02710275024B
:10046000809180008F778093800008958091800034
:100470008F7DF9CF80918000877FF5CF84B58F770E
:1004800084BD089584B58F7DFBCF8091B0008F77B8
:100490008093B00008958091B0008F7DF9CF809156
:1004A00090008F77809390000895809190008F7DC9
:1004B000F9CF80919000877FF5CF8091A0008F7752
:1004C0008093A00008958091A0008F7DF9CF809146
:1004D000A000877FF5CF809120018F778093200146
:1004E0000895809120018F7DF9CF80912001877F31
:1004F000F5CFCF93DF93282F30E0F901EC58FC4F74
:100500008491F901E25DFC4FD491F901E851FD4F6E
:10051000C491CC23A1F081110E941202EC2FF0E0D3
:10052000EE0FFF1FE253FD4FA591B491EC91ED2327
:1005300081E090E009F480E0DF91CF91089580E0C0
:1005400090E0FACF1F93CF93DF93282F30E0F9018B
:10055000EC58FC4F8491F901E25DFC4FD491F90114
:10056000E851FD4FC491CC23A9F0162F81110E94B0
:100570001202EC2FF0E0EE0FFF1FEC54FD4FA5919F
:10058000B4918FB7F894EC91111108C0D095DE2387
:10059000DC938FBFDF91CF911F910895DE2BF8CFB1
:1005A000CF93DF9390E0FC01E25DFC4F24918851F2
:1005B0009D4FFC0184918823D1F090E0880F991F12
:1005C000FC01E656FD4FA591B491FC01EC54FD4FA2
:1005D000C591D49161110EC09FB7F8948C91E22F10
:1005E000E0958E238C932881E223E8839FBFDF91DF
:1005F000CF9108958FB7F894EC91E22BEC938FBFD5
:10060000F6CF90917B00977F90937B008653806418
:1006100080937C0080917A00806480937A0080913E
:100620007A0086FDFCCF8091780090917900089542
:100630003FB7F89480917E0590917F05A091800549
:10064000B091810526B5A89B05C02F3F19F00196F2
:10065000A11DB11D3FBFBA2FA92F982F8827BC011C
:10066000CD01620F711D811D911D42E0660F771F44
:10067000881F991F4A95D1F708952FB7F894609174
:100680007A0570917B0580917C0590917D052FBF47
:100690000895AF92BF92CF92DF92EF92FF920F93A5
:1006A0001F93CF93DF936C017B018B01040F151F08
:1006B000EB015E01AE18BF08C017D10759F0699170
:1006C000D601ED91FC910190F081E02DC6011995C4
:1006D000892B79F7C501DF91CF911F910F91FF9081
:1006E000EF90DF90CF90BF90AF900895FC01538DB5
:1006F000448D252F30E0842F90E0821B930B5417FC
:1007000010F0CF96089501970895FC01918D828D88
:10071000981761F0A28DAE0FBF2FB11D5D968C9121
:10072000928D9F5F9F73928F90E008958FEF9FEF60
:100730000895FC01918D828D981731F0828DE80F1C
:10074000F11D858D90E008958FEF9FEF08950F9331
:100750001F930E943D0360938A0570938B058093DD
:100760008C0590938D0582E895E00E94990397FF90
:100770001DC00E943D0300918A0510918B052091B8
:100780008C0530918D05601B710B820B930B0091D2
:10079000860510918705209188053091890560179D
:1007A000710782079307F8F28FEF9FEF1F910F9168
:1007B0000895FC01918D228D892F90E0805C9F4FE0
:1007C000821B91098F739927089582E895E00E9412
:1007D000D90321E0892B09F420E0822F0895FC0140
:1007E000A48DA80FB92FB11DA35ABF4F2C91848D92
:1007F00090E001968F739927848FA689B7892C93EF
:10080000A089B1898C91837080648C93938D848D41
:10081000981306C00288F389E02D80818F7D808344
:100820000895EF92FF920F931F93CF93DF93EC0104
:1008300081E0888F9B8D8C8D98131AC0E889F98987
:10084000808185FF15C09FB7F894EE89FF8960838A
:10085000E889F98980818370806480839FBF81E00B
:1008600090E0DF91CF911F910F91FF90EF9008954D
:10087000F62E0B8D10E00F5F1F4F0F731127E02E28
:100880008C8D8E110CC00FB607FCFACFE889F98960
:10089000808185FFF5CFCE010E94EF03F1CFEB8D74
:1008A000EC0FFD2FF11DE35AFF4FF0829FB7F89434
:1008B0000B8FEA89FB8980818062CFCFCF93DF9352
:1008C000EC01888D8823B9F0AA89BB89E889F98968
:1008D0008C9185FD03C0808186FD0DC00FB607FC9D
:1008E000F7CF8C9185FFF2CF808185FFEDCFCE01D0
:1008F0000E94EF03E9CFDF91CF91089580E090E06F
:10090000892B29F00E94E50381110E94000080E0FC
:1009100090E0892B49F080E090E0892B29F00E943B
:10092000000081110E94000080E090E0892B49F0D6
:1009300080E090E0892B29F00E94000081110E9444
:10094000000080E090E0892B49F080E090E0892B66
:1009500029F00E94000081110C9400000895BC0150
:10096000990F880B990B0E94D10F2EEA37E84BE4C0
:1009700053E40E94A61028E136E243E55FE30E94BB
:10098000131120E030E048EC52E40E9413110E9461
:100990008511CB010895FC0101900020E9F7319702
:1009A000AF01481B590BBC0182E895E00C94490348
:1009B000CF93DF93FC01448155816081718182E88E
:1009C00095E00E944903EC0187E592E00E94CB0488
:1009D0008C0F9D1FDF91CF910895CF93DF930E94DD
:1009E000CB04EC0187E592E00E94CB048C0F9D1FA5
:1009F000DF91CF9108950F931F93CF93DF93EC0175
:100A000088819981009759F02A813B812617370701
:100A100030F081E0DF91CF911F910F9108958B010C
:100A20006F5F7F4F0E94E512009759F0998388838A
:100A30001B830A832C813D81232B59F7FC011082F3
:100A4000E8CF80E0E7CFEF92FF920F931F93CF9311
:100A5000DF936115710541F480E0DF91CF911F9123
:100A60000F91FF90EF90089541155105B1F07B0172
:100A7000EC010C811D81040F151FB8010E94FB04BD
:100A8000882351F3288139818C819D81B701820FA0
:100A9000931F0E94DA131D830C8381E0DECFCF9376
:100AA000DF93EC0188819981009711F00E945C121C
:100AB000198218821D821C821B821A82DF91CF91BB
:100AC0000895CF93DF93EC01FB0144815581608150
:100AD00071810E942305811103C0CE010E944F0540
:100AE000CE01DF91CF910895EF92FF920F931F9364
:100AF000CF93DF93EC017B018A01BA010E94FB04D2
:100B000081110BC0CE010E944F05CE01DF91CF9124
:100B10001F910F91FF90EF9008951D830C83B701F3
:100B2000888199810E94DA13F0CFFC011182108232
:100B30001382128215821482FB0101900020E9F7D2
:100B40003197AF01461B570B0C947405FB010190C4
:100B50000020E9F73197AF01461B570B0C94740541
:100B60000F931F93CF93DF93CDB7DEB762970FB686
:100B7000F894DEBF0FBECDBF8C01CB01F80111820E
:100B8000108213821282158214824AE0BE016F5FC6
:100B90007F4F0E94270DBE016F5F7F4FC8010E94EB
:100BA000A60562960FB6F894DEBF0FBECDBFDF91EB
:100BB000CF911F910F910895FC0180819181009741
:100BC00011F00C945C120895CF92DF92EF92FF9295
:100BD0000F931F93CF93DF93CDB7DEB762970FB616
:100BE000F894DEBF0FBECDBF8C01D62EC72E7C0180
:100BF000EE0CFF1CF701EB5CFD4F80810E94A2020E
:100C0000F701EB5EFD4F6D2D80810E94A2026D2DDC
:100C10007C2DCE010D960E94B005B8016F5F7F4F0D
:100C2000CE0107960E94B0056AE572E0CE010196FA
:100C30000E949505BE01695F7F4FCE0101960E941B
:100C400061058C0148E050E066E672E00E942305F1
:100C5000811103C0C8010E944F05BE01635F7F4F31
:100C6000C8010E9461050E94D804CE0101960E942D
:100C7000DC05CE0107960E94DC05CE010D960E9490
:100C8000DC0562960FB6F894DEBF0FBECDBFDF91D4
:100C9000CF911F910F91FF90EF90DF90CF9008952B
:100CA000CF93DF9300D01F921F92CDB7DEB74436AB
:100CB000E1F12CF44236A1F081EB92E008C084E926
:100CC00092E0453621F08FE692E04E36A9F70F907C
:100CD0000F900F900F900F90DF91CF910C94ED0437
:100CE00070E060E090E080E00E94E40561E070E088
:100CF00081E090E00E94E40561E070E082E090E035
:100D00000E94E40561E070E083E090E00E94E40569
:100D100070E060E084E090E00F900F900F900F90F3
:100D20000F90DF91CF910C94E40570E060E081E0DA
:100D300090E00E94E40570E060E082E090E00E94B4
:100D4000E40570E060E0E0CFCF93DF9388EC92E0C1
:100D50000E94ED04E6E2F5E08DE2DF011D928A9546
:100D6000E9F710926F0510925305109255051092F5
:100D70005405D0E0C0E070E060E0CE010E94E405E0
:100D80002196C830D105B9F70E943D0360936605EE
:100D900070936705809368059093690510927805B4
:100DA000DF91CF9108951F920F920FB60F921124E9
:100DB0002F933F938F939F93AF93BF9380917A0527
:100DC00090917B05A0917C05B0917D0530917905CE
:100DD00023E0230F2D3758F50196A11DB11D209357
:100DE000790580937A0590937B05A0937C05B09359
:100DF0007D0580917E0590917F05A0918005B09141
:100E000081050196A11DB11D80937E0590937F05FC
:100E1000A0938005B0938105BF91AF919F918F9171
:100E20003F912F910F900FBE0F901F90189526E8BD
:100E3000230F0296A11DB11DD2CF1F920F920FB6A4
:100E40000F9211240BB60F922F933F934F935F9302
:100E50006F937F938F939F93AF93BF93EF93FF9382
:100E600082E895E00E94EF03FF91EF91BF91AF916F
:100E70009F918F917F916F915F914F913F912F91B2
:100E80000F900BBE0F900FBE0F901F9018951F92E2
:100E90000F920FB60F9211240BB60F922F938F93D0
:100EA0009F93EF93FF93E0919205F09193058081DA
:100EB000E0919805F091990582FD1DC09081809187
:100EC0009B058F5F8F7320919C05821741F0E09105
:100ED0009B05F0E0EE57FA4F958F80939B05FF91AD
:100EE000EF919F918F912F910F900BBE0F900FBE9E
:100EF0000F901F9018958081F2CFE2E8F5E0138201
:100F0000128288EE93E0A0E0B0E084839583A6830C
:100F1000B78389E492E09183808385EC90E09587A4
:100F2000848784EC90E09787868780EC90E0918BB3
:100F3000808B81EC90E0938B828B82EC90E0958BA0
:100F4000848B86EC90E0978B868B118E128E138E9D
:100F5000148EEFE1F6E01182108213821282158264
:100F6000148250E040E069E572E0CF010C94740512
:100F7000CF93DF93CDB7DEB7AD970FB6F894DEBF52
:100F80000FBECDBF789484B5826084BD84B5816086
:100F900084BD85B5826085BD85B5816085BD809144
:100FA0006E00816080936E001092810080918100BC
:100FB00082608093810080918100816080938100B4
:100FC000809180008160809380008091B100846076
:100FD0008093B1008091B00081608093B0008091D7
:100FE0009100826080939100809191008160809354
:100FF0009100809190008160809390008091A10089
:1010000082608093A1008091A10081608093A10003
:101010008091A00081608093A00080912101826076
:101020008093210180912101816080932101809131
:10103000200181608093200180917A0084608093F8
:101040007A0080917A00826080937A0080917A00A1
:10105000816080937A0080917A00806880937A0022
:101060001092C10005E412E055E3A52E52E0B52E22
:10107000F5018081F2E0AF0EB11C61E00E94D00268
:101080000A151B05A9F705E112E045E2E42E42E04E
:10109000F42EF80180810E5F1F4F61E00E94D002A4
:1010A000E016F106B1F725E2E22E22E0F22E35E35A
:1010B000C32E32E0D32E8701F80180810E5F1F4FCF
:1010C00061E00E94D002C016D106B1F760E089E16C
:1010D0000E94D00260E083E00E94D00260E084E0E1
:1010E0000E94D00260E082E00E94D00260E088E1CD
:1010F0000E94D00260E087E30E94D00260E088E3B3
:101100000E94D00260E089E30E94D00260E08AE39E
:101110000E94D002D12CC12C70E060E0C6010E9478
:10112000E405FFEFCF1ADF0A28E0C216D104A1F7C9
:10113000F7018081F2E0EF0EF11C60E00E94A20254
:101140000E151F05A9F787EE92E00E94ED040E949C
:101150003D036093660570936705809368059093DF
:1011600069050E943D036093740570937505809333
:10117000760590937705E0919205F091930582E0D2
:101180008083E0918E05F0918F051082E0919005AB
:10119000F09191058FEC808310929A05E09196056D
:1011A000F091970586E08083E0919405F091950594
:1011B000808180618083E0919405F0919505808124
:1011C00088608083E0919405F09195058081806826
:1011D0008083E0919405F091950580818F7D8083D7
:1011E00010927805992493940091780501112CC0F0
:1011F00082E895E00E94D90318161906ACF782E838
:1012000095E00E948503182F85EF92E00E94CB04A1
:10121000612F82E895E00E94110487E592E00E9428
:10122000CB04133509F7909278058BE093E00E9488
:10123000ED040E943D0360937405709375058093DF
:10124000760590937705D0CF0E943D03609370059B
:1012500070937105809372059093730561E085E04A
:101260000E94A202F09054056F2D86E00E94A20217
:1012700061E087E00E94A20284E30E947902682F65
:101280008BE00E94A20282E895E00E94D903892B9C
:1012900009F461C082E895E00E948503182F082EAA
:1012A000000C990B0E94C913892B09F42CC3EDEB98
:1012B000E10FE83308F024C30E2E000CFF0B882743
:1012C000EB59F64F8F4F0C949E10630C800C800CE2
:1012D000800C800C780C800C800CAB09800CD20A3E
:1012E000800C800C800C800CA10A800CE40A800C1D
:1012F0006B0C800C700C800C590C800C800C800CDA
:10130000800C800C800C800C800C680CED0A800C2A
:10131000800C800C7D0CAB09800CAB09670BDB0AE1
:10132000800C800C800C800C800CEA0AE70A800C90
:10133000610B800C750C9D09600C87EE92E00E9499
:10134000ED040E943D0360937405709375058093CE
:1013500076059093770580916F05882309F44BC03B
:1013600080910502853609F4D1C280917005909173
:101370007105A0917205B091730540916B05509174
:101380006C0560916D0570916E05841B950BA60B25
:10139000B70B4091060250910702609108027091CC
:1013A000090284179507A607B7072CF185E0E0E04E
:1013B000F2E0A5E0B2E001900D928A95E1F740914C
:1013C0000502509106026091070270910802809117
:1013D00009020E9450060E943D0360936B057093C2
:1013E0006C0580936D0590936E0590926A058FE170
:1013F00093E00E94ED048091700590917105A09199
:101400007205B09173054091660550916705609132
:10141000680570916905841B950BA60BB70B843F7B
:101420009140A105B1050CF4D2C287E30E940103EB
:101430000E94AF04BC01990F880B990B0E94D10F39
:1014400060935605709357058093580590935905FE
:1014500088E30E9401030E94AF04BC01990F880B2E
:10146000990B0E94D10F60935A0570935B0580938E
:101470005C0590935D0589E30E9401030E94AF041F
:10148000BC01990F880B990B0E94D10F60935E05E8
:1014900070935F0580936005909361058AE30E94D5
:1014A00001030E94AF04BC01990F880B990B0E94A5
:1014B000D10F6093620570936305809364059093E8
:1014C000650560E275E0CE0188960E94950586E587
:1014D000E82E85E0F82E86E6E81685E0F80609F4A1
:1014E00031C2F70161917191819191917F011BA2AC
:1014F0001AA21DA21CA21FA21EA28E010F5F1F4FC7
:1015000022E044E00E94090D009709F416C2BC01D4
:10151000CE0182960E94A6054EA15FA16AA17BA181
:10152000CE0188960E942305CE0182960E94DC059A
:1015300041E050E069E073E0CE0188960E94230507
:10154000CACF8FE393E0FF2039F1809153058823C0
:1015500031F190926F050E943D0360936B0570938B
:101560006C0580936D0590936E0585E0E0E0F2E0F8
:10157000A5E0B2E001900D928A95E1F74091050255
:101580005091060260910702709108028091090251
:101590000E9450068FE193E00E94ED04DCCE86E2CB
:1015A00093E0FACF8CE793E0F110F6CF90925405D8
:1015B0008DE593E0F1CF8FEB93E0FF2069F310927C
:1015C00054058EE993E0E8CF90925505C4CE109271
:1015D0005505C1CE0E94A406BECE83EE93E00E94C4
:1015E000ED0489E30E9401030E94AF04BC01990F3E
:1015F000880B990B0E94D10F2DEC3CEC4CEC5DE379
:101600000E94BB1118160CF05FC070E060E090E023
:1016100080E00E94E40570E060E081E090E00E94DC
:10162000E40561E070E082E090E00E94E40570E093
:1016300060E083E090E00E94E40561E070E084E017
:1016400090E00E94E40589E30E9401030E94AF0438
:10165000BC01990F880B990B0E94D10F2DEC3CEC2B
:101660004CEC5DE30E94BB1118162CF50E94180388
:101670006B017C0192E3492E512C612C712C0E944C
:1016800018036C197D098E099F09683E7340810516
:101690009105A8F321E0421A51086108710888EE0B
:1016A000C80E83E0D81EE11CF11C411451046104F2
:1016B000710429F7C8CF70E060E084E090E00E94F8
:1016C000E40570E060E009C18EEF93E065CF82E849
:1016D00095E00E94D903181619060CF0E2C082E8C2
:1016E00095E00E9485038F3F09F45CC0823639F093
:1016F0009CE9980F923018F08E3609F05EC0809306
:1017000000020E94A703FC0197FD61C08D32910584
:1017100021F0C0970A9708F053C0C12CD12C760154
:1017200010E0E130F105D9F0ED32F10509F44DC0DA
:10173000CF01C0970A9798F4AAE0B0E0A7019601FC
:101740000E9484106F01FF0FEE08FF08C60ED71E1F
:10175000E81EF91EF0E3CF1AD108E108F10882E88B
:1017600095E00E9485030E94A703FC01C0970A9799
:10177000C0F2E130F105A9F2112341F0F094E094B8
:10178000D094C094C11CD11CE11CF11CC114D10423
:1017900011F582E895E00E949903C097E1F082E597
:1017A00094E002C080E294E00E94ED048AEC94E0B0
:1017B0000E94ED0410925305CECD8BE394E0F4CF5C
:1017C00082E895E00E9485039CCF102FC8CFC12CE2
:1017D000D12C7601DBCFB601DD0C880B990B609321
:1017E000010270930202809303029093040219A6EF
:1017F00018A61BA61AA61DA61CA62AE0AE014F5FBE
:101800005F4F0E94320DBE016F5F7F4FCE01889601
:101810000E94A605809100021BA21AA21DA21CA272
:101820001FA21EA289831A82BE016F5F7F4FCE0165
:1018300082960E94A60566E774E0CE0101960E949A
:101840009505BE016E5D7F4FCE0101960E94610538
:101850008C014DE050E06DE874E00E942305811199
:1018600003C0C8010E944F05BE01685D7F4FC801DB
:101870000E9461050E94D804CE0101960E94DC05F9
:10188000CE0182960E94DC05CE0188960E94DC057E
:1018900080916A05811108C082EC94E00E94CB041B
:1018A0005ACD8BE994E080CF10926A05909253054F
:1018B00052CD61E070E084E090E00E94E4054BCD01
:1018C00070E060E0F8CF61E070E081E090E0F5CF9B
:1018D00070E060E0FACF61E070E082E090E0EDCF90
:1018E00061E070E083E090E0E8CF70E060E0FACF84
:1018F00061E070E090E080E0E0CF70E060E0FACF7F
:1019000085EE94E049CE88EF94E046CE10926F05C4
:1019100085E0E0E1F2E0A5E0B2E001900D928A9569
:10192000E1F785E0E0E1F2E0A0E0B2E001900D92A5
:101930008A95E1F789E195E05CCDCE0182960E941F
:101940004F05EACD05E312E00A151B0501F1F80188
:1019500080810E5F1F4F0E947902BC01CE0101966B
:101960000E94B0054D815E8169817A81CE018896A1
:101970000E942305CE0101960E94DC0541E050E063
:1019800069E073E0CE0188960E942305DDCF41E037
:1019900050E063E275E0CE0188960E942305CE01F7
:1019A00088960E94D804CE0188960E94DC0580911A
:1019B000700590917105A0917205B09173058093A7
:1019C000660590936705A0936805B09369058091BB
:1019D000700590917105A0917205B09173054091C9
:1019E0007405509175056091760570917705841B9B
:1019F000950BA60BB70B88389341A105B10514F0E0
:101A00000E94A4060E947E04EFCB8FE196E00C9426
:101A1000DC05EF920F931F93CF93DF93E80134E03F
:101A200047FD34E1042E000C550B57FF03C05195C0
:101A300041955109E32E022F242FAE010E946E0D15
:101A4000CE01DF91CF911F910F91EF900895BB27A9
:101A50004A3031F4992322F4BDE2909581959F4F4D
:101A60000C94550DBB27FA01A62F6217710581054D
:101A70009105330B30FB66F0AA27660F771F881F8E
:101A8000991FAA1FA21710F0A21B63953850A9F73F
:101A9000A05DAA3308F0A95DA19336F7B111B19307
:101AA0001082CA010C94BF0FBB27FB015527AA2740
:101AB000880F991FAA1FA41710F0A41B83955051DB
:101AC000B9F7A05DAA3308F0A95DA193009779F753
:101AD000B111B1931192CB010C94BF0F8F929F92D1
:101AE000AF92BF92CF92DF92EF92FF920F931F932C
:101AF000CF93DF9300D000D000D0CDB7DEB76A011E
:101B0000F22EB02E102FFBE3AF2EA01608F41BE32D
:101B10001F5F012F27E0AE014F5F5F4F0E94E70E6E
:101B2000BC018981982F9970913009F44EC09BE2D5
:101B3000E1FC04C09E2D9170E0FC49C05E2D507107
:101B4000E82FE87083FF55C084E0911101C083E065
:101B5000EF2DE81B8F1508F0E0E0D6018E2F20E274
:101B60005523C9F1992329F0D6019C93C60101960A
:101B70006C0196012D5F3F4FE2FE33C08EE4D6012B
:101B80008C9391E411969C93119712968C93D901A2
:101B90008E2F90E281112AC0E20FF32FF11D1082E7
:101BA0008EEF9FEF29960FB6F894DEBF0FBECDBF24
:101BB000DF91CF911F910F91FF90EF90DF90CF9029
:101BC000BF90AF909F908F9008959DE2B7CF90E225
:101BD000B5CF2D9381508111FCCFCE0ED11CE0E00A
:101BE000C1CF8EE6D6018C9391E6CCCF9D938150E8
:101BF000D1CF482F447082FF3DC084E0911101C0D5
:101C000083E08F1510F4EF2DE81BD6018E2F20E214
:101C1000552309F1992329F0D6019C93C601019619
:101C20006C0196012D5F3F4FE2FE1BC089E4D60197
:101C30008C938EE411968C93119786E412968C9374
:101C4000D9018E2F90E2882309F4A6CF9D9381506D
:101C5000FACF2D9381508111FCCFCE0ED11CE0E044
:101C6000D9CF89E6D6018C938EE611968C93119785
:101C700086E6E4CF9B0177FF02C030E020E0A1E0E0
:101C8000B0E0911102C0B0E0A0E0F9013196AE0FD2
:101C9000BF1F8B2C912CBB2009F461C05401EFEFC6
:101CA000AE1ABE0AAA0DBB1DFA161B0619F014F0D7
:101CB0004F2D4A1B511188C0E3FC59C07601A42F57
:101CC000B0E2A1114FC0C40ED11C992309F45BC02E
:101CD00040E0D6011196F60190836D01552309F479
:101CE00048C0012F060F9A81582F507184FF03C0FE
:101CF000913309F4015010160CF047C0093008F078
:101D000008E0EEE2FE2E5B01A01AB1088501919475
:101D1000819491082F3F320729F4D601FC92F601F5
:101D200031966F016217730794F1021713077CF560
:101D3000DB01A21BB30BAA24A394B12CAC0EBD1ED5
:101D4000AA0DBB1D11968C9121503109D601119617
:101D500028153905F4F0F60180836D01DBCFB12C35
:101D6000A12CA0CFF701B1937F01A150AACF91116F
:101D7000B0CFD601942F50E302C05D9391509111E2
:101D8000FCCFC40ED11C40E0ACCF01E0BACF80E361
:101D9000DBCF6217730731F4963388F4953311F46F
:101DA000552369F0F6018083FD01842F90E28111B3
:101DB00008C0A40FB11D1C9290E080E0F3CE81E337
:101DC000F1CF91938150F3CF911183CF8ACF2830F7
:101DD00008F027E03327DA01990F311D87FD916064
:101DE00000966105710539F432602E5F3D9330E352
:101DF0002A95E1F708959F3F30F08038710561051D
:101E000009F03C5F3C5F3D93913008F08068911D84
:101E1000DF93CF931F930F93FF92EF92192F987F29
:101E20009695E92F96959695E90FFF27E650FE4F78
:101E300099273327EE24FF24A701E7010590089492
:101E4000079428F4360FE71EF81E491F511D660F30
:101E5000771F881F991F0694A1F70590079428F40F
:101E6000E70EF81E491F561FC11D770F881F991FC7
:101E7000661F0694A1F70590079428F4F80E491FF1
:101E8000561FC71FD11D880F991F661F771F069405
:101E9000A1F70590079420F4490F561FC71FD81FBC
:101EA000990F661F771F881F0694A9F784911095D4
:101EB000177041F0D695C79557954795F794E794D5
:101EC0001A95C1F7E0EAF1E0689415901591359103
:101ED0006591959105907FE27395E118F10A430BA6
:101EE000560BC90BD009C0F7E10CF11E431F561F5A
:101EF000C91FD01D7EF4703311F48A95E6CFE894A3
:101F0000015030F0080F0AF40027021708F4202FC0
:101F10002395022F7A3328F079E37D932A95E9F708
:101F200010C07D932A9589F6069497956795379505
:101F300017951794E118F10A430B560BC90BD009FA
:101F400098F023957E9173957A3308F070E37C9333
:101F50002013B8F77E9170617D9330F0839571E323
:101F60007D9370E32A95E1F71124EF90FF900F9194
:101F70001F91CF91DF91992787FD90950895DC01FE
:101F8000FC01672F71917723E1F7329704C07C91B0
:101F90006D9370836291AE17BF07C8F30895E894FC
:101FA00009C097FB3EF490958095709561957F4FA1
:101FB0008F4F9F4F9923A9F0F92F96E9BB2793954F
:101FC000F695879577956795B795F111F8CFFAF45F
:101FD000BB0F11F460FF1BC06F5F7F4F8F4F9F4F90
:101FE00016C0882311F096E911C0772321F09EE8EE
:101FF000872F762F05C0662371F096E8862F70E054
:1020000060E02AF09A95660F771F881FDAF7880F2D
:102010009695879597F90895990F0008550FAA0B83
:10202000E0E8FEEF16161706E807F907C0F01216EB
:102030001306E407F50798F0621B730B840B950BEE
:1020400039F40A2661F0232B242B252B21F4089543
:102050000A2609F4A140A6958FEF811D811D0895E0
:1020600099278827089597F99F6780E870E060E0D6
:1020700008959FEF80EC089500240A941616170621
:1020800018060906089500240A9412161306140669
:1020900005060895092E0394000C11F4882352F0CC
:1020A000BB0F40F4BF2B11F460FF04C06F5F7F4F84
:1020B0008F4F9F4F089557FD9058440F551F59F06B
:1020C0005F3F71F04795880F97FB991F61F09F3F25
:1020D00079F087950895121613061406551FF2CF4E
:1020E0004695F1DF08C0161617061806991FF1CF9E
:1020F00086957105610508940895E894BB276627C5
:102100007727CB0197F908950E948F10A59F900D16
:10211000B49F900DA49F800D911D11240895A29F3E
:10212000B001B39FC001A39F700D811D1124911DAB
:10213000B29F700D811D1124911D0895EE0FFF1F98
:10214000881F8BBF0790F691E02D19945058BB273C
:10215000AA270E94BE100C944A100E943C1038F02E
:102160000E94431020F039F49F3F19F426F40C9498
:1021700039100EF4E095E7FB0C943310E92F0E9420
:102180005B1058F3BA17620773078407950720F0AE
:1021900079F4A6F50C947D100EF4E0950B2EBA2F71
:1021A000A02D0B01B90190010C01CA01A00111245D
:1021B000FF27591B99F0593F50F4503E68F11A1609
:1021C000F040A22F232F342F4427585FF3CF46959A
:1021D00037952795A795F0405395C9F77EF41F16BC
:1021E000BA0B620B730B840BBAF09150A1F0FF0F86
:1021F000BB1F661F771F881FC2F70EC0BA0F621F72
:10220000731F841F48F4879577956795B795F79561
:102210009E3F08F0B0CF9395880F08F09927EE0FF6
:102220009795879508950E9427110C944A100E9453
:10223000431058F00E943C1040F029F45F3F29F011
:102240000C94331051110C947E100C9439100E9490
:102250005B1068F39923B1F3552391F3951B550B4C
:10226000BB27AA2762177307840738F09F5F5F4F69
:10227000220F331F441FAA1FA9F335D00E2E3AF0A8
:10228000E0E832D091505040E695001CCAF72BD0C0
:10229000FE2F29D0660F771F881FBB1F2617370711
:1022A0004807AB07B0E809F0BB0B802DBF01FF2743
:1022B00093585F4F3AF09E3F510578F00C943310DD
:1022C0000C947E105F3FE4F3983ED4F386957795A7
:1022D0006795B795F7959F5FC9F7880F911D9695FC
:1022E000879597F90895E1E0660F771F881FBB1F58
:1022F000621773078407BA0720F0621B730B840B05
:10230000BA0BEE1F88F7E09508950E948C1168942F
:10231000B1110C947E1008950E94631088F09F57AD
:1023200098F0B92F9927B751B0F0E1F0660F771FF9
:10233000881F991F1AF0BA95C9F714C0B13091F0EF
:102340000E947D10B1E008950C947D10672F782FC6
:102350008827B85F39F0B93FCCF3869577956795B4
:10236000B395D9F73EF490958095709561957F4F20
:102370008F4F9F4F08950E940C1008F48FEF08951F
:102380000F931F93CF93DF938230910510F482E077
:1023900090E0E0912706F091280630E020E0B0E0E0
:1023A000A0E0309799F42115310509F44AC0281BA3
:1023B000390B24303105D8F58A819B81611571056F
:1023C00089F1FB0193838283FE0111C04081518119
:1023D0000281138148175907E0F04817590799F40B
:1023E000109761F012960C93129713961C933296E5
:1023F000CF01DF91CF911F910F9108950093270690
:1024000010932806F4CF2115310551F042175307D8
:1024100038F0A901DB019A01BD01DF01F801C1CF4C
:10242000EF01F9CF9093280680932706CDCFFE01C8
:10243000E20FF31F8193919322503109398328834E
:10244000D7CF2091250630912606232B41F42091E9
:102450000C0230910D023093260620932506209120
:102460000A0230910B022115310541F42DB73EB718
:1024700040910E0250910F02241B350BE09125066E
:10248000F0912606E217F307A0F42E1B3F0B281746
:10249000390778F0AC014E5F5F4F2417350748F0DD
:1024A0004E0F5F1F5093260640932506819391930C
:1024B0009FCFF0E0E0E09CCFCF93DF930097E9F06F
:1024C000FC01329713821282A0912706B091280650
:1024D000ED0130E020E01097A1F420813181820FDE
:1024E000931F20912506309126062817390709F0F9
:1024F00061C0F0932606E0932506DF91CF91089501
:10250000EA01CE17DF07E8F54A815B819E0141159C
:102510005105B1F7E901FB83EA8349915991C40F51
:10252000D51FEC17FD0761F4808191810296840F1D
:10253000951FE90199838883828193819B838A8394
:10254000F0E0E0E012968D919C9113970097B9F519
:102550002D913C911197CD010296820F931F2091EE
:102560002506309126062817390739F6309751F598
:102570001092280610922706B0932606A0932506EF
:10258000BCCFD383C28340815181840F951FC8176C
:10259000D90761F44E5F5F4F88819981480F591FB9
:1025A000518340838A819B819383828321153105E6
:1025B00009F0B0CFF0932806E09327069ECFFD01E7
:1025C000DC01C0CF13821282D7CF4F925F926F92FD
:1025D0007F928F929F92AF92BF92CF92DF92EF92B3
:1025E000FF920F931F93CF93DF938C01009799F481
:1025F000CB01DF91CF911F910F91FF90EF90DF9072
:10260000CF90BF90AF909F908F907F906F905F9092
:102610004F900C94C011FC01E60FF71F9C01225053
:102620003109E217F30708F4AEC0D901CD91DC916E
:102630001197C617D70720F1C530D10578F0CE0124
:1026400004978617970750F0C61BD70B2297C193A4
:10265000D1936D937C93CF010E945C12C801DF91EE
:10266000CF911F910F91FF90EF90DF90CF90BF908F
:10267000AF909F908F907F906F905F904F90089554
:102680005B01AC1ABD0A4C018C0E9D1EA091270661
:10269000B0912806512C412CF12CE12C109731F5EA
:1026A00080912506909126068815990509F05CC051
:1026B0004616570608F058C080910A0290910B0206
:1026C000009741F48DB79EB740910E0250910F02D2
:1026D000841B950BE817F90708F055C0F093260600
:1026E000E0932506F90171836083B8CF8D919C91A9
:1026F000119712966C90129713967C901397A815C9
:10270000B90559F56C0142E0C40ED11CCA14DB04B2
:1027100020F1AC014A195B09DA011296159780F095
:102720006282738251834083D9016D937C93E1145B
:10273000F10471F0D7011396FC93EE9312978ECFAC
:1027400022968C0F9D1FF90191838083F301EFCFB7
:10275000F0932806E093270681CF4816590608F41F
:102760002C017D01D3019ACFCB010E94C0117C01C5
:10277000009749F0AE01B8010E94D113C8010E9430
:102780005C1287016BCF10E000E068CF85FD0C94F0
:102790003010806291110C94301081568A51D8F714
:1027A0000895FB01DC0102C001900D9241505040A0
:1027B000D8F70895FB01DC0101900D920020E1F7AC
:1027C000089511E0CEEDD1E000E006C0802FFE01BB
:1027D0000E949E102196011DCF3DD10780E0080781
:0627E000A9F7F894FFCFF9
:1027E6006501000000650100000000002906800068
:1027F6006501000000200022002400260028002A8F
:10280600002C002E000500060007000B000C000D32
:102816000017003200080009000A00160034001AEA
:10282600001C001E00000000001104490376035E30
:1028360004D903850399030D0A004C4F473A2056E5
:10284600616C766520002073657420746F20004CDF
:102856004F473A20416C7420627562626C65207342
:10286600746570206E6F7420696D706C656D656E31
:10287600746564004C4F473A20456E64206F6620AD
:1028860073657175656E63652072656163686564FD
:10289600004C4F473A20556E6B6E6F776E207374FF
:1028A600657020747970650053797374656D205274
:1028B600657365742C20706C656173652072656341
:1028C6006F6E6E65637400484541525442454154EB
:1028D6005F41434B004C4F473A205265636569762A
:1028E600656420696E7075743A20004C4F473A2033
:1028F60053797374656D2073746172746564004EE8
:102906004557534551004C4F473A204E6F2073743C
:10291600657073206C6F6164656420796574004C22
:102926004F473A204175746F20636F6E74726F6CF7
:10293600206E6F7420656E61626C6564004C4F4753
:102946003A20537769746368696E6720746F204113
:1029560075746F20636F6E74726F6C004C4F473ADC
:1029660020416C726561647920696E204175746FCF
:1029760020636F6E74726F6C206D6F6465004C4FD0
:10298600473A20537769746368696E6720746F20CD
:102996004D616E75616C20636F6E74726F6C004C66
:1029A6004F473A20416C726561647920696E204D0B
:1029B600616E75616C20636F6E74726F6C206D6FE3
:1029C6006465004C4F473A204465707265737375B1
:1029D600726973696E672073797374656D004C4F05
:1029E600473A2053797374656D20616C7265616432
:1029F60079206465707265737375726973656400B6
:102A06004661696C656420746F2072656164206636
:102A1600726F6D2053657269616C004C4F473A20A6
:102A2600496E76616C696420737465702074797080
:102A360065004661696C656420746F20706172730D
:102A46006520696E74656765722066726F6D2053C6
:102A5600657269616C004C4F473A204C6F61646542
:102A6600642073746570207479706520002077691E
:102A76007468206C656E67746820004C4F473A2076
:102A8600457870656374656420696E7075742C2072
:102A9600627574206E6F6E65207265636569766512
:102AA600640057414954534551004552524F523ADA
:102AB600204661696C656420746F206C6F616420C8
:102AC60073746570004C4F473A20496E76616C69A5
:102AD6006420696E707574004C4F473A20496E76D3
:102AE600616C696420696E7075742C206E6F742039
:102AF60061206C657474657200454E4453455100FF
:062B060050200043000016
:00000001FF
