:100000000C944A010C947B010C947B010C947B01B1
:100010000C947B010C947B010C947B010C947B0170
:100020000C947B010C947B010C947B010C947B0160
:100030000C947B010C947B010C947B010C947B0150
:100040000C947B010C947B010C947B010C947B0140
:100050000C947B010C947B010C947B010C941D058A
:100060000C947B010C9491050C9467050C947B0116
:100070000C947B010C947B010C947B010C947B0110
:100080000C947B010C947B010C947B010C947B0100
:100090000C947B010C947B010C947B010C947B01F0
:1000A0000C947B010C947B010C947B010C947B01E0
:1000B0000C947B010C947B010C947B010C947B01D0
:1000C0000C947B010C947B010C947B010C947B01C0
:1000D0000C947B010C947B010C947B010C947B01B0
:1000E0000C947B010C94DB010C94AD010C94B601D3
:1000F0000C94F7090C94FD080C949B010C940803D4
:100100000C94A1010C94D2010C94D9080C94CC024B
:100110000C94C7050C94F9020C9462030C94A50985
:100120000C94C4010C94A9010C94B0010C94CE0160
:100130000C94320B0C94A5010C94FB0A0C94C00196
:100140000C94D6010C94AF030C94BA010C941C03CC
:100150000C94C8010C94880A0C94E0010C942A03B6
:100160000C94ED0C0C94E9090C94DC010C946E0ACF
:1001700000002100240027002A002D003000330059
:1001800001010000040107010A010000220025000E
:1001900028002B002E003100340002010000050170
:1001A00008010B01000020002300260029002C007C
:1001B0002F003200000100000301060109010505BE
:1001C0000505070508080808020202020A0A0808CD
:1001D00004040404010101010101010103030303FB
:1001E00003030303040707070C0C0C0C0C0C0C0C8A
:1001F0000202020206060606060606060B0B0B0B9B
:100200000B0B0B0B010210202008081020401020BF
:1002100040800201020108040201010204081020CA
:1002200040808040201008040201800402018040C8
:100230002010080402010804020101020408102031
:100240004080010204081020408000000A0B0209CF
:100250000C0D0E0807030401000000000000000060
:10026000000000000000000000000000000000008E
:10027000000000000000121110000000000000004B
:10028000000000000000000000000000000000006E
:10029000C705ED0C11241FBECFEFD1E2DEBFCDBFED
:1002A00000E00CBF25E0A4E9B4E001C01D92A23734
:1002B000B207E1F714E0A0E0B2E0E6ECFEE100E016
:1002C0000BBF02C007900D92A439B107D9F711E016
:1002D000C9E4D1E000E006C021970109802FFE01AA
:1002E0000E94330DC834D10780E00807A9F70E94A7
:1002F00076060C94510F0C9400008150823108F066
:100300005AC0E82FF0E08827E757FE4F8F4F0C9434
:10031000330DA901AD019B01A101A501DB01B001D4
:10032000B601BA01C001C401C801CE01D201DB018E
:10033000D601DC01E001809180008F7780938000FE
:100340000895809180008F7DF9CF80918000877F14
:10035000F5CF84B58F7784BD089584B58F7DFBCFAD
:100360008091B0008F778093B00008958091B000A5
:100370008F7DF9CF809190008F77809390000895C2
:10038000809190008F7DF9CF80919000877FF5CF8D
:100390008091A0008F778093A00008958091A000A5
:1003A0008F7DF9CF8091A000877FF5CF80912001CC
:1003B0008F77809320010895809120018F7DF9CF60
:1003C00080912001877FF5CFCF93DF93282F30E0F6
:1003D000F901E65BFD4F8491F901EC5FFD4FD4918B
:1003E000F901E254FE4FC491CC23A1F081110E9487
:1003F0007D01EC2FF0E0EE0FFF1FEC55FE4FA591B5
:10040000B491EC91ED2381E090E009F480E0DF917C
:10041000CF91089580E090E0FACF1F93CF93DF93C0
:10042000282F30E0F901E65BFD4F8491F901EC5F84
:10043000FD4FD491F901E254FE4FC491CC23A9F0B1
:10044000162F81110E947D01EC2FF0E0EE0FFF1FAF
:10045000E657FE4FA591B4918FB7F894EC91111126
:1004600008C0D095DE23DC938FBFDF91CF911F9121
:100470000895DE2BF8CFCF93DF9390E0FC01EC5F83
:10048000FD4F249182549E4FFC0184918823D1F02A
:1004900090E0880F991FFC01E059FE4FA591B4919F
:1004A000FC01E657FE4FC591D49161110EC09FB774
:1004B000F8948C91E22FE0958E238C932881E2238F
:1004C000E8839FBFDF91CF9108958FB7F894EC91A7
:1004D000E22BEC938FBFF6CF90917B00977F9093A8
:1004E0007B008653806480937C0080917A008064D6
:1004F00080937A0080917A0086FDFCCF809178000D
:100500009091790008953FB7F8948091B20490914A
:10051000B304A091B404B091B50426B5A89B05C05E
:100520002F3F19F00196A11DB11D3FBFBA2FA92F72
:10053000982F8827BC01CD01620F711D811D911D6F
:1005400042E0660F771F881F991F4A95D1F70895DB
:10055000CF92DF92EF92FF920E9483026B017C01A7
:100560000E9483026C197D098E099F09683E7340C1
:1005700081059105A8F3FF90EF90DF90CF9008954B
:100580002FB7F8946091AE047091AF048091B004DD
:100590009091B1042FBF0895AF92BF92CF92DF9296
:1005A000EF92FF920F931F93CF93DF936C017B0128
:1005B0008B01040F151FEB015E01AE18BF08C017B9
:1005C000D10759F06991D601ED91FC910190F0812C
:1005D000E02DC6011995892B79F7C501DF91CF91DF
:1005E0001F910F91FF90EF90DF90CF90BF90AF9051
:1005F0000895FC01538D448D252F30E0842F90E029
:10060000821B930B541710F0CF960895019708950D
:10061000FC01918D828D981761F0A28DAE0FBF2FD6
:10062000B11D5D968C91928D9F5F9F73928F90E02C
:1006300008958FEF9FEF0895FC01918D828D98179B
:1006400031F0828DE80FF11D858D90E008958FEFD8
:100650009FEF0895FC01918D228D892F90E0805CA1
:100660009F4F821B91098F739927089586EB94E021
:100670000E942A0321E0892B09F420E0822F0895AB
:10068000FC01A48DA80FB92FB11DA35ABF4F2C9107
:10069000848D90E001968F739927848FA689B789FE
:1006A0002C93A089B1898C91837080648C93938DF5
:1006B000848D981306C00288F389E02D80818F7D98
:1006C00080830895EF92FF920F931F93CF93DF9350
:1006D000EC0181E0888F9B8D8C8D98131AC0E8897E
:1006E000F989808185FF15C09FB7F894EE89FF894D
:1006F0006083E889F98980818370806480839FBFEB
:1007000081E090E0DF91CF911F910F91FF90EF90EA
:100710000895F62E0B8D10E00F5F1F4F0F731127FA
:10072000E02E8C8D8E110CC00FB607FCFACFE88935
:10073000F989808185FFF5CFCE010E944003F1CF7A
:10074000EB8DEC0FFD2FF11DE35AFF4FF0829FB7A9
:10075000F8940B8FEA89FB8980818062CFCFCF9399
:10076000DF93EC01888D8823B9F0AA89BB89E889D9
:10077000F9898C9185FD03C0808186FD0DC00FB67F
:1007800007FCF7CF8C9185FFF2CF808185FFEDCFFD
:10079000CE010E944003E9CFDF91CF91089580E020
:1007A00090E0892B29F00E94360381110E940000FD
:1007B00080E090E0892B49F080E090E0892B29F0DF
:1007C0000E94000081110E94000080E090E0892BCF
:1007D00049F080E090E0892B29F00E94000081110F
:1007E0000E94000080E090E0892B49F080E090E0DA
:1007F000892B29F00E94000081110C9400000895BB
:10080000FC0180819181009749F0FC0120813181B8
:100810002617370719F086819781F5CF0895CF9372
:10082000DF93EB01BC0183E595E00E940004009793
:1008300089F0DC011496ED91FC91309759F080819C
:100840009181C817D90750F081E0228133812C179C
:100850003D0708F080E0DF91CF91089581E0FBCF64
:100860000E940004009721F0FC0182819381089589
:1008700090E080E00895CF93DF93EA010E940004A6
:10088000009739F0FC01D383C28381E0DF91CF91DF
:10089000089580E0FBCF1F93CF93DF93162FEC01D9
:1008A000CC0FDD1FFE01E95DFD4F80810E940D022E
:1008B000C95EDD4F612F8881DF91CF911F910C942C
:1008C0000D020F931F93CF93DF93182F062FC3E5CD
:1008D000D5E082E0888762E070E08E819F810E948F
:1008E000600EFC019F838E8310581083018383E088
:1008F0008987DF91CF911F910F910895AF92BF9299
:10090000DF92EF92FF920F931F93CF93DF93D82E36
:100910007B018A01BA016F5F7F4F660F60935B05B1
:1009200070E08091590590915A050E94600E909355
:100930005A058093590564E00097B9F1FC01D08213
:1009400020915B0522502183F3E081E395E7DF12DC
:1009500002C081E49CE9D0E0C0E0E80EF91E0C176B
:100960001D0779F15701AC0EBD1EB50183E595E079
:100970000E940004892BC1F0B50183E595E00E9437
:10098000300421969E01220F331FA0915905B0918A
:100990005A05A20FB31F9C93E0915905F0915A0597
:1009A000E20FF31F8183DBCF62E08D2DDF91CF91CA
:1009B0001F910F91FF90EF90DF90BF90AF900C943C
:1009C000610483E080935C05DF91CF911F910F91CB
:1009D000FF90EF90DF90BF90AF9008950F931F931B
:1009E000CF93DF938C01EB0188E090E00E943B0DF8
:1009F000FC0111830083D383C28315821482178282
:100A000016828091530590915405892B69F4F093D7
:100A10005405E0935305F0935605E0935505DF9197
:100A2000CF911F910F910895A0915505B091560552
:100A30001796FC93EE931697EECF1F920F920FB678
:100A40000F9211242F933F938F939F93AF93BF9354
:100A50008091AE049091AF04A091B004B091B10424
:100A60003091AD0423E0230F2D3758F50196A11DD9
:100A7000B11D2093AD048093AE049093AF04A09376
:100A8000B004B093B1048091B2049091B304A091EA
:100A9000B404B091B5040196A11DB11D8093B204B8
:100AA0009093B304A093B404B093B504BF91AF91F5
:100AB0009F918F913F912F910F900FBE0F901F909C
:100AC000189526E8230F0296A11DB11DD2CF1F92C3
:100AD0000F920FB60F9211240BB60F922F933F93E4
:100AE0004F935F936F937F938F939F93AF93BF9336
:100AF000EF93FF9386EB94E00E944003FF91EF9108
:100B0000BF91AF919F918F917F916F915F914F9125
:100B10003F912F910F900BBE0F900FBE0F901F9023
:100B200018951F920F920FB60F9211240BB60F92C9
:100B30002F938F939F93EF93FF93E091C604F091CF
:100B4000C7048081E091CC04F091CD0482FD1DC0EA
:100B500090818091CF048F5F8F732091D004821792
:100B600041F0E091CF04F0E0EA54FB4F958F809381
:100B7000CF04FF91EF919F918F912F910F900BBE1A
:100B80000F900FBE0F901F9018958081F2CF10929A
:100B9000B9041092B80488EE93E0A0E0B0E080932E
:100BA000BA049093BB04A093BC04B093BD048BE53E
:100BB00094E09093B7048093B60485EC90E0909312
:100BC000C3048093C20484EC90E09093C5048093A6
:100BD000C40480EC90E09093C7048093C60481EC39
:100BE00090E09093C9048093C80482EC90E09093C5
:100BF000CB048093CA0486EC90E09093CD0480935C
:100C0000CC041092CF041092D0041092D104109210
:100C1000D204109269051092680510926B0510922B
:100C20006A0510926D0510926C0561E070E090E02D
:100C300080E00E94600E0097E9F090936905809330
:100C4000680510926B0510926A0520916C05309131
:100C50006D05232B11F4FC01108210926D0510928A
:100C60006C0562E974E080916805909169050E94C5
:100C70004A0F14C08091680590916905009711F0A2
:100C80000E94D70D109269051092680510926D05AB
:100C900010926C0510926B0510926A051092540523
:100CA0001092530510925605109255051092580552
:100CB0001092570510925A051092590510925B0533
:100CC00010925C0510925E0510925D0586EB94E033
:100CD0009093600580935F058FEF9FEF909362057F
:100CE000809361058AE0809363050895CF93DF9335
:100CF00000D0CDB7DEB7789484B5826084BD84B56A
:100D0000816084BD85B5826085BD85B5816085BD06
:100D100080916E00816080936E00109281008091BE
:100D20008100826080938100809181008160809346
:100D30008100809180008160809380008091B1006B
:100D400084608093B1008091B00081608093B00096
:100D500080919100826080939100809191008160E8
:100D600080939100809190008160809390008091A9
:100D7000A10082608093A1008091A1008160809396
:100D8000A1008091A00081608093A000809121014A
:100D900082608093210180912101816080932101F3
:100DA0008091200181608093200180917A0084608D
:100DB00080937A0080917A00826080937A0080919B
:100DC0007A00816080937A0080917A0080688093B5
:100DD0007A001092C100E091C604F091C70482E04D
:100DE0008083E091C204F091C3041082E091C404B6
:100DF000F091C5048FEC80831092CE04E091CA0478
:100E0000F091CB0486E08083E091C804F091C9049E
:100E1000808180618083E091C804F091C904808161
:100E200088608083E091C804F091C9048081806863
:100E30008083E091C804F091C90480818F7D808314
:100E4000809161059091620597FD08C061E00E9464
:100E50003B0260E0809161050E940D0286EB96E006
:100E600090936505809364058AEA9FE090936705F7
:100E70008093660580915705909158050E94D70D83
:100E800080E190E00E943B0D9093580580935705B8
:100E9000009721F069E674E00E944A0F07E212E031
:100EA0001B830A8307E312E0AA81BB818C9112960F
:100EB000BB83AA8361E00E943B02EA81FB810E179B
:100EC0001F0791F707E112E01B830A8307E212E094
:100ED000AA81BB818C911296BB83AA8361E00E9498
:100EE0003B02EA81FB810E171F0791F707E012E032
:100EF0001B830A8307E112E0AA81BB818C911296C1
:100F0000BB83AA8361E00E943B02EA81FB810E174A
:100F10001F0791F760E089E10E943B0260E083E0F7
:100F20000E943B0260E084E00E943B0260E082E0BD
:100F30000E943B0260E088E10E943B0260E087E3A0
:100F40000E943B0260E088E30E943B0260E089E38C
:100F50000E943B0260E08AE30E943B0207E514E046
:100F600027E434E03B832A83AA81BB818D919D9144
:100F7000BB83AA8370E060E001960E94EE04EA81E0
:100F8000FB810E171F0781F707E312E01B830A831B
:100F900007E412E0AA81BB818D919D91BB83AA8356
:100FA00070E060E001960E94EE04EA81FB810E177A
:100FB0001F0781F760E07FEF81E190E00E94EE047F
:100FC00070E060E082E190E00E94EE0470E060E09A
:100FD00083E190E00E94EE0470E060E081E395E739
:100FE0000E94EE0470E060E082E395E70E94EE0468
:100FF00070E060E083E395E70E94EE0470E060E05B
:1010000084E395E70E94EE0461E08CE00E943B02DD
:101010000E94C002412C512C3201439486EB94E093
:101020000E942A0361E0181619060CF060E08CE0BB
:101030000E940D0210925B0580915F059091600502
:10104000DC01ED91FC910084F185E02D1995409132
:101050005B05242F30E028173907E4F480915F0501
:1010600090916005DC01ED91FC910084F185E02D0B
:10107000199580935B058091640590916505823098
:101080009105D0F2880F991F880F991F0597019736
:10109000F1F7D2CF442309F441C3C9010E943B0DAB
:1010A00090935A0580935905198220915B05098117
:1010B0000217A8F480915F0590916005DC01ED9125
:1010C000FC910284F385E02D1995E0915905F0918A
:1010D0005A05E00FF11D80830F5F0983E6CFE09092
:1010E0005905F0905A05F701F081F983FF3F21F08F
:1010F00080916305F8130AC33DEF320F57010FEFDC
:10110000A01AB00A6981609570E0FB01E95BFC4FB1
:101110008081482F4095695B7D4FDB015C91F50133
:10112000315068F08191842790E0DC01A95BBC4FCD
:101130004C914527DC01A95BBD4F5C91F1CF2E0D91
:101140003F2D311DF90132979081319680814527DD
:10115000542745278417950709F0D8C2F701D18095
:10116000028113811027012710272481358132271E
:10117000232732273B832A83EFEFED0DE13108F07F
:1011800071C2F0E08827E853F74F8F4F0C94330D6E
:10119000F709F709A509E9096E0AD908320B320BDC
:1011A000320B320B320B320B320B320B880AFD083A
:1011B000FB0A0F5B13466A817B81C8010E940F0402
:1011C000882329F063E086E00E946104CDC04A8153
:1011D0005B81B80183E595E00E943B04811102C068
:1011E00062E0F1CF82E080935C0509810F3F09F056
:1011F000C7C081E080935C05BBC08A819B81019759
:101200008B37910550F4D70116962C918A819B81DA
:10121000880F991F2817190619F063E080E1D4CFD1
:10122000D12CC12C18014FEB241A43E6340AB60125
:10123000620D731D83E595E00E940004892B11F473
:1012400062E0ECCF5FEFC51AD50A8A819B818C15CD
:101250009D0569F7FB82EA82F12CE12CEA81FB8192
:10126000A7808085BA2CA82E41018E0C9F1CB50149
:10127000C4010E940F048111A5CFA501B40183E52B
:1012800095E00E943B04FFEFEF1AFF0A2A813B81A1
:101290002E5F3F4F3B832A83CE14DF04F9F6809103
:1012A000590590915A050E94D70D35E030935B05A2
:1012B00085E090E00E943B0DFC0190935A058093DD
:1012C000590564E0892B09F4A9CF80E1808311835B
:1012D00002831382C48283E080935C0509810F3FFF
:1012E00009F487CFE0905905F0905A058091610587
:1012F0009091620597FD05C061E00E940D020E9479
:10130000A80280915F0590916005DC01ED91FC9150
:101310000190F081E02D60916305199510E06091D6
:101320005B0580915F0590916005DC01ED91FC917A
:10133000C080D180161708F097C1D701A10FB11D49
:101340006C91F60119951F5FEACF8A819B81019705
:101350008D37910518F063E083E036CF4A815B81D9
:10136000B80183E00E947E0409810F3F09F441CF58
:1013700080915C05833009F4B5CF823009F0C6C195
:101380000091590510915A051B830A8380916105CC
:101390009091620597FD05C061E00E940D020E94D8
:1013A000A80210E080915F0590916005DC01ED914D
:1013B000FC9120915B05121708F08DC1AA81BB81B9
:1013C000A10FB11D0190F081E02D6C9119951F5F67
:1013D000E9CF8A819B8101978D37910518F063E0F1
:1013E00084E0F2CE4A815B81B80184E0BBCF8A8180
:1013F0009B81019763E0803D974008F06DC08A8132
:101400009B81B3E096958795BA95E1F72A813B8158
:1014100027703327232B09F059C08E5F80935B051B
:1014200060915B0570E0C7010E94600E90935A05C1
:101430008093590564E0009709F44EC0FC01D08206
:1014400020915B0522502183F1E061E070E0DF161E
:1014500011F061E177E2F12CE12C5801A60EB71EE4
:1014600085010E0D1F1DB80183E595E00E94000463
:10147000892B89F1B80183E595E00E9430042E2D77
:101480002770B301A20104C0440F551F661F771FC8
:101490002A95D2F7F701A3E0F695E795AA95E1F72B
:1014A00032962091590530915A05E20FF31F2081A1
:1014B00081159F4F69F4422B40831FEFE11AF10A17
:1014C0000A811B810E151F0559F605CF8D5FA6CF2A
:1014D00040954223F1CF62E08D2D76CE2A813B816B
:1014E00021154FEF340731F063E0232B79F450E0FE
:1014F00040E002C040E05FEFB8016F5F7F4F83E5DF
:1015000095E00E943B0481116DCE62E085E05CCEE7
:101510008A819B8173E0969587957A95E1F72A8178
:101520003B8127703327232B09F001962A813B81C9
:1015300021503109203B374008F05BC0D701169697
:101540002C912817190609F054C0F12CE12C480100
:10155000BFEF8B1A9B0A6401CE0CDF1CB60183E53A
:1015600095E00E940004892B09F440C0F70163E074
:10157000F695E7956A95E1F7EA0DFB1D868190E007
:101580002E2D277002C0959587952A95E2F740E0A9
:101590005FEF80FD02C050E040E0B60183E595E0DA
:1015A0000E943B04EFEFEE1AFE0A2A813B812E15C2
:1015B0003F0589F635E030935B0565E070E080918A
:1015C000590590915A050E94600EFC0190935A05AE
:1015D0008093590564E0892B51F08FE0808311835B
:1015E00002834B8143835A81548375CE62E08FE03E
:1015F000EBCD63E0FCCF84E080935B05A0915705C1
:10160000B0915805109741F0FD0101900020E9F7D5
:10161000EA1BED5FE0935B0560915B0570E0C7013D
:101620000E94600EFC0190935A058093590564E076
:1016300081E1309709F4C8CD91E1908380915B05F9
:10164000825081831282AFEFA3836091570570911E
:1016500058056115710509F43ECECF0104960E942C
:101660004A0F39CE61E038CF40916305409550E094
:10167000DA01A95BBC4F7C917095495B5D4FDA0143
:101680004C91A0915905B0915A05615068F02D9187
:10169000272730E0F901E95BFC4F70817427295B53
:1016A0003D4FF9014081F1CF042F672FF6011995C5
:1016B00080915F0590916005DC01ED91FC910190B6
:1016C000F081E02D602F199580915F059091600564
:1016D000DC01ED91FC910680F781E02D1995809158
:1016E0006605909167058230910538F0880F991F43
:1016F000880F991F05970197F1F7809161059091E7
:10170000620597FD03C060E00E940D0280915905BB
:1017100090915A050E94D70D10925B0561E170E02F
:1017200083E595E00E94300481159F4F09F05DC06C
:1017300082E00E94E4019B838A8384E00E94E401AA
:101740000A811B8123E0000F111F2A95E1F7880F02
:10175000991F880F991F082B192B1B830A8383E07D
:101760000E94E4018C0189E10E94E401000F111F35
:101770002A813B81822B932B082B192B012B21F5DE
:1017800070E060E081E090E00E944B0470E060E077
:1017900082E090E00E944B0470E060E090E080E026
:1017A0000E944B0470E060E083E090E00E944B04F4
:1017B00070E060E084E090E00E944B0481E0809360
:1017C00000020E94CF032ACC46E150E069E774E0B2
:1017D00086EB94E00E94CC0242E050E060E974E0C5
:1017E00086EB94E00E94CC02E9CF8091000288232E
:1017F00061F00E94C0026093A9047093AA048093D0
:10180000AB049093AC041092000263E170E083E5B6
:1018100095E00E94300421E081159F4F09F020E0FF
:101820008091A804821761F02093A8040E94C0024E
:101830006093A9047093AA048093AB049093AC04C2
:101840000E94C0020091A9041091AA042091AB0447
:101850003091AC04601B710B820B930B69387341A0
:1018600081059105ACF081E08093000240E05FEFDC
:1018700061E170E083E595E00E943B041092A804CA
:1018800050E040E063E170E083E595E00E943B04B6
:1018900007E414E01B821A82D8016D917D918D01BD
:1018A0006F5F7F4F83E595E00E94300461E070E058
:1018B00081159F4F11F070E060E08A819B810E944A
:1018C0004B04EA81FB813196FB83EA83359721F74C
:1018D0000E94C0020091A4041091A5042091A604C6
:1018E0003091A704601B710B820B930B653F714015
:1018F000810591050CF465CF0E94C0026093A40499
:101900007093A5048093A6049093A70487E30E9494
:101910006C026C01BC01990F880B990B0E94F80CAA
:101920006093940470939504809396049093970425
:1019300088E30E946C027C01BC01990F880B990B13
:101940000E94F80C609398047093990480939A0411
:1019500090939B0489E30E946C028C01BC01990F57
:10196000880B990B0E94F80C60939C0470939D0463
:1019700080939E0490939F048AE30E946C029B8351
:101980008A83BC01990F880B990B0E94F80C609315
:10199000A0047093A1048093A2049093A304A601D1
:1019A00061E375E783E595E00E943B04A70162E3EC
:1019B00075E783E595E00E943B04A80163E375E7C2
:1019C00083E595E00E943B044A815B8164E375E70F
:1019D00083E595E00E943B04F4CE809168059091E8
:1019E0006905009711F00C94D70D0895E89409C08B
:1019F00097FB3EF490958095709561957F4F8F4F42
:101A00009F4F9923A9F0F92F96E9BB279395F69557
:101A1000879577956795B795F111F8CFFAF4BB0FD5
:101A200011F460FF1BC06F5F7F4F8F4F9F4F16C039
:101A3000882311F096E911C0772321F09EE8872FC3
:101A4000762F05C0662371F096E8862F70E060E07F
:101A50002AF09A95660F771F881FDAF7880F9695F8
:101A6000879597F90895EE0FFF1F881F8BBF07908A
:101A7000F691E02D19940F931F93CF93DF9382304B
:101A8000910510F482E090E0E0917005F09171050D
:101A900030E020E0B0E0A0E0309799F42115310566
:101AA00009F44AC0281B390B24303105D8F58A8146
:101AB0009B816115710589F1FB0193838283FE018E
:101AC00011C0408151810281138148175907E0F00C
:101AD0004817590799F4109761F012960C931297D2
:101AE00013961C933296CF01DF91CF911F910F91E6
:101AF00008950093700510937105F4CF21153105F9
:101B000051F04217530738F0A901DB019A01BD01DA
:101B1000DF01F801C1CFEF01F9CF909371058093F8
:101B20007005CDCFFE01E20FF31F819391932250F8
:101B3000310939832883D7CF20916E0530916F0505
:101B4000232B41F4209103023091040230936F055E
:101B500020936E052091010230910202211531057A
:101B600041F42DB73EB74091050250910602241B67
:101B7000350BE0916E05F0916F05E217F307A0F4C5
:101B80002E1B3F0B2817390778F0AC014E5F5F4FD3
:101B90002417350748F04E0F5F1F50936F05409391
:101BA0006E05819391939FCFF0E0E0E09CCFCF93BF
:101BB000DF930097E9F0FC01329713821282A09123
:101BC0007005B0917105ED0130E020E01097A1F4AF
:101BD00020813181820F931F20916E0530916F0516
:101BE0002817390709F061C0F0936F05E0936E057F
:101BF000DF91CF910895EA01CE17DF07E8F54A811A
:101C00005B819E0141155105B1F7E901FB83EA8330
:101C100049915991C40FD51FEC17FD0761F48081DC
:101C200091810296840F951FE901998388838281AF
:101C300093819B838A83F0E0E0E012968D919C91E2
:101C400013970097B9F52D913C911197CD0102960C
:101C5000820F931F20916E0530916F052817390769
:101C600039F6309751F51092710510927005B093C6
:101C70006F05A0936E05BCCFD383C2834081518191
:101C8000840F951FC817D90761F44E5F5F4F888195
:101C90009981480F591F518340838A819B81938387
:101CA00082832115310509F0B0CFF0937105E093DF
:101CB00070059ECFFD01DC01C0CF13821282D7CF09
:101CC0004F925F926F927F928F929F92AF92BF924C
:101CD000CF92DF92EF92FF920F931F93CF93DF93F8
:101CE0008C01009799F4CB01DF91CF911F910F9157
:101CF000FF90EF90DF90CF90BF90AF909F908F902C
:101D00007F906F905F904F900C943B0DFC01E60F1D
:101D1000F71F9C0122503109E217F30708F4AEC007
:101D2000D901CD91DC911197C617D70720F1C530A5
:101D3000D10578F0CE0104978617970750F0C61B9F
:101D4000D70B2297C193D1936D937C93CF010E94BF
:101D5000D70DC801DF91CF911F910F91FF90EF90A8
:101D6000DF90CF90BF90AF909F908F907F906F90BB
:101D70005F904F9008955B01AC1ABD0A4C018C0E28
:101D80009D1EA0917005B0917105512C412CF12C34
:101D9000E12C109731F580916E0590916F058815B3
:101DA000990509F05CC04616570608F058C08091A6
:101DB000010290910202009741F48DB79EB74091C5
:101DC000050250910602841B950BE817F90708F0ED
:101DD00055C0F0936F05E0936E05F9017183608340
:101DE000B8CF8D919C91119712966C901297139683
:101DF0007C901397A815B90559F56C0142E0C40E03
:101E0000D11CCA14DB0420F1AC014A195B09DA01C8
:101E10001296159780F06282738251834083D901B4
:101E20006D937C93E114F10471F0D7011396FC9348
:101E3000EE9312978ECF22968C0F9D1FF9019183FE
:101E40008083F301EFCFF0937105E093700581CFAC
:101E50004816590608F42C017D01D3019ACFCB0115
:101E60000E943B0D7C01009749F0AE01B8010E9431
:101E7000410FC8010E94D70D87016BCF10E000E031
:101E800068CFFB01DC0102C001900D92415050402F
:101E9000D8F70895FB01DC0101900D920020E1F7D5
:101EA000089511E0C9E4D1E000E006C0802FFE01F2
:101EB0000E94330D2196011DCA34D10780E0080726
:061EC000A9F7F894FFCF22
:101EC600010000720580000500060007000B000CEB
:101ED600000D0017003200200022002400260028F2
:101EE600002A002C002E00080009000A0016003403
:101EF600001A001C001E00080009000A000B000C56
:101F0600000D000E000F0000C0C101C30302C2C6CF
:101F16000607C705C5C404CC0C0DCD0FCFCE0E0ADF
:101F2600CACB0BC90908C8D81819D91BDBDA1A1E7F
:101F3600DEDF1FDD1D1CDC14D4D515D71716D6D24F
:101F46001213D311D1D010F03031F133F3F232360F
:101F5600F6F737F53534F43CFCFD3DFF3F3EFEFA1F
:101F66003A3BFB39F9F83828E8E929EB2B2AEAEE5F
:101F76002E2FEF2DEDEC2CE42425E527E7E626228F
:101F8600E2E323E12120E0A06061A163A3A26266EF
:101F9600A6A767A56564A46CACAD6DAF6F6EAEAA5F
:101FA6006A6BAB69A9A86878B8B979BB7B7ABABEFF
:101FB6007E7FBF7DBDBC7CB47475B577B7B67672CF
:101FC600B2B373B17170B0509091519353529296CF
:101FD600565797559594549C5C5D9D5F9F9E5E5A9F
:101FE6009A9B5B99595898884849894B8B8A4A4EDF
:101FF6008E8F4F8D4D4C8C4484854587474686820F
:102006004243834181804000C1814001C08041013B
:10201600C0804100C1814001C0804100C1814000B3
:10202600C1814001C0804101C0804100C1814000A2
:10203600C1814001C0804100C1814001C080410191
:10204600C0804100C1814001C0804100C181400083
:10205600C1814001C0804100C1814001C080410171
:10206600C0804100C1814000C1814001C080410162
:10207600C0804100C1814001C0804100C181400053
:10208600C1814001C0804101C0804100C181400042
:10209600C1814001C0804100C1814001C080410131
:1020A600C0804100C1814000C1814001C080410122
:1020B600C0804100C1814001C0804100C181400013
:1020C600C1814001C0804100C1814001C080410101
:1020D600C0804100C1814001C0804100C1814000F3
:1020E600C1814001C0804101C0804100C1814000E2
:1020F600C1814001C0804100C1814001C0804101D1
:10210600C0804100C18140000001000200030004BC
:1021160000050006000700000000006203CC02F97B
:1021260002AF032A0308031C0356616C7665436FEE
:102136006E74726F6C6C6572004C4F473A20496E34
:1021460076616C69642054544C20696E7075740015
:042156000D0A00006E
:00000001FF
