:100000000C946E010C949F010C949F010C949F0121
:100010000C949F010C949F010C949F010C949F01E0
:100020000C949F010C949F010C949F010C949F01D0
:100030000C949F010C949F010C949F010C949F01C0
:100040000C949F010C949F010C949F010C949F01B0
:100050000C949F010C949F010C949F010C94840DAF
:100060000C949F010C94120E0C94E80D0C949F01BB
:100070000C949F010C949F010C949F010C949F0180
:100080000C949F010C949F010C949F010C949F0170
:100090000C949F010C949F010C949F010C949F0160
:1000A0000C949F010C949F010C949F010C949F0150
:1000B0000C949F010C949F010C949F010C949F0140
:1000C0000C949F010C949F010C949F010C949F0130
:1000D0000C949F010C949F010C949F010C949F0120
:1000E0000C949F010C94CF0C0C94440C0C940A02B9
:1000F0000C94B30C0C94F8010C9410020C94770D32
:100100000C94AF0C0C9463040C94970C0C94960410
:100110000C941B020C94EB0C0C94E0010C94160252
:100120000C94E40C0C94DD0C0C942A0C0C94C2037B
:100130000C94F2010C94A80C0C9488040C94040206
:100140000C947B050C9400040C94F90C0C94FE01A7
:100150000C943B0C0C94C6010C94C80C0C944A0CE7
:100160000C94FC0C0C942E0C0C94EC010C94AC0C28
:100170000C94190C0C94C10C0C94340C0C94D201FA
:100180000C94CC010C94DA010C943E0C0C94F20CFF
:100190000C944E0E0C94470C0C94370C0C94D60116
:1001A0000C9431050C94E6010C9474040C94BA0C74
:1001B0000C94C0010C94D60C0000210024002700F0
:1001C0002A002D0030003300010100000401070166
:1001D0000A0100002200250028002B002E0031001B
:1001E000340002010000050108010B01000020009D
:1001F0002300260029002C002F00320000010000FF
:100200000301060109010505050507050808080899
:10021000020202020A0A080804040404010101019E
:100220000101010103030303030303030407070799
:100230000C0C0C0C0C0C0C0C02020202060606063E
:10024000060606060B0B0B0B0B0B0B0B010210200B
:1002500020080810204010204080020102010804FC
:100260000201010204081020408080402010080490
:1002700002018004020180402010080402010804E9
:10028000020101020408102040800102040810202D
:10029000408000000A0B02090C0D0E080703040140
:1002A000000000000000000000000000000000004E
:1002B000000000000000000000000000000012111B
:1002C000100000000000000000000000000000001E
:1002D0000000000000000000770D4E0E11241FBE2C
:1002E000CFEFD1E2DEBFCDBF00E00CBF25E0A8E13B
:1002F000B4E001C01D92A331B207E1F714E0A0E021
:10030000B2E0E2E6F2E200E00BBF02C007900D921D
:10031000A831B107D9F711E0CDE6D1E000E006C081
:1003200021970109802FFE010E94F60ECC36D107DD
:1003300080E00807A9F70E94DF0D0C941F110C94B0
:10034000000008958150823108F075C0E82FF0E078
:100350008827E255FE4F8F4F0C94F60ED201D6013E
:10036000C001C601CC011B02DA01E001E601EC018B
:10037000F201F801FE0104021B020A021002160239
:10038000E0E8F0E080818F7780830895E0E8F0E096
:1003900080818F7D80830895E0E8F0E08081877F11
:1003A0008083089584B58F7784BD089584B58F7D4B
:1003B00084BD0895E0EBF0E080818F77808308951D
:1003C000E0EBF0E080818F7D80830895E0E9F0E04C
:1003D00080818F7780830895E0E9F0E080818F7DD0
:1003E00080830895E0E9F0E08081877F808308952D
:1003F000E0EAF0E080818F7780830895E0EAF0E022
:1004000080818F7D80830895E0EAF0E08081877F9E
:1004100080830895E0E2F1E080818F778083089502
:10042000E0E2F1E080818F7D80830895E0E2F1E0F9
:100430008081877F80830895CF93DF93282F30E0DA
:10044000F901EE56FD4F8491F901E45BFD4FD49123
:10045000F901EA5FFD4FC491CC23B1F081110EC0C8
:10046000EC2FF0E0EE0FFF1FE451FE4FA591B49189
:10047000EC91ED2331F490E080E008C00E94A201ED
:10048000EFCF81E090E002C090E080E0DF91CF917B
:1004900008951F93CF93DF93282F30E0F901EE5694
:1004A000FD4F8491F901E45BFD4F1491F901EA5F7E
:1004B000FD4FC491CC23A9F0D62F811116C0EC2F8B
:1004C000F0E0EE0FFF1FEE52FE4FA591B4918FB7F3
:1004D000F894D1110DC09C91E12FE095E923EC93A4
:1004E0008FBFDF91CF911F9108950E94A201E7CFA6
:1004F000EC91E12BEC93F4CFCF93DF9390E0FC01F0
:10050000E45BFD4F24918A5F9D4FFC018491882319
:1005100019F190E0880F991FFC01E854FE4FA59156
:10052000B491FC01EE52FE4FC591D491662349F07F
:100530006230A9F08FB7F894EC91E22BEC938FBF67
:100540000BC09FB7F8948C91E22FE0958E238C938B
:100550008881E823E8839FBFDF91CF9108959FB7FB
:10056000F8943C91822F809583238C93E881E22B31
:10057000E8839FBFF1CF863308F08653EBE7F0E0C6
:100580004081477F982F969596959695292F30E034
:10059000220F331F220F331F220F331F2870242BEB
:1005A00020838770806480937C00EAE7F0E080819C
:1005B0008064808380917A0086FDFCCF80917800F2
:1005C000909179000895789484B5826084BD84B553
:1005D000816084BD85B5826085BD85B5816085BD3E
:1005E000EEE6F0E0808181608083E1E8F0E0108257
:1005F000808182608083808181608083E0E8F0E098
:10060000808181608083E1EBF0E080818460808381
:10061000E0EBF0E0808181608083E1E9F0E08081BF
:1006200082608083808181608083E0E9F0E0808166
:1006300081608083E1EAF0E0808182608083808154
:1006400081608083E0EAF0E0808181608083E1E284
:10065000F1E0808182608083808181608083E0E23C
:10066000F1E0808181608083EAE7F0E0808184604E
:1006700080838081826080838081816080838081AB
:10068000806880831092C10008953FB7F8948091EC
:100690000B0590910C05A0910D05B0910E0526B5A6
:1006A000A89B05C02F3F19F00196A11DB11D3FBFAA
:1006B000BA2FA92F982F8827BC01CD01620F711D79
:1006C000811D911D660F771F881F991F660F771F69
:1006D000881F991F08958F929F92AF92BF92CF92D9
:1006E000DF92EF92FF926B017C010E9445034B0168
:1006F0005C011BC021E0C21AD108E108F10888EEB4
:10070000880E83E0981EA11CB11CC114D104E10421
:10071000F10459F00E944503681979098A099B0977
:10072000683E73408105910528F7C114D104E104A6
:10073000F10459F7FF90EF90DF90CF90BF90AF900A
:100740009F908F9008952FB7F8946091070570914E
:1007500008058091090590910A052FBF0895089515
:10076000FC01248135816217730738F480819181FF
:10077000009719F0860F971F08951092050585E0E0
:1007800095E0089508950F931F93CF93DF93EC01A5
:100790000E94A303688779878A879B87E881F9810C
:1007A0000284F385E02DCE0119959923ACF40E94C3
:1007B000A303088519852A853B85601B710B820B75
:1007C000930B0C811D812E813F8160177107820779
:1007D000930720F38FEF9FEFDF91CF911F910F9140
:1007E0000895DB0114964D915C9115976D917C9164
:1007F000DC01ED91FC910280F381E02D19950895C3
:10080000CF92DF92EF92FF920F931F93CF93DF93DC
:100810008C01DB01D0E0C0E07A0181E0E81AF10848
:10082000452BA1F0F80180819181FC01208131816B
:100830006D01FFEFCF1ADF0A6C91C801F90119951C
:10084000892B21F02196A701D601E6CFCE01DF91B9
:10085000CF911F910F91FF90EF90DF90CF9008956F
:10086000019709F008956F3F7F4FE1F7E8E6F4E064
:100870001382128288EE93E0A0E0B0E08483958337
:10088000A683B7838DE392E09183808385EC90E02B
:100890009587848784EC90E09787868780EC90E04A
:1008A000918B808B81EC90E0938B828B82EC90E03B
:1008B000958B848B86EC90E0978B868B118E128EB5
:1008C000138E148ECFCFFC01938D848D981720F456
:1008D000891B990B019708952FE330E0291B3109FB
:1008E000820F932F911D0895FC01918D828D981791
:1008F00061F0A28DAE0FBF2FB11D5D968C91928DD0
:100900009F5F9F73928F90E008958FEF9FEF089500
:10091000FC01918D828D981731F0828DE80FF11DC9
:10092000858D90E008958FEF9FEF0895FC01218D54
:1009300030E0205C3F4F828DA901481B5109CA015C
:100940008F739927089588E694E00E94960421E029
:10095000892B09F420E0822F0895CF92DF92EF9245
:10096000FF921F93CF93DF93EC016A017B01122F5B
:1009700060E079E08DE390E0A70196010E94D40E3B
:1009800021503109410951095695479537952795C9
:10099000E889F98982E08083C11481EED806E104F8
:1009A000F10421F0211580E1380798F0E889F989F0
:1009B000108260E874E88EE190E0A70196010E9441
:1009C000D40E215031094109510956954795379563
:1009D0002795EC85FD853083EE85FF852083188E75
:1009E000EC89FD891083EA89FB898081806180839D
:1009F000EA89FB89808188608083EA89FB8980811C
:100A000080688083EA89FB8980818F7D8083DF9184
:100A1000CF911F91FF90EF90DF90CF900895FC0150
:100A2000A48DA80FB92FB11DA35ABF4F2C91848D4F
:100A300090E001968F739078848FA689B7892C9364
:100A4000A089B1898C91837080648C93938D848DFF
:100A5000981308950288F389E02D80818F7D80832B
:100A6000F8CF0F931F93CF93DF93EC0181E0888F32
:100A70009B8D8C8D9817B1F0062F8B8D90E0019691
:100A80008F739078182F8C8D81131EC00FB607FCC2
:100A9000FACFE889F989808185FFF5CFCE010E94E0
:100AA0000F05F1CFE889F989808185FFE5CF9FB7F0
:100AB000F894EE89FF896083E889F98980818370E1
:100AC000806480839FBF10C0EB8DEC0FFD2FF11D64
:100AD000E35AFF4F00839FB7F8941B8FEA89FB8985
:100AE0008081806280839FBF81E090E0DF91CF9121
:100AF0001F910F910895CF93DF93EC01888D8111A1
:100B000004C00DC00FB607FE0DC0EA89FB898081C5
:100B100085FDF8CFA889B9898C9186FFF3CFDF9145
:100B2000CF910895808185FFF0CFE889F989808190
:100B300085FFEBCFCE010E940F05E7CF80E090E06C
:100B4000892B21F00E94A304811125C080E090E050
:100B5000892B41F080E090E0892B21F00E94000079
:100B600081111CC080E090E0892B41F080E090E092
:100B7000892B21F00E940000811113C080E090E0D9
:100B8000892B41F080E090E0892B21F00E94000049
:100B900081110AC008950E940000D8CF0E94000071
:100BA000E1CF0E940000EACF0E940000F3CF30E0C6
:100BB00020E02330310548F4F901EA5CFD4F9081D3
:100BC000981729F02F5F3F4FF4CF80E0089581E020
:100BD00008951F93CF93DF93162FEC01CC0FDD1FE9
:100BE000FE01EA5DFD4F80810E944902CA5EDD4F31
:100BF000612F88810E944902DF91CF911F91089552
:100C0000CF93DF93D0E0C0E0C830D10538F470E076
:100C100060E0CE010E94E9052196F6CFDF91CF91E9
:100C20000895880F991FFC01EA5FFD4F80810E94A3
:100C30004902089561E070E090E080E00E941106B2
:100C40006091610470E081E090E00E941106609183
:100C5000600470E082E090E00E94110686E10E944C
:100C60001C02BC0183E090E00E9411060895CF931E
:100C7000DF93D0E0C0E0C530D1053CF470E060E027
:100C8000CE010E94E9052196F6CFD0E0C0E0C83041
:100C9000D1053CF461E070E0CE010E94110621967E
:100CA000F6CF68EC70E080E090E00E946B03D0E04B
:100CB000C0E0C830D1053CF470E060E0CE010E9495
:100CC00011062196F6CFDF91CF910895CF93DF9350
:100CD000D0E0C0E0C530D1055CF4FE01EE0FFF1F8F
:100CE000EA5DFD4F61E080810E947C022196F2CF97
:100CF000D0E0C0E0C830D1055CF4FE01EE0FFF1F6C
:100D0000EA5EFD4F61E080810E947C022196F2CF75
:100D1000D0E0C0E0C830D1055CF4FE01EE0FFF1F4B
:100D2000EA5FFD4F61E080810E947C022196F2CF54
:100D300060E089E10E947C0260E083E00E947C0226
:100D400060E084E00E947C0260E082E00E947C021D
:100D500060E088E10E947C0260E086E30E947C0201
:100D600060E088E30E947C0260E08AE30E947C02EB
:100D7000DF91CF9108950E9466060E9437060E9477
:100D8000A30360932A0470932B0480932C04909304
:100D90002D0426E040E855E260E070E088E694E04B
:100DA0000E94AD040895FC0180819181009719F0A3
:100DB0000E94550E089560E070E0CB010895DC01BB
:100DC000ED91FC910280F381E02D42E050E06BE474
:100DD00072E0199508950F931F93CF93DF93EC0161
:100DE0000E94F1038C01CE010E94DF06800F911F4B
:100DF000DF91CF911F910F9108956115710581F0D9
:100E0000FB0101900020E9F73197AF01461B570B1A
:100E1000DC01ED91FC910280F381E02D199508959C
:100E200090E080E008950F931F93CF93DF93EC0140
:100E30000E94FD068C01CE010E94DF06800F911FEB
:100E4000DF91CF911F910F910895CF93DF93809100
:100E50002E04811128C082E00E941C02EC01CC0FFC
:100E6000DD1FCC0FDD1FCC0FDD1F84E00E941C02B4
:100E7000880F991F880F991FC82BD92B83E00E94D8
:100E80001C02880F991FC82BD92B89E10E941C02D4
:100E90008C2B9D2B892B91F16EE472E088E694E017
:100EA0000E94130728C089E10E941C02BC0181E056
:100EB00090E00E94E90583E00E941C02BC0182E0F0
:100EC00090E00E94E90584E00E941C02BC0184E0DD
:100ED00090E00E94E90582E00E941C02BC0183E0D0
:100EE00090E00E94E90588E10E941C02BC0190E0AC
:100EF00080E00E94E905DF91CF91089570E060E005
:100F000081E090E00E94E90570E060E082E090E01E
:100F10000E94E90570E060E090E080E00E94E90551
:100F200070E060E083E090E00E94E90570E060E03E
:100F300084E090E00E94E905DECF8436F1F08E3641
:100F400079F1823639F06AE872E088E694E00E942E
:100F50001307089561E070E081E090E00E94E905E8
:100F600061E070E082E090E00E94E90570E060E0FE
:100F700090E080E00E94E905089570E060E081E083
:100F800090E00E94E90570E060E082E090E00E945D
:100F9000E90570E060E090E080E00E94E9050895D6
:100FA00065E672E088E694E00E94130708950F93C7
:100FB0001F93CF93DF938C01EB01FC018081918122
:100FC000892BB1F088819981892B51F182EC93E0D2
:100FD000A0E0892B49F1F801228133818C819D8128
:100FE0002817390720F5F801808191810E949A0F16
:100FF00088819981F801918380838A819B81938381
:1010000082838C819D8195838483198218821B82BF
:101010001A821D821C82DF91CF911F910F9108953A
:1010200080E090E0DC01D5CFA0FFDDCFD4CF688198
:101030007981808191810E9418118C819D81F801B4
:10104000958384831D821C82E6CFCF93DF93EC01CE
:101050008617970711F00E94D707CE01DF91CF9135
:101060000895CF93DF93EC0188819981009711F067
:101070000E949A0F198218821D821C821B821A827A
:10108000DF91CF910895FC0180819181009711F04B
:101090000E949A0F08950F931F93CF93DF93EC0153
:1010A0008B016F5F7F4F888199810E942310009789
:1010B00051F0998388831B830A8381E0DF91CF916C
:1010C0001F910F91089580E0F9CFCF93DF93EC014A
:1010D00028813981232B29F02A813B812617370764
:1010E00070F4CE010E944B08882351F08C819D81C1
:1010F000892B49F4E881F981108281E001C081E007
:10110000DF91CF91089581E0FBCFEF92FF920F9393
:101110001F93CF93DF93FC01C481D581C40FD51FEA
:101120006115710501F1452B41F481E0DF91CF910B
:101130001F910F91FF90EF9008957B018C01BE01EC
:101140000E946508882391F3F80120813181848110
:101150009581B701820F931F0E941811F801D58362
:10116000C48381E0E3CF80E0E1CFCF93DF931F9290
:101170001F92CDB7DEB769831A8241E050E0BE010D
:101180006F5F7F4F0E9485080F900F90DF91CF9186
:1011900008956115710559F0FB0101900020E9F7F0
:1011A0003197AF01461B570B0E948508089580E0D8
:1011B0000895FB0144815581608171810E948508F9
:1011C0000895EF92FF920F931F93CF93DF93EC015B
:1011D0007B018A01BA010E946508882379F01D838A
:1011E0000C83B701888199810E941811CE01DF918B
:1011F000CF911F910F91FF90EF900895CE010E9423
:101200003108F4CFCF93DF93EC016115710571F0D4
:10121000FB0101900020E9F73197AF01461B570B06
:101220000E94E108CE01DF91CF9108950E9431081C
:10123000F9CFFC011182108213821282158214826E
:101240006115710551F0FB0101900020E9F731971C
:10125000AF01461B570B0E94E1080895FF920F93C0
:101260001F93CF93DF93EC018B01F42E6DE472E0BA
:101270000E941909C8010E94C30399237CF02F2DF5
:101280000F2C000C330B2817390741F0682FCE01C3
:101290000E94B508C8010E94C303EFCFCE01DF91C1
:1012A000CF911F910F91FF9008950F931F93CF93AC
:1012B000DF93EC018B01019751F0CD2B19F40F3F17
:1012C0001F4F79F0DF91CF911F910F9108956F3FDC
:1012D0007F4F99F76DE472E082E694E00E9419096D
:1012E000ECCF82E694E00E944308ECCFDF92EF92CD
:1012F000FF920F931F93CF93DF93CDB7DEB72C9759
:101300000FB6F894DEBF0FBECDBF809130048111BF
:1013100021C088E694E00E949604181619060CF085
:10132000B9C04AE068E674E0CE0101960E942E0939
:10133000BE016F5F7F4F82E694E00E942508CE01D8
:1013400001960E94430810922F04F12CE12C10E02A
:1013500000E03EC061EA72E088E694E00E94130774
:101360006CEA72E088E694E00E94130710922F0462
:101370002C960FB6F894DEBF0FBECDBFDF91CF9194
:101380001F910F91FF90EF90DF900895CE01079687
:101390000E94D306F9E0EF16F1040CF05AC0072EB4
:1013A000000C880B990BF701EE0FFF1FEE0FFF1FCC
:1013B000EE0DFF1DED5CFB4FD08261837283838352
:1013C00094832FEFE21AF20ACE0107960E94430897
:1013D00080916604909167040817190708F043C0CC
:1013E000B80182E694E00E94B003FC01D0808D2D0C
:1013F0000E94D705882309F440C00F5F1F4F6DE49A
:1014000072E0CE0107960E941909809166049091BE
:1014100067040817190708F0B9CFB80182E694E00D
:101420000E94B003FC018081082E000C990BC0972C
:101430000A9708F0ABCFB80182E694E00E94B003AF
:10144000FC016081CE0107960E94B5080F5F1F4F17
:10145000DCCF6CE073E088E694E00E941307CE01D5
:1014600007960E9443086BE673E088E694E00E94CA
:10147000130781E080932F047BCF68E473E088E654
:1014800094E00E94130761EA72E088E694E00E940B
:101490001307E9CF61EA72E088E694E00E9413073F
:1014A00065E773E088E694E00E94130710922F042A
:1014B0005FCF0F931F93CF93DF93CDB7DEB76297C4
:1014C0000FB6F894DEBF0FBECDBF8C01CB01F80183
:1014D00011821082138212821582148250E0BE01A2
:1014E0006F5F7F4F0E947C0EBE016F5F7F4FC80110
:1014F0000E94020962960FB6F894DEBF0FBECDBF00
:10150000DF91CF911F910F9108950F931F93CF9368
:10151000DF93CDB7DEB762970FB6F894DEBF0FBE8C
:10152000CDBF86E30E94BB0204E214E0F801918380
:10153000808388E30E94BB02F801938382838AE35D
:101540000E94BB02F801958384838091600481111D
:101550000BC062960FB6F894DEBF0FBECDBFDF9111
:10156000CF911F910F91089565EA73E0CE010D961A
:101570000E94190910E000E00330110500F5F801A0
:10158000EE0FFF1FEC5DFB4F608171814AE0CE01E1
:1015900007960E94590ABE01695F7F4FCE010D96E2
:1015A0000E94D908CE0107960E94430866EA73E0BC
:1015B000CE010D960E94C9080F5F1F4FDDCF10E0CE
:1015C00000E00830110510F5F801EE0FFF1FEA5D8D
:1015D000FD4F80810E941C024AE0BC01CE010196B1
:1015E0000E94590ABE016F5F7F4FCE010D960E9487
:1015F000D908CE0101960E94430866EA73E0CE0145
:101600000D960E94C9080F5F1F4FDBCF68EA73E099
:10161000CE010D960E94C908BE01635F7F4F88E628
:1016200094E00E94EB06CE010D960E94430891CFF4
:10163000E3E3F4E08DE2DF011D928A95E9F7109271
:101640003204109231041092300410922F04109240
:101650002E0410926104109260040E9400060E9401
:10166000A30360932A0470932B0480932C0490931B
:101670002D040895CF92DF92EF92FF920F931F9364
:101680008091340490913504A0913604B0913704D0
:10169000892B8A2B8B2B09F45DC081E08093600439
:1016A00080913104909132048930910508F05BC03B
:1016B000FC01EE0FFF1FEE0FFF1FE80FF91FED5C9F
:1016C000FB4F418152816381748141155105610550
:1016D000710509F448C00091200410912104209163
:1016E000220430912304C0901C04D0901D04E0908B
:1016F0001E04F0901F040C191D092E093F09041740
:10170000150726073707F0F1FC01EE0FFF1FEE0F5C
:10171000FF1FE80FF91FED5CFB4F80810E949D07C2
:101720008091200490912104A0912204B09123047F
:1017300080931C0490931D04A0931E04B0931F0477
:1017400080913104909132040196909332048093F9
:10175000310418C06AEA73E088E694E00E94130737
:10176000109230040FC00E940006E3E3F4E08DE223
:10177000DF011D928A95E9F710923204109231042C
:10178000109230041F910F91FF90EF90DF90CF9057
:101790000895CF9388E694E00E947404C82F082E21
:1017A000000C990B0E940711892B09F42CC1809120
:1017B0006104882309F475C0E5EBEC0FEF3208F003
:1017C00069C00E2E000CFF0B8827E651F44F8F4F97
:1017D0000C94F60E370C4A0C4A0C4A0C4A0C4A0C74
:1017E0004A0C2E0C4A0C3E0C4A0C4A0C4A0C4A0C71
:1017F0004A0C4A0C4A0C4A0C4A0C4A0C4A0C4A0C39
:101800004A0C4A0C4A0C4A0C4A0C4A0C4A0C4A0C28
:101810002A0C4A0C3B0C4A0C340C4A0C4A0C4A0C5D
:101820004A0C4A0C470C440C4A0C4A0C4A0C4A0C11
:10183000190C66ED73E088E694E00E9413070E949D
:10184000A303609318047093190480931A0490936F
:101850001B04DFC081E080932F04DBC081E0809314
:10186000300480936004D5C010926104D2C081E03E
:1018700080936004CEC010926004CBC081E080935E
:101880002E0480936004C5C010922E04C2C00E9432
:10189000180BBFC064EE73E088E694E00E94130763
:1018A000B8C0EDEBEC0FE83308F0A6C00E2E000C2C
:1018B000FF0B8827E15AF34F8F4F0C94F60EC10CA3
:1018C000FC0CFC0CFC0CFC0CEB0CFC0CFC0CA80C3D
:1018D000FC0CAF0CFC0CFC0CFC0CFC0CFC0CFC0C15
:1018E000FC0CFC0CCF0CFC0CDD0CFC0CB30CFC0C4D
:1018F000FC0CFC0CFC0CFC0CFC0CFC0CFC0CC80CDC
:10190000FC0CFC0CFC0CFC0CF20CFC0CFC0CAC0CF1
:10191000FC0CFC0CFC0CFC0CFC0CFC0CFC0CF90C8A
:10192000FC0CFC0CD60CFC0CE40C970CBA0C66ED11
:1019300073E088E694E00E9413070E94A30360937B
:1019400018047093190480931A0490931B0461C0C7
:1019500081E0809360045DC0109260045AC081E011
:101960008093610456C061E070E084E090E00E94E2
:10197000E9054FC070E060E084E090E00E94E90576
:1019800048C061E070E081E090E00E94E90541C05C
:1019900070E060E081E090E00E94E9053AC061E01B
:1019A00070E082E090E00E94E90533C070E060E002
:1019B00082E090E00E94E9052CC061E070E083E0E5
:1019C00090E00E94E90525C070E060E083E090E0CF
:1019D0000E94E9051EC061E070E090E080E00E9496
:1019E000E90517C070E060E090E080E00E94E90542
:1019F00010C00E94180B0DC064EE73E088E694E0FE
:101A00000E94130706C067EF73E088E694E00E9427
:101A10001307CF9108950E94A3036093200470934D
:101A2000210480932204909323040E941A0688E6DE
:101A300094E00E949604892BD9F580912F0481119E
:101A40003AC080913004811139C080912004909176
:101A50002104A0912204B091230440912A045091C2
:101A60002B0460912C0470912D04841B950BA60B04
:101A7000B70B843F9140A105B10518F58091200472
:101A800090912104A0912204B09123044091180464
:101A90005091190460911A0470911B04841B950BDA
:101AA000A60BB70B88389341A105B105E8F408955A
:101AB0000E94C90BC2CF0E947609C3CF0E943A0B85
:101AC000C4CF0E94850A8091200490912104A091A6
:101AD0002204B091230480932A0490932B04A093B2
:101AE0002C04B0932D04CACF0E94180BE0CF6FEFE7
:101AF0007FEF81E090E00E9430046FEF7FEF81E0A4
:101B000090E00E94550908951F920F920FB60F9210
:101B100011240F931F932F933F934F935F936F93D2
:101B20007F938F939F93AF93BF930091070510917D
:101B300008052091090530910A0590910605B90123
:101B4000A8014F5F5F4F6F4F7F4F83E0890F8D3745
:101B500040F086E8890FB901A8014E5F5F4F6F4FD3
:101B60007F4F8093060540930705509308056093C7
:101B7000090570930A0580910B0590910C05A091C1
:101B80000D05B0910E050196A11DB11D80930B05A9
:101B900090930C05A0930D05B0930E05BF91AF91E6
:101BA0009F918F917F916F915F914F913F912F9175
:101BB0001F910F910F900FBE0F901F9018950E94CC
:101BC000E3020E94BB060E940B0D0E949E05FBCF04
:101BD0001F920F920FB60F9211240BB60F922F93F4
:101BE0003F934F935F936F937F938F939F93AF93A5
:101BF000BF93EF93FF9388E694E00E940F05FF9157
:101C0000EF91BF91AF919F918F917F916F915F9174
:101C10004F913F912F910F900BBE0F900FBE0F90E1
:101C20001F9018951F920F920FB60F9211240BB6AA
:101C30000F922F938F939F93AF93BF93EF93FF9345
:101C4000E0917804F0917904808182FD14C0E8E687
:101C5000F4E0A689B7892C91818D8F5F8F73928D67
:101C6000891771F0DF01E18DF0E0E859FB4F258F16
:101C700059968C9305C0E0917E04F0917F04808199
:101C8000FF91EF91BF91AF919F918F912F910F9005
:101C90000BBE0F900FBE0F901F9018956FEF7FEF48
:101CA00090E080E00E94550908951F93FC01992758
:101CB0008827BC01E89411911032E9F3193010F033
:101CC0001E30C8F31B3251F01D3249F4689406C02F
:101CD0000E94920E610F711D811D911D1191105373
:101CE0001A30B0F33EF490958095709561957F4FD2
:101CF0008F4F9F4F1F9108954532510520F4423078
:101D000010F00C94870EFB011082CB010895BB27C5
:101D10004A3031F4992322F4BDE2909581959F4F8A
:101D20000C94A80E592F482F372F262F660F771F98
:101D3000881F991F660F771F881F991F620F731FD7
:101D4000841F951F660F771F881F991F0895BB2753
:101D5000FB015527AA27880F991FAA1FA41710F067
:101D6000A41B83955051B9F7A05DAA3308F0A95D73
:101D7000A193009779F7B111B1931192CB010C9413
:101D8000C10EDC01FC01672F71917723E1F73297D7
:101D900004C07C916D9370836291AE17BF07C8F346
:101DA0000895992788270895A1E21A2EAA1BBB1B24
:101DB000FD010DC0AA1FBB1FEE1FFF1FA217B30717
:101DC000E407F50720F0A21BB30BE40BF50B661F2D
:101DD000771F881F991F1A9469F7609570958095F1
:101DE00090959B01AC01BD01CF010895EE0FFF1F3F
:101DF000881F8BBF0790F691E02D19940F931F93C6
:101E0000CF93DF938230910510F482E090E0E0916F
:101E10001105F091120530E020E0B0E0A0E030972D
:101E200099F42115310509F44AC0281B390B2430D7
:101E30003105D8F58A819B816115710589F1FB0116
:101E400093838283FE0111C04081518102811381FD
:101E500048175907E0F04817590799F4109761F0AF
:101E600012960C93129713961C933296CF01DF9122
:101E7000CF911F910F9108950093110510931205B2
:101E8000F4CF2115310551F04217530738F0A9015D
:101E9000DB019A01BD01DF01F801C1CFEF01F9CFEC
:101EA0009093120580931105CDCFFE01E20FF31F31
:101EB000819391932250310939832883D7CF209180
:101EC0000F0530911005232B41F42091020230912F
:101ED00003023093100520930F05209100023091EA
:101EE00001022115310541F42DB73EB7409104029E
:101EF00050910502241B350BE0910F05F091100560
:101F0000E217F307A0F42E1B3F0B2817390778F0D0
:101F1000AC014E5F5F4F2417350748F04E0F5F1F2F
:101F20005093100540930F05819391939FCFF0E05C
:101F3000E0E09CCFCF93DF930097E9F0FC0132976C
:101F400013821282A0911105B0911205ED0130E0CB
:101F500020E01097A1F420813181820F931F2091FE
:101F60000F05309110052817390709F061C0F0936B
:101F70001005E0930F05DF91CF910895EA01CE1788
:101F8000DF07E8F54A815B819E0141155105B1F7F4
:101F9000E901FB83EA8349915991C40FD51FEC17DE
:101FA000FD0761F4808191810296840F951FE901FC
:101FB00099838883828193819B838A83F0E0E0E028
:101FC00012968D919C9113970097B9F52D913C91A4
:101FD0001197CD010296820F931F20910F0530912A
:101FE00010052817390739F6309751F51092120568
:101FF00010921105B0931005A0930F05BCCFD383A9
:10200000C28340815181840F951FC817D90761F49D
:102010004E5F5F4F88819981480F591F51834083DC
:102020008A819B81938382832115310509F0B0CF8A
:10203000F0931205E09311059ECFFD01DC01C0CFA6
:1020400013821282D7CF4F925F926F927F928F92BC
:102050009F92AF92BF92CF92DF92EF92FF920F9337
:102060001F93CF93DF938C01009799F4CB01DF91FD
:10207000CF911F910F91FF90EF90DF90CF90BF9085
:10208000AF909F908F907F906F905F904F900C9447
:10209000FE0EFC01E60FF71F9C0122503109E217EA
:1020A000F30708F4AEC0D901CD91DC911197C617A2
:1020B000D70720F1C530D10578F0CE0104978617F7
:1020C000970750F0C61BD70B2297C193D1936D93FE
:1020D0007C93CF010E949A0FC801DF91CF911F918D
:1020E0000F91FF90EF90DF90CF90BF90AF909F90B7
:1020F0008F907F906F905F904F9008955B01AC1A26
:10210000BD0A4C018C0E9D1EA0911105B0911205C7
:10211000512C412CF12CE12C109731F580910F05B9
:10212000909110058815990509F05CC04616570670
:1021300008F058C08091000290910102009741F48C
:102140008DB79EB74091040250910502841B950BF8
:10215000E817F90708F055C0F0931005E0930F0554
:10216000F90171836083B8CF8D919C91119712967C
:102170006C90129713967C901397A815B90559F592
:102180006C0142E0C40ED11CCA14DB0420F1AC0186
:102190004A195B09DA011296159780F06282738200
:1021A00051834083D9016D937C93E114F10471F064
:1021B000D7011396FC93EE9312978ECF22968C0F35
:1021C0009D1FF90191838083F301EFCFF0931205F6
:1021D000E093110581CF4816590608F42C017D01C2
:1021E000D3019ACFCB010E94FE0E7C01009749F0EB
:1021F000AE01B8010E940F11C8010E949A0F870119
:102200006BCF10E000E068CF85FD0C94D10E8062AA
:1022100091110C94D10E81568A51D8F70895FB0183
:10222000DC0102C001900D9241505040D8F7089552
:10223000FB01DC0101900D920020E1F7089511E00F
:10224000CDE6D1E000E006C0802FFE010E94F60E30
:102250002196011DCE36D10780E00807A9F7F89432
:02226000FFCFAE
:102262000000130580000500060007000B000C00AB
:102272000D00170032002800200022002600240052
:102282002A002C002E0034000800090016000A0063
:102292001A001C001E0062646E000000003105007E
:1022A2000463047B059604740488040D0A004C4FF1
:1022B200473A20496E76616C69642054544C206917
:1022C2006E707574004C4F473A20416C74206275F1
:1022D20062626C652073746570206E6F7420696D24
:1022E200706C656D656E746564004C4F473A20559D
:1022F2006E6B6E6F776E2073746570207479706583
:10230200005345513A2046616C7365004C4F473A81
:102312002053657175656E636520616C72656164D9
:10232200792072756E6E696E672C20706C656173B0
:1023320065207761697420666F72206375727265B9
:102342006E742073657175656E636520746F2065A8
:102352006E64206265666F7265206C6F6164696E7F
:10236200672061206E6577206F6E65004C4F473A9B
:102372002053657175656E636520746F6F206C6F95
:102382006E672C206F6E6C792066697273742039C7
:102392002073746570732077696C6C2062652065A8
:1023A20078656375746564004C4F473A20496E76D0
:1023B200616C69642073746570207479706520693A
:1023C2006E2073657175656E6365005345513A20E1
:1023D20054727565004C4F473A20457870656374B6
:1023E20065642073657175656E636520696E7075CD
:1023F200742C20627574206E6F6E65207265636541
:10240200697665640050200043004C4F473A2053E0
:10241200657175656E636520697320656D70747989
:102422002C206E6F7468696E6720746F2070726FF3
:10243200636573732E004845415254424541545FCF
:1024420041434B004C4F473A20496E76616C6964B8
:1024520020696E707574004C4F473A20496E766160
:102462006C696420696E7075742C206E6F742061C3
:08247200206C657474657200B2
:00000001FF
