:100000000C9438010C9469010C9469010C946901F9
:100010000C9469010C9469010C9469010C946901B8
:100020000C9469010C9469010C9469010C946901A8
:100030000C9469010C9469010C9469010C94690198
:100040000C9469010C9469010C9469010C94690188
:100050000C9469010C9469010C9469010C9461057C
:100060000C9469010C94D5050C94AB050C946901B2
:100070000C9469010C9469010C9469010C94690158
:100080000C9469010C9469010C9469010C94690148
:100090000C9469010C9469010C9469010C94690138
:1000A0000C9469010C9469010C9469010C94690128
:1000B0000C9469010C9469010C9469010C94690118
:1000C0000C9469010C9469010C9469010C94690108
:1000D0000C9469010C9469010C9469010C946901F8
:1000E0000C9469010C94A8010C946B030C94D0023D
:1000F0000C9493010C94C9010C94AE010C94B601BC
:100100000C94DF020C949B010C94C0010C94250309
:100110000C940B060C94BC010C94CE010C9497012A
:100120000C9433030C94B8030C94C4010C948F0109
:100130000C94A4010C94B2010C94A3020C948901B8
:100140000C949E010C94CA010C94060B0000210033
:10015000240027002A002D00300033000101000098
:10016000040107010A0100002200250028002B00DD
:100170002E003100340002010000050108010B01CE
:10018000000020002300260029002C002F00320050
:100190000001000003010601090105050505070529
:1001A00008080808020202020A0A080804040404F3
:1001B000010101010101010103030303030303031F
:1001C000040707070C0C0C0C0C0C0C0C02020202AE
:1001D00006060606060606060B0B0B0B0B0B0B0B97
:1001E0000102102020080810204010204080020149
:1001F000020108040201010204081020408080402E
:10020000201008040201800402018040201008042C
:1002100002010804020101020408102040800102CA
:1002200004081020408000000A0B02090C0D0E0883
:1002300007030401000000000000000000000000AF
:1002400000000000000000000000000000000000AE
:10025000000012111000000000000000000000006B
:100260000000000000000000000000000B06060B6C
:1002700011241FBECFEFD1E2DEBFCDBF00E00CBF27
:1002800024E0AEEFB3E001C01D92A93FB207E1F751
:1002900013E0A0E0B2E0E2E7FBE100E00BBF02C048
:1002A00007900D92AE3FB107D9F711E0C7E3D1E057
:1002B00000E006C021970109802FFE010E947E0BFD
:1002C000C633D10780E00807A9F70E9444060C94C2
:1002D000A70D0C9400008150823108F05AC0E82F1D
:1002E000F0E08827E958FE4F8F4F0C947E0B970162
:1002F0009B0189018F019301C9019E01A401A801FD
:10030000AE01B201B601BC01C001C901C401CA01FC
:10031000CE01809180008F77809380000895809136
:1003200080008F7DF9CF80918000877FF5CF84B5E5
:100330008F7784BD089584B58F7DFBCF8091B00009
:100340008F778093B00008958091B0008F7DF9CFB2
:10035000809190008F778093900008958091900015
:100360008F7DF9CF80919000877FF5CF8091A0009D
:100370008F778093A00008958091A0008F7DF9CFA2
:100380008091A000877FF5CF809120018F778093A7
:1003900020010895809120018F7DF9CF8091200167
:1003A000877FF5CFCF93DF93282F30E0F901EA5D07
:1003B000FD4F8491F901E052FE4FD491F901E656C8
:1003C000FE4FC491CC23A1F081110E946B01EC2F50
:1003D000F0E0EE0FFF1FE058FE4FA591B491EC91B5
:1003E000ED2381E090E009F480E0DF91CF91089562
:1003F00080E090E0FACF1F93CF93DF93282F30E077
:10040000F901EA5DFD4F8491F901E052FE4FD4916C
:10041000F901E656FE4FC491CC23A9F0162F8111A5
:100420000E946B01EC2FF0E0EE0FFF1FEA59FE4F28
:10043000A591B4918FB7F894EC91111108C0D095A3
:10044000DE23DC938FBFDF91CF911F910895DE2BC8
:10045000F8CFCF93DF9390E0FC01E052FE4F249160
:1004600086569E4FFC0184918823D1F090E0880F3E
:10047000991FFC01E45BFE4FA591B491FC01EA5980
:10048000FE4FC591D49161110EC09FB7F8948C9125
:10049000E22FE0958E238C932881E223E8839FBF8F
:1004A000DF91CF9108958FB7F894EC91E22BEC9304
:1004B0008FBFF6CF90917B00977F90937B00865300
:1004C000806480937C0080917A00806480937A00BD
:1004D00080917A0086FDFCCF809178009091790020
:1004E00008953FB7F89480914E0490914F04A091E5
:1004F0005004B091510426B5A89B05C02F3F19F0B8
:100500000196A11DB11D3FBFBA2FA92F982F882793
:10051000BC01CD01620F711D811D911D42E0660F6E
:10052000771F881F991F4A95D1F708952FB7F89420
:1005300060914A0470914B0480914C0490914D0459
:100540002FBF08950895AF92BF92CF92DF92EF929E
:10055000FF920F931F93CF93DF936C017B018B016D
:10056000040F151FEB015E01AE18BF08C017D107BD
:1005700059F06991D601ED91FC910190F081E02D47
:10058000C6011995892B79F7C501DF91CF911F918C
:100590000F91FF90EF90DF90CF90BF90AF900895B4
:1005A000FC01538D448D252F30E0842F90E0821B79
:1005B000930B541710F0CF96089501970895FC01FE
:1005C000918D828D981761F0A28DAE0FBF2FB11D56
:1005D0005D968C91928D9F5F9F73928F90E00895AE
:1005E0008FEF9FEF08950F931F930E9496026093E1
:1005F0005A0470935B0480935C0490935D0482E5DD
:1006000094E00E94DF0297FF1DC00E9496020091B5
:100610005A0410915B0420915C0430915D04601BCE
:10062000710B820B930B009156041091570420918B
:100630005804309159046017710782079307F8F244
:100640008FEF9FEF1F910F910895FC01918D828D87
:10065000981731F0828DE80FF11D858D90E0089597
:100660008FEF9FEF0895FC01918D228D892F90E0EF
:10067000805C9F4F821B91098F739927089582E5B3
:1006800094E00E94330321E0892B09F420E0822FBB
:100690000895FC01A48DA80FB92FB11DA35ABF4F17
:1006A0002C91848D90E001968F739927848FA68971
:1006B000B7892C93A089B1898C91837080648C93C5
:1006C000938D848D981306C00288F389E02D808174
:1006D0008F7D80830895EF92FF920F931F93CF93A6
:1006E000DF93EC0181E0888F9B8D8C8D98131AC06D
:1006F000E889F989808185FF15C09FB7F894EE8954
:10070000FF896083E889F9898081837080648083B0
:100710009FBF81E090E0DF91CF911F910F91FF90FB
:10072000EF900895F62E0B8D10E00F5F1F4F0F73A3
:100730001127E02E8C8D8E110CC00FB607FCFACF5E
:10074000E889F989808185FFF5CFCE010E944903B0
:10075000F1CFEB8DEC0FFD2FF11DE35AFF4FF0822F
:100760009FB7F8940B8FEA89FB8980818062CFCF95
:10077000CF93DF93EC01888D8823B9F0AA89BB89D8
:10078000E889F9898C9185FD03C0808186FD0DC0C3
:100790000FB607FCF7CF8C9185FFF2CF808185FFE4
:1007A000EDCFCE010E944903E9CFDF91CF910895AB
:1007B00080E090E0892B29F00E943F0381110E9484
:1007C000000080E090E0892B49F080E090E0892BE8
:1007D00029F00E94000081110E94000080E090E05A
:1007E000892B49F080E090E0892B29F00E940000DD
:1007F00081110E94000080E090E0892B49F080E0A8
:1008000090E0892B29F00E94000081110C940000D7
:1008100008951F93CF93DF93162FEC01CC0FDD1FAC
:10082000FE01EA5DFD4F80810E94FB01CA5FDD4F42
:10083000612F8881DF91CF911F910C94FB01CF93A1
:10084000DF93D0E0C0E070E060E0CE010E940904D8
:100850002196C830D105B9F7DF91CF91089542E0D4
:1008600050E068E472E082E594E00C94A302CF9338
:10087000DF93FC0101900020E9F73197AF01481B9D
:10088000590BBC0182E594E00E94A302EC010E9496
:100890002F048C0F9D1FDF91CF910895FC01808163
:1008A0009181009711F00C94220C0895E6E0F4E099
:1008B0008DE2DF011D928A95E9F7109205041092EE
:1008C00004041092430410924404109233041092D2
:1008D000FE03109234040E941F040E94960260934B
:1008E0003F04709340048093410490934204089520
:1008F0000F931F93CF93DF93EC0188819981009729
:1009000059F02A813B812617370730F081E0DF91CB
:10091000CF911F910F9108958B016F5F7F4F0E94C0
:10092000AB0C009759F0998388831B830A832C8131
:100930003D81232B59F7FC011082E8CF80E0E7CFFF
:10094000CF92DF92EF92FF920F931F93CF93DF939B
:10095000CDB7DEB762970FB6F894DEBF0FBECDBF3E
:100960008C01CB01F8011182108213821282158250
:1009700014824AE09E012F5F3F4F6901B9010E9436
:10098000310BF60101900020E9F731977F01EC1857
:10099000FD08B701C8010E947804F8012081318167
:1009A00081111CC02115310519F0C9010E94220CCA
:1009B000F8011182108215821482138212826296CB
:1009C0000FB6F894DEBF0FBECDBFDF91CF911F9160
:1009D0000F91FF90EF90DF90CF900895F582E48221
:1009E000B601C9010E94A00DEACFEF92FF920F93CA
:1009F0001F93CF93DF93EC017B01FB01019000205B
:100A0000E9F731978F01061B170BB8010E94780494
:100A100028813981811113C02115310519F0C901CF
:100A20000E94220C198218821D821C821B821A824B
:100A3000DF91CF911F910F91FF90EF9008951D834B
:100A40000C83B701C901DF91CF911F910F91FF90E6
:100A5000EF900C94A00DEF92FF920F931F93CF9302
:100A6000DF936115710541F480E0DF91CF911F9113
:100A70000F91FF90EF90089541155105B1F07B0162
:100A8000EC010C811D81040F151FB8010E94780430
:100A9000882351F3288139818C819D81B701820F90
:100AA000931F0E94A00D1D830C8381E0DECFFB010C
:100AB00001900020E9F73197AF01461B570B0C94CA
:100AC0002B051F920F920FB60F9211242F933F9375
:100AD0008F939F93AF93BF9380914A0490914B045F
:100AE000A0914C04B0914D043091490423E0230FB0
:100AF0002D3758F50196A11DB11D2093490480930F
:100B00004A0490934B04A0934C04B0934D048091FD
:100B10004E0490914F04A0915004B091510401965D
:100B2000A11DB11D80934E0490934F04A0935004D7
:100B3000B0935104BF91AF919F918F913F912F91AD
:100B40000F900FBE0F901F90189526E8230F029666
:100B5000A11DB11DD2CF1F920F920FB60F9211247B
:100B60000BB60F922F933F934F935F936F937F93A7
:100B70008F939F93AF93BF93EF93FF9382E594E09E
:100B80000E944903FF91EF91BF91AF919F918F9187
:100B90007F916F915F914F913F912F910F900BBE7D
:100BA0000F900FBE0F901F9018951F920F920FB6C7
:100BB0000F9211240BB60F922F938F939F93EF9365
:100BC000FF93E0916204F09163048081E0916804F6
:100BD000F091690482FD1DC0908180916B048F5F4C
:100BE0008F7320916C04821741F0E0916B04F0E068
:100BF000EE5AFB4F958F80936B04FF91EF919F917D
:100C00008F912F910F900BBE0F900FBE0F901F90E2
:100C100018958081F2CFE2E5F4E01382128288EE2B
:100C200093E0A0E0B0E084839583A683B7838AE352
:100C300092E09183808385EC90E09587848784ECB3
:100C400090E09787868780EC90E0918B808B81EC99
:100C500090E0938B828B82EC90E0958B848B86EC7A
:100C600090E0978B868B118E128E138E148EEFEE82
:100C7000F4E01182108213821282158214826AE4D7
:100C800072E0CF010C94F504CF93DF93CDB7DEB7BC
:100C90002C970FB6F894DEBF0FBECDBF789484B505
:100CA000826084BD84B5816084BD85B5826085BD68
:100CB00085B5816085BD80916E00816080936E00F6
:100CC00010928100809181008260809381008091E8
:100CD0008100816080938100809180008160809399
:100CE00080008091B10084608093B1008091B00059
:100CF00081608093B0008091910082608093910028
:100D0000809191008160809391008091900081603A
:100D1000809390008091A10082608093A1008091D7
:100D2000A10081608093A1008091A00081608093E8
:100D3000A000809121018260809321018091210196
:100D40008160809321018091200181608093200146
:100D500080917A00846080937A0080917A0082602A
:100D600080937A0080917A00816080937A008091EC
:100D70007A00806880937A001092C100E0E3EE2E42
:100D8000E2E0FE2E06E212E0F80180810E5F1F4FC6
:100D900061E00E942902E016F106B1F706E012E0D8
:100DA00076E1E72E72E0F72EF80180810E5F1F4F8B
:100DB00061E00E942902E016F106B1F766E1C62E55
:100DC00062E0D62E7601F7018081F2E0EF0EF11C91
:100DD00061E00E94290226E2E21622E0F20699F77B
:100DE00060E089E10E94290260E083E00E9429021C
:100DF00060E084E00E94290260E082E00E94290213
:100E000060E088E10E94290260E086E30E942902F6
:100E100060E088E30E94290260E08AE30E942902E0
:100E200010E000E070E060E0C8010E9409040F5F7C
:100E30001F4F05301105B1F706E112E0F80180817E
:100E40000E5F1F4F61E00E94FB01E016F106B1F753
:100E50000E9471022B013C0158EC852E912CA12C93
:100E6000B12C0E9471026419750986099709683EC0
:100E7000734081059105A8F3F1E08F1A9108A1084C
:100E8000B10828EE420E23E0521E611C711C811431
:100E90009104A104B10429F7F6018081F2E0CF0E9C
:100EA000D11C60E00E94FB010C151D05A9F70E94F2
:100EB000960260933F0470934004809341049093A2
:100EC0004204E0916204F091630482E08083E09147
:100ED0005E04F0915F041082E0916004F09161047F
:100EE0008FEC808310926A04E0916604F0916704AD
:100EF00086E08083E0916404F091650480818061E4
:100F00008083E0916404F09165048081886080832F
:100F1000E0916404F0916504808180688083E091B1
:100F20006404F091650480818F7D808396E0E92ED2
:100F300094E0F92E2DE2722E3BE3C32E34E0D32E43
:100F400046E3A42E42E0B42E0E949602609345042C
:100F500070934604809347049093480461E085E0D1
:100F60000E94FB010091FE03602F86E00E94FB01BE
:100F70006091340487E00E94FB0186E10E94D20167
:100F8000682F8BE00E94FB0182E594E00E9433030E
:100F9000892B09F444C082E594E00E94DF02182FF7
:100FA000082E000C990B0E948F0D892B09F4B7C0F5
:100FB000002309F45EC01B3609F44EC0ACF41235B0
:100FC00009F442C044F41B3409F444C089E592E0BA
:100FD0000E94370424C0143509F441C01936B1F712
:100FE00081E0809344041BC0133709F43FC02CF404
:100FF0001D3661F71092FE0312C01437A1F11937A4
:1010000029F78BE492E00E9437040E9496026093D5
:101010003B0470933C0480933D0490933E04809184
:101020004404882309F400C180914304882309F40F
:1010300079C08DE892E00E94370488E992E00E942E
:10104000370410924404F0C081E0809343048093FD
:101050003404E5CF81E0FBCF10923404E0CF81E08F
:1010600080933304F4CF10923304D9CF0E945604F6
:10107000D6CF133609F443C0E4F41D3491F16CF477
:10108000183409F447C01B3429F3133409F09ECFF8
:1010900061E070E081E090E02CC01835B1F11A35C4
:1010A00021F1163509F092CF61E070E082E090E026
:1010B00020C0163739F154F41B3671F21337B1F2F0
:1010C000183609F083CF70E060E026C0193709F4C4
:1010D00098CF1A3789F0183709F078CF70E060E0C0
:1010E00016C081E08093FE039ACF61E070E084E057
:1010F00090E00E94090493CF70E060E0F8CF70E0C8
:1011000060E0C8CF70E060E0D1CF61E070E083E0E4
:1011100090E0EFCF61E070E090E080E0EACF8CE615
:1011200092E056CF82E594E00E9433031816190628
:101130000CF016C11A8219821C821B821E821D822B
:101140006AE472E0CE0101960E94F5040E94F30267
:1011500097FD0FC08A30910561F08F83188641E0BA
:1011600050E0BE01695F7F4FCE0101960E942B05C2
:10117000EDCF8091EF049091F004009709F46FC0D7
:1011800069817A816115710509F467C04091F104A4
:101190005091F2042D813E814217530708F45DC03F
:1011A0000E94A00D8D819E819093F4048093F3049E
:1011B0001E821D82CE0101960E944E0410924404AC
:1011C00086E0882E84E0982E10E000E08091F30401
:1011D0009091F4040817190700F5E091EF04F091DD
:1011E000F004309709F052C01092FF03EFEFF3E0E4
:1011F000608022E6621609F44CC084E6681609F4A1
:1012000048C09EE6691609F444C088EF92E00E9447
:1012100037048DE892E00E94370487E593E00E944E
:10122000370481E08093440480914304882309F4C7
:1012300009C18091070490910804A0910904B0911C
:101240000A04892B8A2B8B2B09F091C081E993E04A
:101250000E94370410924304F5C00E94220C898139
:101260009A819093F0048093EF048B819C819093FA
:10127000F2048093F1048D819E819093F404809315
:10128000F3041A8219821C821B8292CFE00FF11F95
:10129000AFCF0F5F1F4F1A8219821C821B821E82E2
:1012A0001D826AE472E0CE0101960E94F5048091ED
:1012B000F3049091F4040817190740F52091EF0406
:1012C0003091F004F901E00FF11F2115310521F4EF
:1012D0001092FF03EFEFF3E08081082E000C990BD2
:1012E000C0970A9798F4232B11F41092FF03808182
:1012F0008F83188641E050E0BE01695F7F4FCE01C9
:1013000001960E942B050F5F1F4FD1CF89819A81D3
:10131000009781F00E940A0BE3E38E16E4E09E063C
:1013200069F48BE193E00E943704CE0101960E949C
:101330004E0473CF60E070E0CB01EECFF401608229
:10134000072E000C880B990B61837283838394832F
:10135000CE0101960E944E04F5E08F0E911C36CF0F
:101360008DE892E00E94370481E693E068CE81E048
:101370008093340480910404909105048930910590
:1013800008F0DBC025E0289FF001299FF00D112413
:10139000EA5FFB4F418152816381748141155105A0
:1013A0006105710509F4C9C0809145049091460416
:1013B000A0914704B09148040091000410910104E9
:1013C0002091020430910304801B910BA20BB30BFC
:1013D00084179507A607B707A8F18081843609F41A
:1013E0009BC08E3609F4A1C0823609F0A3C061E02B
:1013F00070E081E090E00E94090461E070E082E02A
:1014000090E00E94090470E060E090E080E00E94BB
:1014100009048091450490914604A0914704B0913D
:1014200048048093000490930104A0930204B093B5
:10143000030480910404909105040196909305049F
:10144000809304048091450490914604A091470440
:10145000B091480440913F04509140046091410490
:1014600070914204841B950BA60BB70B843F9140EF
:10147000A105B10508F4ACC086E30E945A0290931E
:1014800036048093350488E30E945A02909338040E
:10149000809337048AE30E945A0290933A0480931F
:1014A000390480913404882309F482C018861F828D
:1014B0001A8619861C861B8669EF73E0CE01079693
:1014C0000E94F50405E314E0C016D10609F041C0FE
:1014D00006E212E0A016B10609F456C0F8018081B8
:1014E0000E5F1F4F0E94D201BC01CE0101960E94E7
:1014F000A0044D815E8169817A81CE0107960E94A8
:101500002B05CE0101960E944E046AEF73E0CE01D6
:1015100007960E945705DECF70E060E081E090E022
:101520000E94090470E060E06ACF8DEB93E00E94B6
:1015300037046FCF82EE93E0FACF0E941F04F701C9
:10154000272D11922A95E9F71092050410920404B0
:1015500081CEF801619171918F01CE0101960E94B7
:10156000A0044D815E8169817A81CE0107960E9437
:101570002B05CE0101960E944E046AEF73E0CE0166
:1015800007960E945705A0CF6CEF73E0CE01079637
:101590000E9457054B855C856F81788582E594E0D4
:1015A0000E94A3020E942F04CE0107960E944E04BF
:1015B0008091450490914604A0914704B09148045D
:1015C00080933F0490934004A0934104B09342045D
:1015D0008091450490914604A0914704B09148043D
:1015E00040913B0450913C0460913D0470913E0455
:1015F000841B950BA60BB70B88389341A105B10549
:1016000010F00E9456040E94D8039ECC8FEE94E006
:101610000C944E041F93FC0199278827BC01E89481
:1016200011911032E9F3193010F01E30C8F31B325B
:1016300051F01D3249F4689406C00E943C0B610FC2
:10164000711D811D911D119110531A30B0F33EF49C
:1016500090958095709561957F4F8F4F9F4F1F910B
:101660000895BB274A3031F4992322F4BDE29095C6
:1016700081959F4F0C94520B592F482F372F262FAF
:10168000660F771F881F991F660F771F881F991F86
:10169000620F731F841F951F660F771F881F991F86
:1016A0000895BB27FB015527AA27880F991FAA1F5A
:1016B000A41710F0A41B83955051B9F7A05DAA336D
:1016C00008F0A95DA193009779F7B111B193119238
:1016D000CB010C946B0BDC01FC01672F719177231C
:1016E000E1F7329704C07C916D9370836291AE17DD
:1016F000BF07C8F30895992788270895EE0FFF1FA5
:10170000881F8BBF0790F691E02D19940F931F93BC
:10171000CF93DF938230910510F482E090E0E09166
:10172000F704F091F80430E020E0B0E0A0E030975A
:1017300099F42115310509F44AC0281B390B2430CE
:101740003105D8F58A819B816115710589F1FB010D
:1017500093838283FE0111C04081518102811381F4
:1017600048175907E0F04817590799F4109761F0A6
:1017700012960C93129713961C933296CF01DF9119
:10178000CF911F910F9108950093F7041093F804DF
:10179000F4CF2115310551F04217530738F0A90154
:1017A000DB019A01BD01DF01F801C1CFEF01F9CFE3
:1017B0009093F8048093F704CDCFFE01E20FF31F5E
:1017C000819391932250310939832883D7CF209177
:1017D000F5043091F604232B41F42091020230915C
:1017E00003023093F6042093F50420910002309117
:1017F00001022115310541F42DB73EB74091040295
:1018000050910502241B350BE091F504F091F6048C
:10181000E217F307A0F42E1B3F0B2817390778F0C7
:10182000AC014E5F5F4F2417350748F04E0F5F1F26
:101830005093F6044093F504819391939FCFF0E089
:10184000E0E09CCFCF93DF930097E9F0FC01329763
:1018500013821282A091F704B091F804ED0130E0F8
:1018600020E01097A1F420813181820F931F2091F5
:10187000F5043091F6042817390709F061C0F09398
:10188000F604E093F504DF91CF910895EA01CE17B5
:10189000DF07E8F54A815B819E0141155105B1F7EB
:1018A000E901FB83EA8349915991C40FD51FEC17D5
:1018B000FD0761F4808191810296840F951FE901F3
:1018C00099838883828193819B838A83F0E0E0E01F
:1018D00012968D919C9113970097B9F52D913C919B
:1018E0001197CD010296820F931F2091F50430913C
:1018F000F6042817390739F6309751F51092F80495
:101900001092F704B093F604A093F504BCCFD383F0
:10191000C28340815181840F951FC817D90761F494
:101920004E5F5F4F88819981480F591F51834083D3
:101930008A819B81938382832115310509F0B0CF81
:10194000F093F804E093F7049ECFFD01DC01C0CFD3
:1019500013821282D7CF4F925F926F927F928F92B3
:101960009F92AF92BF92CF92DF92EF92FF920F932E
:101970001F93CF93DF938C01009799F4CB01DF91F4
:10198000CF911F910F91FF90EF90DF90CF90BF907C
:10199000AF909F908F907F906F905F904F900C943E
:1019A000860BFC01E60FF71F9C0122503109E2175C
:1019B000F30708F4AEC0D901CD91DC911197C61799
:1019C000D70720F1C530D10578F0CE0104978617EE
:1019D000970750F0C61BD70B2297C193D1936D93F5
:1019E0007C93CF010E94220CC801DF91CF911F91FF
:1019F0000F91FF90EF90DF90CF90BF90AF909F90AE
:101A00008F907F906F905F904F9008955B01AC1A1C
:101A1000BD0A4C018C0E9D1EA091F704B091F804F4
:101A2000512C412CF12CE12C109731F58091F504CB
:101A30009091F6048815990509F05CC04616570682
:101A400008F058C08091000290910102009741F483
:101A50008DB79EB74091040250910502841B950BEF
:101A6000E817F90708F055C0F093F604E093F50481
:101A7000F90171836083B8CF8D919C911197129673
:101A80006C90129713967C901397A815B90559F589
:101A90006C0142E0C40ED11CCA14DB0420F1AC017D
:101AA0004A195B09DA011296159780F062827382F7
:101AB00051834083D9016D937C93E114F10471F05B
:101AC000D7011396FC93EE9312978ECF22968C0F2C
:101AD0009D1FF90191838083F301EFCFF093F80408
:101AE000E093F70481CF4816590608F42C017D01D4
:101AF000D3019ACFCB010E94860B7C01009749F05D
:101B0000AE01B8010E94970DC8010E94220C870106
:101B10006BCF10E000E068CF85FD0C947B0B8062FA
:101B200091110C947B0B81568A51D8F70895FB01D3
:101B3000DC0102C001900D9241505040D8F7089549
:101B4000FB01DC0101900D920020E1F7089511E006
:101B5000C7E3D1E000E006C0802FFE010E947E0BAB
:101B60002196011DC833D10780E00807A9F7F89432
:021B7000FFCFA5
:101B72000000F90480002800200022002600240032
:101B82002A002C002E000500060007000B000C00A6
:101B92000D001700320034000800090016000A0088
:101BA2001A001C001E00000000006B03A302D002FA
:101BB200B8033303DF0225030D0A0048454152549E
:101BC200424541545F41434B004C4F473A20496ED6
:101BD20076616C696420696E707574004C4F473A87
:101BE20020496E76616C696420696E7075742C2070
:101BF2006E6F742061206C65747465720053455178
:101C02003A2046616C7365004C4F473A2053657128
:101C120075656E636520616C7265616479207275A9
:101C22006E6E696E672C20706C65617365207761DA
:101C3200697420666F722063757272656E742073A8
:101C4200657175656E636520746F20656E642062D0
:101C520065666F7265206C6F6164696E67206120D2
:101C62006E6577206F6E65004C4F473A20496E765D
:101C7200616C696420737465702074797065206981
:101C82006E2073657175656E6365004C4F473A202F
:101C920053657175656E636520746F6F206C6F6E2E
:101CA200672C206F6E6C79206669727374203920FC
:101CB20073746570732077696C6C20626520657837
:101CC200656375746564005345513A2054727565B5
:101CD200004C4F473A204578706563746564207301
:101CE200657175656E636520696E7075742C20620E
:101CF2007574206E6F6E65207265636569766564C2
:101D0200004C4F473A2053657175656E63652069D3
:101D12007320656D7074792C206E6F7468696E67BC
:101D220020746F2070726F636573732E004C4F477F
:101D32003A20416C7420627562626C65207374652E
:101D420070206E6F7420696D706C656D656E746560
:101D520064004C4F473A20556E6B6E6F776E20735E
:0E1D6200746570207479706500502000430095
:00000001FF
