:100000000C942B010C945C010C945C010C945C012D
:100010000C945C010C945C010C945C010C945C01EC
:100020000C945C010C945C010C945C010C945C01DC
:100030000C945C010C945C010C945C010C945C01CC
:100040000C945C010C945C010C945C010C945C01BC
:100050000C945C010C945C010C945C010C943C04C9
:100060000C945C010C94B0040C9486040C945C0118
:100070000C945C010C945C010C945C010C945C018C
:100080000C945C010C945C010C945C010C945C017C
:100090000C945C010C945C010C945C010C945C016C
:1000A0000C945C010C945C010C945C010C945C015C
:1000B0000C945C010C945C010C945C010C945C014C
:1000C0000C945C010C945C010C945C010C945C013C
:1000D0000C945C010C945C010C945C010C945C012C
:1000E0000C945C010C94E4010C94AD010C94C401DB
:1000F0000C9494020C94C8010C94CC010C948502CD
:100100000C9458020C94B1010C94E6040C94A501D3
:100110000C942E030C949B080C94BA010C94D601F9
:100120000C94DA010C94A9010C947B030C94D20179
:100130000C94E8020C94E0010C94B4010C9493012B
:100140000C94F6020C94BE010C948E010000210068
:10015000240027002A002D00300033000101000098
:10016000040107010A0100002200250028002B00DD
:100170002E003100340002010000050108010B01CE
:1001800005050505070508080808020202020A0A13
:100190000808040404040101010101010101030331
:1001A000030303030303040707070C0C0C0C0C0CDC
:1001B0000C0C0202020206060606060606060B0BD9
:1001C0000B0B0B0B0B0B010210202008081020401A
:1001D000102040800201020108040201010204080B
:1001E0001020408080402010080402018004020199
:1001F00080402010080402010804020101020408E2
:1002000010204080010204081020408000000A0BEA
:1002100002090C0D0E080703040100000000000095
:1002200000000000000000000000000000000000CE
:10023000000000000000000012111000000000008B
:1002400000000000000000000000000000000000AE
:100250000000E6049B0811241FBECFEFD1E2DEBFF1
:10026000CDBF00E00CBF23E0AEECB2E001C01D92B8
:10027000A93BB207E1F712E0A0E0B2E0E6E1F6E167
:1002800000E00BBF02C007900D92AE3CB107D9F75A
:1002900011E0CAE2D1E000E006C021970109802FF9
:1002A000FE010E94DB08C932D10780E00807A9F7E8
:1002B0000E941D050C94F90A0C940000282F30E0D0
:1002C000F901E45FFD4F9491F901EA53FE4F449127
:1002D00020583E4FF9012491222309F435C0992377
:1002E00011F191509231F8F4E92FF0E08827E458A9
:1002F000FE4F8F4F0C94DB08AD01B1018E01A501BB
:10030000A9019301B401BA01BE01C401C801CC0125
:10031000D201D6019301DA01E001E401809180006D
:100320008F7780938000E22FF0E0EE0FFF1FEA59F5
:10033000FE4FA591B4918FB7F894EC91611148C02C
:1003400040954E234C938FBF0895809180008F7D00
:10035000E8CF80918000877FE4CF84B58F7784BD1C
:10036000E2CF84B58F7DFBCF8091B0008F778093F3
:10037000B000D9CF8091B0008F7DF9CF80919000EF
:100380008F7780939000CFCF809190008F7DF9CFB1
:1003900080919000877FF5CF8091A0008F77809328
:1003A000A000C1CF8091A0008F7DF9CF8091A000E7
:1003B000877FF5CF809120018F7780932001B3CF85
:1003C000809120018F7DF9CF80912001877FF5CF2B
:1003D0004E2BB8CFCF93DF9390E0FC01EA53FE4F52
:1003E000249180589E4FFC0184918823D1F090E0A5
:1003F000880F991FFC01E45BFE4FA591B491FC01AD
:10040000EA59FE4FC591D49161110EC09FB7F8947F
:100410008C91E22FE0958E238C932881E223E88350
:100420009FBFDF91CF9108958FB7F894EC91E22BA5
:10043000EC938FBFF6CF90917B00977F90937B00DA
:100440008653806480937C0080917A0080648093DE
:100450007A0080917A0086FDFCCF8091780090919F
:10046000790008953FB7F89480910A0390910B03A7
:10047000A0910C03B0910D0326B5A89B05C02F3F9A
:1004800019F00196A11DB11D3FBFBA2FA92F982FBA
:100490008827BC01CD01620F711D811D911D42E0B5
:1004A000660F771F881F991F4A95D1F70895089501
:1004B000AF92BF92CF92DF92EF92FF920F931F9372
:1004C000CF93DF936C017B018B01040F151FEB01B0
:1004D0005E01AE18BF08C017D10759F06991D60167
:1004E000ED91FC910190F081E02DC6011995892BC9
:1004F00079F7C501DF91CF911F910F91FF90EF9098
:10050000DF90CF90BF90AF900895FC01538D448D44
:10051000252F30E0842F90E0821B930B541710F0AE
:10052000CF96089501970895FC01918D828D9817BB
:1005300061F0A28DAE0FBF2FB11D5D968C91928D93
:100540009F5F9F73928F90E008958FEF9FEF0895C4
:100550002FB7F89480910E0390910F03A091100390
:10056000B09111032FBF80931A0390931B03A093A4
:100570001C03B0931D0382E193E00E94940297FF55
:1005800026C02FB7F89480910E0390910F03A0918D
:100590001003B09111032FBF40911A0350911B0318
:1005A00060911C0370911D03841B950BA60BB70B68
:1005B000409116035091170360911803709119032D
:1005C00084179507A607B707B0F28FEF9FEF08953E
:1005D000FC01918D828D981731F0828DE80FF11D0D
:1005E000858D90E008958FEF9FEF0895FC01918D28
:1005F000228D892F90E0805C9F4F821B91098F7321
:100600009927089582E193E00E94F60221E0892B68
:1006100009F420E0822F0895FC01A48DA80FB92FC2
:10062000B11DA35ABF4F2C91848D90E001968F731A
:100630009927848FA689B7892C93A089B1898C9139
:10064000837080648C93938D848D981306C0028888
:10065000F389E02D80818F7D80830895EF92FF9252
:100660000F931F93CF93DF93EC0181E0888F9B8DD5
:100670008C8D98131AC0E889F989808185FF15C08F
:100680009FB7F894EE89FF896083E889F9898081B2
:100690008370806480839FBF81E090E0DF91CF9181
:1006A0001F910F91FF90EF900895F62E0B8D10E0A3
:1006B0000F5F1F4F0F731127E02E8C8D8E110CC012
:1006C0000FB607FCFACFE889F989808185FFF5CF5D
:1006D000CE010E940C03F1CFEB8DEC0FFD2FF11D2D
:1006E000E35AFF4FF0829FB7F8940B8FEA89FB899A
:1006F00080818062CFCFCF93DF93EC01888D8823F8
:10070000B9F0AA89BB89E889F9898C9185FD03C074
:10071000808186FD0DC00FB607FCF7CF8C9185FF59
:10072000F2CF808185FFEDCFCE010E940C03E9CF8F
:10073000DF91CF91089580E090E0892B29F00E940D
:10074000020381110E94000080E090E0892B49F0B3
:1007500080E090E0892B29F00E94000081110E9426
:10076000000080E090E0892B49F080E090E0892B48
:1007700029F00E94000081110E94000080E090E0BA
:10078000892B49F080E090E0892B29F00E9400003D
:1007900081110C9400000895CF93DF93FC01019028
:1007A0000020E9F73197AF01481B590BBC0182E1EA
:1007B00093E00E945802EC0142E050E069E472E0EC
:1007C00082E193E00E9458028C0F9D1FDF91CF9130
:1007D0000895FC0180819181009711F00C947F09AC
:1007E00008950F931F93CF93DF93EC018881998134
:1007F000009759F02A813B812617370730F081E0B6
:10080000DF91CF911F910F9108958B016F5F7F4F03
:100810000E94080A009759F0998388831B830A83F2
:100820002C813D81232B59F7FC011082E8CF80E019
:10083000E7CFCF93DF93EC0170E060E00E94F1031B
:100840002881398181110FC02115310519F0C901A5
:100850000E947F09198218821D821C821B821A82C3
:10086000DF91CF9108951D821C826BE472E0C90173
:10087000DF91CF910C94F20A1F920F920FB60F9254
:1008800011242F933F938F939F93AF93BF938091A6
:100890000E0390910F03A0911003B09111033091BA
:1008A000090323E0230F2D3758F50196A11DB11D33
:1008B0002093090380930E0390930F03A0931003DA
:1008C000B093110380910A0390910B03A0910C0344
:1008D000B0910D030196A11DB11D80930A03909361
:1008E0000B03A0930C03B0930D03BF91AF919F91A5
:1008F0008F913F912F910F900FBE0F901F901895E1
:1009000026E8230F0296A11DB11DD2CF1F920F9290
:100910000FB60F9211240BB60F922F933F934F9364
:100920005F936F937F938F939F93AF93BF93EF9357
:10093000FF9382E193E00E940C03FF91EF91BF913E
:10094000AF919F918F917F916F915F914F913F9167
:100950002F910F900BBE0F900FBE0F901F90189508
:100960001F920F920FB60F9211240BB60F922F9376
:100970008F939F93EF93FF93E0912203F0912303D2
:100980008081E0912803F091290382FD1DC09081B0
:1009900080912B038F5F8F7320912C03821741F07E
:1009A000E0912B03F0E0EE5EFC4F958F80932B03DC
:1009B000FF91EF919F918F912F910F900BBE0F9010
:1009C0000FBE0F901F9018958081F2CFE2E1F3E007
:1009D0001382128288EE93E0A0E0B0E084839583D6
:1009E000A683B7838BE392E09183808385EC90E0CC
:1009F0009587848784EC90E09787868780EC90E0E9
:100A0000918B808B81EC90E0938B828B82EC90E0D9
:100A1000958B848B86EC90E0978B868B118E128E53
:100A2000138E148EEFEAF3E0118210821382128289
:100A300015821482CF010C941904CF93DF9300D058
:100A400000D01F921F92CDB7DEB7789484B5826034
:100A500084BD84B5816084BD85B5826085BD85B562
:100A6000816085BD80916E00816080936E001092E0
:100A7000810080918100826080938100809181005B
:100A800081608093810080918000816080938000EC
:100A90008091B10084608093B1008091B00081604A
:100AA0008093B0008091910082608093910080914A
:100AB000910081608093910080919000816080938B
:100AC00090008091A10082608093A1008091A1009C
:100AD00081608093A1008091A00081608093A0003C
:100AE00080912101826080932101809121018160A8
:100AF0008093210180912001816080932001809169
:100B00007A00846080937A0080917A00826080937A
:100B10007A0080917A00816080937A0080917A00D7
:100B2000806880937A001092C100A7E1AA2EA2E00B
:100B3000BA2E01E212E07501F7018081F2E0EF0EBA
:100B4000F11C61E00E94EA010E151F05A9F7E7E01C
:100B50006E2EE2E07E2EF7E1CF2EF2E0DF2E830153
:100B6000F80180810E5F1F4F61E00E94EA01C0160C
:100B7000D106B1F767E2C62E62E0D62E77E3872E64
:100B800072E0972E8601F80180810E5F1F4F61E0B1
:100B90000E94EA0180169106B1F760E089E10E94A7
:100BA000EA0160E083E00E94EA0160E084E00E94E4
:100BB000EA0160E082E00E94EA0160E088E10E94D0
:100BC000EA0160E086E30E94EA0160E088E30E94B7
:100BD000EA0160E08AE30E94EA0160E08CE30E949F
:100BE000EA01F5018081F2E0AF0EB11C60E00E94E5
:100BF0005E01F3018081F2E06F0E711C60E00E94E3
:100C00005E01EA14FB0469F757E2E52E52E0F52E87
:100C1000F7018081F2E0EF0EF11C60E00E945E01BE
:100C2000E016F106A9F707E212E0F80180810E5FF5
:100C30001F4F61E00E945E010E151F05B1F70E9473
:100C400032022B013C0148EC842E912CA12CB12CBA
:100C50000E9432026419750986099709683E73403B
:100C600081059105A8F3F1E08F1A9108A108B10858
:100C700028EE420E23E0521E611C711C8114910467
:100C8000A104B10429F7F6018081F2E0CF0ED11C56
:100C900060E00E945E01CE14DF04A9F78FB7F894DC
:100CA00040910E0350910F03609110037091110356
:100CB0008FBFE0912203F091230382E08083E091D3
:100CC0001E03F0911F031082E0912003F091210395
:100CD0008FEC808310922A03E0912603F091270382
:100CE00086E08083E0912403F09125038081806178
:100CF0008083E0912403F0912503808188608083C4
:100D0000E0912403F0912503808180688083E09145
:100D10002403F091250380818F7D808361E087E04B
:100D20000E945E017724739490E0C92E93E0D92E3F
:100D300023EDA22E22E0B22E3DE2632E2FB7F894CF
:100D400080910E0390910F03A0911003B0911103B5
:100D50002FBF8093050390930603A0930703B093DE
:100D6000080382E193E00E94F602181619060CF5BA
:100D700082E193E00E94940290910002992309F489
:100D80005BC08936A1F05CF48B3409F44FC0823526
:100D900009F449C08CE492E00E94CC030AC08B366F
:100DA00009F447C08D36B1F71092000202C070926C
:100DB000040380910403882309F425C182E193E0B0
:100DC0000E94F602181619060CF0A2C11A821982A6
:100DD0001C821B821E821D82CE0101960E94190474
:100DE0000E94A80297FD52C08A30910509F44EC0B6
:100DF0008F8318860D811E810F5F1F4FB801CE01B2
:100E000001960E94F103882359F329813A818D814B
:100E10009E81BE01695F7F4F820F931F0E94F20A7D
:100E20001E830D83DDCF70920303C3CF7092020344
:100E3000C0CF10920203BDCF8A3509F4BACF8CF42B
:100E40008D3409F13CF4833409F4B3CF883409F0CC
:100E5000A1CFAFCF863509F4ACCF883509F09ACF52
:100E6000A8CF863709F4A5CF3CF4833609F4A1CF87
:100E7000883609F08FCF9DCF883709F49ACF8A370B
:100E800009F088CF96CF7092000293CF8091AF0384
:100E90009091B003009709F489C069817A81611546
:100EA000710509F481C04091B1035091B2032D81C5
:100EB0003E814217530708F477C00E94F20A8D81E1
:100EC0009E819093B4038093B3031E821D82CE0152
:100ED00001960E94E9031092040383EDE82E82E05C
:100EE000F82E10E000E08091B3039091B40308174E
:100EF000190708F088C0E091AF03F091B003309774
:100F000009F06BC01092CE02EEECF2E050800F5F61
:100F10001F4F1A8219821C821B821E821D82CE01E3
:100F200001960E9419048091B3039091B4030817AD
:100F3000190708F055C02091AF033091B003F901B3
:100F4000E00FF11F2115310521F41092CE02EEECD5
:100F5000F2E08081082E000C990BC0970A9708F0E8
:100F60003FC0232B11F41092CE0280818F8318860C
:100F70008D809E802FEF821A920AB401CE010196D5
:100F80000E94F103882369F029813A818D819E8135
:100F9000BE01695F7F4F820F931F0E94F20A9E82FB
:100FA0008D820F5F1F4FBFCF0E947F0989819A8179
:100FB0009093B0038093AF038B819C819093B20395
:100FC0008093B1038D819E819093B4038093B3038A
:100FD0001A8219821C821B8278CFE00FF11F96CFF4
:100FE00089819A81009709F47DC00E949F08CE14E0
:100FF000DF0409F07BC08AE592E00E94CC03CE01B9
:1010000001960E94E90380910303882309F457C0E5
:1010100080910003909101038930910508F07FC011
:1010200025E0289FF001299FF00D1124ED52FD4F7E
:1010300041815281638174814115510561057105BA
:1010400009F46DC08091050390910603A0910703F8
:10105000B09108030091CF021091D0022091D102EB
:101060003091D202801B910BA20BB30B8417950712
:10107000A607B70720F18081843641F08E3631F023
:10108000823621F08CEB92E00E94CC038091050324
:1010900090910603A0910703B09108038093CF02BB
:1010A0009093D002A093D102B093D202809100031A
:1010B0009091010301969093010380930003809126
:1010C0000203882361F086E30E941B0288E30E94EA
:1010D0001B028AE30E941B028CE30E941B020E94F7
:1010E0009B032CCE60E070E0CB0181CFF7015082F2
:1010F000072E000C880B990B618372838383948382
:10110000CE0101960E94E903F5E0EF0EF11CEBCE53
:1011100081E992E00E94CC031092040374CFF501A0
:10112000262D11922A95E9F71092010310920003DF
:1011300010920303C4CF8FEA93E00C94E9031F934A
:10114000FC0199278827BC01E89411911032E9F33A
:10115000193010F01E30C8F31B3251F01D3249F423
:10116000689406C00E94C608610F711D811D911D03
:10117000119110531A30B0F33EF49095809570950C
:1011800061957F4F8F4F9F4F1F910895592F482F83
:10119000372F262F660F771F881F991F660F771F1F
:1011A000881F991F620F731F841F951F660F771F7B
:1011B000881F991F0895EE0FFF1F881F8BBF079090
:1011C000F691E02D19940F931F93CF93DF93823004
:1011D000910510F482E090E0E091B703F091B8033C
:1011E00030E020E0B0E0A0E0309799F4211531051F
:1011F00009F44AC0281B390B24303105D8F58A81FF
:101200009B816115710589F1FB0193838283FE0146
:1012100011C0408151810281138148175907E0F0C4
:101220004817590799F4109761F012960C9312978A
:1012300013961C933296CF01DF91CF911F910F919E
:1012400008950093B7031093B803F4CF2115310527
:1012500051F04217530738F0A901DB019A01BD0193
:10126000DF01F801C1CFEF01F9CF9093B80380936C
:10127000B703CDCFFE01E20FF31F8193919322506C
:10128000310939832883D7CF2091B5033091B60334
:10129000232B41F420910302309104023093B603D2
:1012A0002093B503209101023091020221153105EE
:1012B00041F42DB73EB74091050250910602241B20
:1012C000350BE091B503F091B603E217F307A0F4F4
:1012D0002E1B3F0B2817390778F0AC014E5F5F4F8C
:1012E0002417350748F04E0F5F1F5093B603409305
:1012F000B503819391939FCFF0E0E0E09CCFCF9333
:10130000DF930097E9F0FC01329713821282A091DB
:10131000B703B091B803ED0130E020E01097A1F4DD
:1013200020813181820F931F2091B5033091B60344
:101330002817390709F061C0F093B603E093B503AD
:10134000DF91CF910895EA01CE17DF07E8F54A81D2
:101350005B819E0141155105B1F7E901FB83EA83E9
:1013600049915991C40FD51FEC17FD0761F4808195
:1013700091810296840F951FE90199838883828168
:1013800093819B838A83F0E0E0E012968D919C919B
:1013900013970097B9F52D913C911197CD010296C5
:1013A000820F931F2091B5033091B6032817390798
:1013B00039F6309751F51092B8031092B703B093F5
:1013C000B603A093B503BCCFD383C28340815181C0
:1013D000840F951FC817D90761F44E5F5F4F88814E
:1013E0009981480F591F518340838A819B81938340
:1013F00082832115310509F0B0CFF093B803E09353
:10140000B7039ECFFD01DC01C0CF13821282D7CF7C
:101410004F925F926F927F928F929F92AF92BF9204
:10142000CF92DF92EF92FF920F931F93CF93DF93B0
:101430008C01009799F4CB01DF91CF911F910F910F
:10144000FF90EF90DF90CF90BF90AF909F908F90E4
:101450007F906F905F904F900C94E308FC01E60F33
:10146000F71F9C0122503109E217F30708F4AEC0C0
:10147000D901CD91DC911197C617D70720F1C5305E
:10148000D10578F0CE0104978617970750F0C61B58
:10149000D70B2297C193D1936D937C93CF010E9478
:1014A0007F09C801DF91CF911F910F91FF90EF90BD
:1014B000DF90CF90BF90AF909F908F907F906F9074
:1014C0005F904F9008955B01AC1ABD0A4C018C0EE1
:1014D0009D1EA091B703B091B803512C412CF12C63
:1014E000E12C109731F58091B5039091B6038815E2
:1014F000990509F05CC04616570608F058C080915F
:10150000010290910202009741F48DB79EB740917D
:10151000050250910602841B950BE817F90708F0A5
:1015200055C0F093B603E093B503F901718360836E
:10153000B8CF8D919C91119712966C90129713963B
:101540007C901397A815B90559F56C0142E0C40EBB
:10155000D11CCA14DB0420F1AC014A195B09DA0181
:101560001296159780F06282738251834083D9016D
:101570006D937C93E114F10471F0D7011396FC9301
:10158000EE9312978ECF22968C0F9D1FF9019183B7
:101590008083F301EFCFF093B803E093B70381CFDB
:1015A0004816590608F42C017D01D3019ACFCB01CE
:1015B0000E94E3087C01009749F0AE01B8010E9447
:1015C000E90AC8010E947F0987016BCF10E000E0A3
:1015D00068CFFB01DC0102C001900D9241505040E8
:1015E000D8F70895FB01DC0101900D920020E1F78E
:1015F000089511E0CAE2D1E000E006C0802FFE01AC
:101600000E94DB082196011DCB32D10780E008073C
:06161000A9F7F894FFCFDA
:10161600010000B9038000200022002400260028D3
:10162600002A002C002E00080009000A00160034CB
:10163600001A001C001E000500060007000B000C27
:10164600000D0017003200000000002E035802852E
:10165600027B03F6029402E8020D0A00496E7661E7
:101666006C696420696E7075740053657175656E7A
:10167600636520746F6F206C6F6E672C206F6E6CC5
:1016860079206669727374203920737465707320CB
:1016960077696C6C2062652065786563757465642E
:1016A6000045787065637465642073657175656E51
:1016B600636520696E7075742C20627574206E6F78
:1016C6006E6520726563656976656400556E6B6E3E
:0E16D6006F776E2073746570207479706500F4
:00000001FF
